{
  "contractName": "GreenContract",
  "abi": [
    {
      "inputs": [],
      "payable": false,
      "stateMutability": "nonpayable",
      "type": "constructor"
    },
    {
      "anonymous": false,
      "inputs": [
        {
          "indexed": false,
          "internalType": "string",
          "name": "applicationName",
          "type": "string"
        },
        {
          "indexed": false,
          "internalType": "string",
          "name": "workflowName",
          "type": "string"
        },
        {
          "indexed": false,
          "internalType": "address",
          "name": "originatingAddress",
          "type": "address"
        }
      ],
      "name": "ContractCreated",
      "type": "event"
    },
    {
      "anonymous": false,
      "inputs": [
        {
          "indexed": false,
          "internalType": "string",
          "name": "applicationName",
          "type": "string"
        },
        {
          "indexed": false,
          "internalType": "string",
          "name": "workflowName",
          "type": "string"
        },
        {
          "indexed": false,
          "internalType": "string",
          "name": "action",
          "type": "string"
        },
        {
          "indexed": false,
          "internalType": "address",
          "name": "originatingAddress",
          "type": "address"
        }
      ],
      "name": "ContractUpdated",
      "type": "event"
    },
    {
      "constant": true,
      "inputs": [],
      "name": "State",
      "outputs": [
        {
          "internalType": "enum GreenContract.StateType",
          "name": "",
          "type": "uint8"
        }
      ],
      "payable": false,
      "stateMutability": "view",
      "type": "function"
    },
    {
      "constant": true,
      "inputs": [],
      "name": "buyer",
      "outputs": [
        {
          "internalType": "address",
          "name": "",
          "type": "address"
        }
      ],
      "payable": false,
      "stateMutability": "view",
      "type": "function"
    },
    {
      "constant": true,
      "inputs": [],
      "name": "data",
      "outputs": [
        {
          "internalType": "string",
          "name": "",
          "type": "string"
        }
      ],
      "payable": false,
      "stateMutability": "view",
      "type": "function"
    },
    {
      "constant": true,
      "inputs": [],
      "name": "installments",
      "outputs": [
        {
          "internalType": "uint256",
          "name": "",
          "type": "uint256"
        }
      ],
      "payable": false,
      "stateMutability": "view",
      "type": "function"
    },
    {
      "constant": true,
      "inputs": [],
      "name": "listPrice",
      "outputs": [
        {
          "internalType": "uint256",
          "name": "",
          "type": "uint256"
        }
      ],
      "payable": false,
      "stateMutability": "view",
      "type": "function"
    },
    {
      "constant": true,
      "inputs": [],
      "name": "newData",
      "outputs": [
        {
          "internalType": "string",
          "name": "",
          "type": "string"
        }
      ],
      "payable": false,
      "stateMutability": "view",
      "type": "function"
    },
    {
      "constant": true,
      "inputs": [],
      "name": "owner",
      "outputs": [
        {
          "internalType": "address",
          "name": "",
          "type": "address"
        }
      ],
      "payable": false,
      "stateMutability": "view",
      "type": "function"
    },
    {
      "constant": true,
      "inputs": [],
      "name": "validator",
      "outputs": [
        {
          "internalType": "address",
          "name": "",
          "type": "address"
        }
      ],
      "payable": false,
      "stateMutability": "view",
      "type": "function"
    },
    {
      "constant": false,
      "inputs": [
        {
          "internalType": "string",
          "name": "inputdata",
          "type": "string"
        },
        {
          "internalType": "uint256",
          "name": "price",
          "type": "uint256"
        },
        {
          "internalType": "uint256",
          "name": "inputInstallments",
          "type": "uint256"
        }
      ],
      "name": "setTree",
      "outputs": [],
      "payable": false,
      "stateMutability": "nonpayable",
      "type": "function"
    },
    {
      "constant": true,
      "inputs": [],
      "name": "getPrice",
      "outputs": [
        {
          "internalType": "uint256",
          "name": "",
          "type": "uint256"
        }
      ],
      "payable": false,
      "stateMutability": "view",
      "type": "function"
    },
    {
      "constant": true,
      "inputs": [],
      "name": "getInstallments",
      "outputs": [
        {
          "internalType": "uint256",
          "name": "",
          "type": "uint256"
        }
      ],
      "payable": false,
      "stateMutability": "view",
      "type": "function"
    },
    {
      "constant": true,
      "inputs": [],
      "name": "getOwner",
      "outputs": [
        {
          "internalType": "address",
          "name": "",
          "type": "address"
        }
      ],
      "payable": false,
      "stateMutability": "view",
      "type": "function"
    },
    {
      "constant": false,
      "inputs": [
        {
          "internalType": "address",
          "name": "inputvalidator",
          "type": "address"
        }
      ],
      "name": "makeOffer",
      "outputs": [],
      "payable": false,
      "stateMutability": "nonpayable",
      "type": "function"
    },
    {
      "constant": false,
      "inputs": [],
      "name": "rejectOffer",
      "outputs": [],
      "payable": false,
      "stateMutability": "nonpayable",
      "type": "function"
    },
    {
      "constant": false,
      "inputs": [],
      "name": "acceptOffer",
      "outputs": [],
      "payable": false,
      "stateMutability": "nonpayable",
      "type": "function"
    },
    {
      "constant": false,
      "inputs": [],
      "name": "accept",
      "outputs": [],
      "payable": false,
      "stateMutability": "nonpayable",
      "type": "function"
    },
    {
      "constant": false,
      "inputs": [],
      "name": "reject",
      "outputs": [],
      "payable": false,
      "stateMutability": "nonpayable",
      "type": "function"
    },
    {
      "constant": false,
      "inputs": [
        {
          "internalType": "string",
          "name": "proofdata",
          "type": "string"
        }
      ],
      "name": "submitProofOfWork",
      "outputs": [],
      "payable": false,
      "stateMutability": "nonpayable",
      "type": "function"
    },
    {
      "constant": false,
      "inputs": [],
      "name": "markValidated",
      "outputs": [],
      "payable": false,
      "stateMutability": "nonpayable",
      "type": "function"
    },
    {
      "constant": false,
      "inputs": [],
      "name": "acceptProof",
      "outputs": [],
      "payable": false,
      "stateMutability": "nonpayable",
      "type": "function"
    },
    {
      "constant": false,
      "inputs": [],
      "name": "markInvalidated",
      "outputs": [],
      "payable": false,
      "stateMutability": "nonpayable",
      "type": "function"
    }
  ],
  "bytecode": "0x60806040526040518060400160405280600d81526020017f43727970746f466f7265737473000000000000000000000000000000000000008152506000908051906020019062000051929190620000f5565b506040518060400160405280600d81526020017f477265656e436f6e747261637400000000000000000000000000000000000000815250600190805190602001906200009f929190620000f5565b50348015620000ad57600080fd5b5033600260006101000a81548173ffffffffffffffffffffffffffffffffffffffff021916908373ffffffffffffffffffffffffffffffffffffffff160217905550620001a4565b828054600181600116156101000203166002900490600052602060002090601f016020900481019282601f106200013857805160ff191683800117855562000169565b8280016001018555821562000169579182015b82811115620001685782518255916020019190600101906200014b565b5b5090506200017891906200017c565b5090565b620001a191905b808211156200019d57600081600090555060010162000183565b5090565b90565b612be280620001b46000396000f3fe608060405234801561001057600080fd5b50600436106101375760003560e01c80638da5cb5b116100b8578063e0c9b3011161007c578063e0c9b301146105b0578063e5b12812146105ba578063eb62df61146105d8578063efd998ad146105e2578063f1b6dccd146105ec578063f5833a2f1461061857610137565b80638da5cb5b1461033b5780638efc905a1461038557806398d5fdca14610440578063baf2a3211461045e578063dfba03bc1461052d57610137565b80636eb588d9116100ff5780636eb588d9146101c25780637150d8ae146101e057806373d4a13a1461022a578063893d20e8146102ad5780638b1264b1146102f757610137565b80632852b71c1461013c5780632ad29c81146101465780632f34a3d7146101505780633a5381b51461016e5780634dc415de146101b8575b600080fd5b610144610622565b005b61014e610903565b005b610158610c35565b6040518082815260200191505060405180910390f35b610176610c3b565b604051808273ffffffffffffffffffffffffffffffffffffffff1673ffffffffffffffffffffffffffffffffffffffff16815260200191505060405180910390f35b6101c0610c61565b005b6101ca610f41565b6040518082815260200191505060405180910390f35b6101e8610f47565b604051808273ffffffffffffffffffffffffffffffffffffffff1673ffffffffffffffffffffffffffffffffffffffff16815260200191505060405180910390f35b610232610f6d565b6040518080602001828103825283818151815260200191508051906020019080838360005b83811015610272578082015181840152602081019050610257565b50505050905090810190601f16801561029f5780820380516001836020036101000a031916815260200191505b509250505060405180910390f35b6102b561100b565b604051808273ffffffffffffffffffffffffffffffffffffffff1673ffffffffffffffffffffffffffffffffffffffff16815260200191505060405180910390f35b6103396004803603602081101561030d57600080fd5b81019080803573ffffffffffffffffffffffffffffffffffffffff169060200190929190505050611035565b005b61034361143b565b604051808273ffffffffffffffffffffffffffffffffffffffff1673ffffffffffffffffffffffffffffffffffffffff16815260200191505060405180910390f35b61043e6004803603602081101561039b57600080fd5b81019080803590602001906401000000008111156103b857600080fd5b8201836020820111156103ca57600080fd5b803590602001918460018302840111640100000000831117156103ec57600080fd5b91908080601f016020809104026020016040519081016040528093929190818152602001838380828437600081840152601f19601f820116905080830192505050505050509192919290505050611461565b005b6104486117a9565b6040518082815260200191505060405180910390f35b61052b6004803603606081101561047457600080fd5b810190808035906020019064010000000081111561049157600080fd5b8201836020820111156104a357600080fd5b803590602001918460018302840111640100000000831117156104c557600080fd5b91908080601f016020809104026020016040519081016040528093929190818152602001838380828437600081840152601f19601f82011690508083019250505050505050919291929080359060200190929190803590602001909291905050506117b3565b005b610535611a9e565b6040518080602001828103825283818151815260200191508051906020019080838360005b8381101561057557808201518184015260208101905061055a565b50505050905090810190601f1680156105a25780820380516001836020036101000a031916815260200191505b509250505060405180910390f35b6105b8611b3c565b005b6105c2611e54565b6040518082815260200191505060405180910390f35b6105e0611e5e565b005b6105ea61215a565b005b6105f461240b565b6040518082600981111561060457fe5b60ff16815260200191505060405180910390f35b61062061241e565b005b600760019054906101000a900473ffffffffffffffffffffffffffffffffffffffff1673ffffffffffffffffffffffffffffffffffffffff163373ffffffffffffffffffffffffffffffffffffffff16141580156106a657506004600981111561068857fe5b600760009054906101000a900460ff1660098111156106a357fe5b14155b156106fc576040517f08c379a000000000000000000000000000000000000000000000000000000000815260040180806020018281038252604a81526020018061288b604a913960600191505060405180910390fd5b6004600981111561070957fe5b600760009054906101000a900460ff16600981111561072457fe5b141561074f576006600760006101000a81548160ff0219169083600981111561074957fe5b02179055505b7fbc3f77ce3a281e615c85054a5814e59703e2ee0cf33782f46911e0888d4c394c6000600133604051808060200180602001806020018573ffffffffffffffffffffffffffffffffffffffff1673ffffffffffffffffffffffffffffffffffffffff1681526020018481038452878181546001816001161561010002031660029004815260200191508054600181600116156101000203166002900480156108385780601f1061080d57610100808354040283529160200191610838565b820191906000526020600020905b81548152906001019060200180831161081b57829003601f168201915b50508481038352868181546001816001161561010002031660029004815260200191508054600181600116156101000203166002900480156108bb5780601f10610890576101008083540402835291602001916108bb565b820191906000526020600020905b81548152906001019060200180831161089e57829003601f168201915b5050848103825260068152602001807f6163636570740000000000000000000000000000000000000000000000000000815250602001965050505050505060405180910390a1565b3373ffffffffffffffffffffffffffffffffffffffff16600860009054906101000a900473ffffffffffffffffffffffffffffffffffffffff1673ffffffffffffffffffffffffffffffffffffffff16146109a9576040517f08c379a000000000000000000000000000000000000000000000000000000000815260040180806020018281038252603a81526020018061296b603a913960400191505060405180910390fd5b600260098111156109b657fe5b600760009054906101000a900460ff1660098111156109d157fe5b1480610a025750600360098111156109e557fe5b600760009054906101000a900460ff166009811115610a0057fe5b145b15610a30576004600760006101000a81548160ff02191690836009811115610a2657fe5b0217905550610a81565b6040517f08c379a00000000000000000000000000000000000000000000000000000000081526004018080602001828103825260588152602001806129a56058913960600191505060405180910390fd5b7fbc3f77ce3a281e615c85054a5814e59703e2ee0cf33782f46911e0888d4c394c6000600133604051808060200180602001806020018573ffffffffffffffffffffffffffffffffffffffff1673ffffffffffffffffffffffffffffffffffffffff168152602001848103845287818154600181600116156101000203166002900481526020019150805460018160011615610100020316600290048015610b6a5780601f10610b3f57610100808354040283529160200191610b6a565b820191906000526020600020905b815481529060010190602001808311610b4d57829003601f168201915b5050848103835286818154600181600116156101000203166002900481526020019150805460018160011615610100020316600290048015610bed5780601f10610bc257610100808354040283529160200191610bed565b820191906000526020600020905b815481529060010190602001808311610bd057829003601f168201915b50508481038252600d8152602001807f6d61726b56616c69646174656400000000000000000000000000000000000000815250602001965050505050505060405180910390a1565b60065481565b600860009054906101000a900473ffffffffffffffffffffffffffffffffffffffff1681565b600760019054906101000a900473ffffffffffffffffffffffffffffffffffffffff1673ffffffffffffffffffffffffffffffffffffffff163373ffffffffffffffffffffffffffffffffffffffff1614158015610ce5575060056009811115610cc757fe5b600760009054906101000a900460ff166009811115610ce257fe5b14155b15610d3b576040517f08c379a000000000000000000000000000000000000000000000000000000000815260040180806020018281038252604c815260200180612aa4604c913960600191505060405180910390fd5b60056009811115610d4857fe5b600760009054906101000a900460ff166009811115610d6357fe5b1415610d8d5760078060006101000a81548160ff02191690836009811115610d8757fe5b02179055505b7fbc3f77ce3a281e615c85054a5814e59703e2ee0cf33782f46911e0888d4c394c6000600133604051808060200180602001806020018573ffffffffffffffffffffffffffffffffffffffff1673ffffffffffffffffffffffffffffffffffffffff168152602001848103845287818154600181600116156101000203166002900481526020019150805460018160011615610100020316600290048015610e765780601f10610e4b57610100808354040283529160200191610e76565b820191906000526020600020905b815481529060010190602001808311610e5957829003601f168201915b5050848103835286818154600181600116156101000203166002900481526020019150805460018160011615610100020316600290048015610ef95780601f10610ece57610100808354040283529160200191610ef9565b820191906000526020600020905b815481529060010190602001808311610edc57829003601f168201915b5050848103825260068152602001807f72656a6563740000000000000000000000000000000000000000000000000000815250602001965050505050505060405180910390a1565b60055481565b600760019054906101000a900473ffffffffffffffffffffffffffffffffffffffff1681565b60038054600181600116156101000203166002900480601f0160208091040260200160405190810160405280929190818152602001828054600181600116156101000203166002900480156110035780601f10610fd857610100808354040283529160200191611003565b820191906000526020600020905b815481529060010190602001808311610fe657829003601f168201915b505050505081565b6000600260009054906101000a900473ffffffffffffffffffffffffffffffffffffffff16905090565b600073ffffffffffffffffffffffffffffffffffffffff168173ffffffffffffffffffffffffffffffffffffffff1614156110bb576040517f08c379a000000000000000000000000000000000000000000000000000000000815260040180806020018281038252603381526020018061282a6033913960400191505060405180910390fd5b600060098111156110c857fe5b600760009054906101000a900460ff1660098111156110e357fe5b14611139576040517f08c379a000000000000000000000000000000000000000000000000000000000815260040180806020018281038252603a815260200180612a6a603a913960400191505060405180910390fd5b3373ffffffffffffffffffffffffffffffffffffffff16600260009054906101000a900473ffffffffffffffffffffffffffffffffffffffff1673ffffffffffffffffffffffffffffffffffffffff1614156111e0576040517f08c379a0000000000000000000000000000000000000000000000000000000008152600401808060200182810382526031815260200180612b2c6031913960400191505060405180910390fd5b33600760016101000a81548173ffffffffffffffffffffffffffffffffffffffff021916908373ffffffffffffffffffffffffffffffffffffffff16021790555080600860006101000a81548173ffffffffffffffffffffffffffffffffffffffff021916908373ffffffffffffffffffffffffffffffffffffffff1602179055506001600760006101000a81548160ff0219169083600981111561128157fe5b02179055507fbc3f77ce3a281e615c85054a5814e59703e2ee0cf33782f46911e0888d4c394c6000600133604051808060200180602001806020018573ffffffffffffffffffffffffffffffffffffffff1673ffffffffffffffffffffffffffffffffffffffff16815260200184810384528781815460018160011615610100020316600290048152602001915080546001816001161561010002031660029004801561136f5780601f106113445761010080835404028352916020019161136f565b820191906000526020600020905b81548152906001019060200180831161135257829003601f168201915b50508481038352868181546001816001161561010002031660029004815260200191508054600181600116156101000203166002900480156113f25780601f106113c7576101008083540402835291602001916113f2565b820191906000526020600020905b8154815290600101906020018083116113d557829003601f168201915b5050848103825260098152602001807f6d616b654f666665720000000000000000000000000000000000000000000000815250602001965050505050505060405180910390a150565b600260009054906101000a900473ffffffffffffffffffffffffffffffffffffffff1681565b3373ffffffffffffffffffffffffffffffffffffffff16600260009054906101000a900473ffffffffffffffffffffffffffffffffffffffff1673ffffffffffffffffffffffffffffffffffffffff1614611507576040517f08c379a00000000000000000000000000000000000000000000000000000000081526004018080602001828103825260238152602001806129086023913960400191505060405180910390fd5b6006600981111561151457fe5b600760009054906101000a900460ff16600981111561152f57fe5b1415801561156357506008600981111561154557fe5b600760009054906101000a900460ff16600981111561156057fe5b14155b156115b9576040517f08c379a0000000000000000000000000000000000000000000000000000000008152600401808060200182810382526051815260200180612b5d6051913960600191505060405180910390fd5b80600490805190602001906115cf929190612750565b506003600760006101000a81548160ff021916908360098111156115ef57fe5b02179055507fbc3f77ce3a281e615c85054a5814e59703e2ee0cf33782f46911e0888d4c394c6000600133604051808060200180602001806020018573ffffffffffffffffffffffffffffffffffffffff1673ffffffffffffffffffffffffffffffffffffffff1681526020018481038452878181546001816001161561010002031660029004815260200191508054600181600116156101000203166002900480156116dd5780601f106116b2576101008083540402835291602001916116dd565b820191906000526020600020905b8154815290600101906020018083116116c057829003601f168201915b50508481038352868181546001816001161561010002031660029004815260200191508054600181600116156101000203166002900480156117605780601f1061173557610100808354040283529160200191611760565b820191906000526020600020905b81548152906001019060200180831161174357829003601f168201915b5050848103825260118152602001807f7375626d697450726f6f664f66576f726b000000000000000000000000000000815250602001965050505050505060405180910390a150565b6000600554905090565b3373ffffffffffffffffffffffffffffffffffffffff16600260009054906101000a900473ffffffffffffffffffffffffffffffffffffffff1673ffffffffffffffffffffffffffffffffffffffff1614611859576040517f08c379a00000000000000000000000000000000000000000000000000000000081526004018080602001828103825260308152602001806129fd6030913960400191505060405180910390fd5b6000600981111561186657fe5b600760009054906101000a900460ff16600981111561188157fe5b146118d7576040517f08c379a00000000000000000000000000000000000000000000000000000000081526004018080602001828103825260338152602001806128d56033913960400191505060405180910390fd5b8160058190555082600390805190602001906118f4929190612750565b506000600760006101000a81548160ff0219169083600981111561191457fe5b0217905550806006819055507fc4e35ee48689d4f7c3d8ea58efd54155f1ea84ffee48edb29b2cdf3c95320ea860006001336040518080602001806020018473ffffffffffffffffffffffffffffffffffffffff1673ffffffffffffffffffffffffffffffffffffffff168152602001838103835286818154600181600116156101000203166002900481526020019150805460018160011615610100020316600290048015611a055780601f106119da57610100808354040283529160200191611a05565b820191906000526020600020905b8154815290600101906020018083116119e857829003601f168201915b5050838103825285818154600181600116156101000203166002900481526020019150805460018160011615610100020316600290048015611a885780601f10611a5d57610100808354040283529160200191611a88565b820191906000526020600020905b815481529060010190602001808311611a6b57829003601f168201915b50509550505050505060405180910390a1505050565b60048054600181600116156101000203166002900480601f016020809104026020016040519081016040528092919081815260200182805460018160011615610100020316600290048015611b345780601f10611b0957610100808354040283529160200191611b34565b820191906000526020600020905b815481529060010190602001808311611b1757829003601f168201915b505050505081565b600760019054906101000a900473ffffffffffffffffffffffffffffffffffffffff1673ffffffffffffffffffffffffffffffffffffffff163373ffffffffffffffffffffffffffffffffffffffff1614158015611bc0575060046009811115611ba257fe5b600760009054906101000a900460ff166009811115611bbd57fe5b14155b15611c16576040517f08c379a000000000000000000000000000000000000000000000000000000000815260040180806020018281038252604a81526020018061288b604a913960600191505060405180910390fd5b600060065460055481611c2557fe5b04905060066000815480929190600190039190505550806005540360058190555060006006541415611c7a576009600760006101000a81548160ff02191690836009811115611c7057fe5b0217905550611c9f565b6008600760006101000a81548160ff02191690836009811115611c9957fe5b02179055505b7fbc3f77ce3a281e615c85054a5814e59703e2ee0cf33782f46911e0888d4c394c6000600133604051808060200180602001806020018573ffffffffffffffffffffffffffffffffffffffff1673ffffffffffffffffffffffffffffffffffffffff168152602001848103845287818154600181600116156101000203166002900481526020019150805460018160011615610100020316600290048015611d885780601f10611d5d57610100808354040283529160200191611d88565b820191906000526020600020905b815481529060010190602001808311611d6b57829003601f168201915b5050848103835286818154600181600116156101000203166002900481526020019150805460018160011615610100020316600290048015611e0b5780601f10611de057610100808354040283529160200191611e0b565b820191906000526020600020905b815481529060010190602001808311611dee57829003601f168201915b50508481038252600b8152602001807f61636365707450726f6f66000000000000000000000000000000000000000000815250602001965050505050505060405180910390a150565b6000600654905090565b60016009811115611e6b57fe5b600760009054906101000a900460ff166009811115611e8657fe5b14611edc576040517f08c379a000000000000000000000000000000000000000000000000000000000815260040180806020018281038252603d815260200180612a2d603d913960400191505060405180910390fd5b3373ffffffffffffffffffffffffffffffffffffffff16600260009054906101000a900473ffffffffffffffffffffffffffffffffffffffff1673ffffffffffffffffffffffffffffffffffffffff1614611f82576040517f08c379a00000000000000000000000000000000000000000000000000000000081526004018080602001828103825260348152602001806127f66034913960400191505060405180910390fd5b6002600760006101000a81548160ff02191690836009811115611fa157fe5b02179055507fbc3f77ce3a281e615c85054a5814e59703e2ee0cf33782f46911e0888d4c394c6000600133604051808060200180602001806020018573ffffffffffffffffffffffffffffffffffffffff1673ffffffffffffffffffffffffffffffffffffffff16815260200184810384528781815460018160011615610100020316600290048152602001915080546001816001161561010002031660029004801561208f5780601f106120645761010080835404028352916020019161208f565b820191906000526020600020905b81548152906001019060200180831161207257829003601f168201915b50508481038352868181546001816001161561010002031660029004815260200191508054600181600116156101000203166002900480156121125780601f106120e757610100808354040283529160200191612112565b820191906000526020600020905b8154815290600101906020018083116120f557829003601f168201915b50508481038252600b8152602001807f6163636570744f66666572000000000000000000000000000000000000000000815250602001965050505050505060405180910390a1565b6001600981111561216757fe5b600760009054906101000a900460ff16600981111561218257fe5b141580156121de57503373ffffffffffffffffffffffffffffffffffffffff16600260009054906101000a900473ffffffffffffffffffffffffffffffffffffffff1673ffffffffffffffffffffffffffffffffffffffff1614155b15612234576040517f08c379a000000000000000000000000000000000000000000000000000000000815260040180806020018281038252602e81526020018061285d602e913960400191505060405180910390fd5b60078060006101000a81548160ff0219169083600981111561225257fe5b02179055507fbc3f77ce3a281e615c85054a5814e59703e2ee0cf33782f46911e0888d4c394c6000600133604051808060200180602001806020018573ffffffffffffffffffffffffffffffffffffffff1673ffffffffffffffffffffffffffffffffffffffff1681526020018481038452878181546001816001161561010002031660029004815260200191508054600181600116156101000203166002900480156123405780601f1061231557610100808354040283529160200191612340565b820191906000526020600020905b81548152906001019060200180831161232357829003601f168201915b50508481038352868181546001816001161561010002031660029004815260200191508054600181600116156101000203166002900480156123c35780601f10612398576101008083540402835291602001916123c3565b820191906000526020600020905b8154815290600101906020018083116123a657829003601f168201915b50508481038252600b8152602001807f72656a6563744f66666572000000000000000000000000000000000000000000815250602001965050505050505060405180910390a1565b600760009054906101000a900460ff1681565b3373ffffffffffffffffffffffffffffffffffffffff16600860009054906101000a900473ffffffffffffffffffffffffffffffffffffffff1673ffffffffffffffffffffffffffffffffffffffff16146124c4576040517f08c379a000000000000000000000000000000000000000000000000000000000815260040180806020018281038252603c815260200180612af0603c913960400191505060405180910390fd5b600260098111156124d157fe5b600760009054906101000a900460ff1660098111156124ec57fe5b148061251d57506003600981111561250057fe5b600760009054906101000a900460ff16600981111561251b57fe5b145b1561254b576005600760006101000a81548160ff0219169083600981111561254157fe5b021790555061259c565b6040517f08c379a000000000000000000000000000000000000000000000000000000000815260040180806020018281038252604081526020018061292b6040913960400191505060405180910390fd5b7fbc3f77ce3a281e615c85054a5814e59703e2ee0cf33782f46911e0888d4c394c6000600133604051808060200180602001806020018573ffffffffffffffffffffffffffffffffffffffff1673ffffffffffffffffffffffffffffffffffffffff1681526020018481038452878181546001816001161561010002031660029004815260200191508054600181600116156101000203166002900480156126855780601f1061265a57610100808354040283529160200191612685565b820191906000526020600020905b81548152906001019060200180831161266857829003601f168201915b50508481038352868181546001816001161561010002031660029004815260200191508054600181600116156101000203166002900480156127085780601f106126dd57610100808354040283529160200191612708565b820191906000526020600020905b8154815290600101906020018083116126eb57829003601f168201915b50508481038252600f8152602001807f6d61726b496e76616c6964617465640000000000000000000000000000000000815250602001965050505050505060405180910390a1565b828054600181600116156101000203166002900490600052602060002090601f016020900481019282601f1061279157805160ff19168380011785556127bf565b828001600101855582156127bf579182015b828111156127be5782518255916020019190600101906127a3565b5b5090506127cc91906127d0565b5090565b6127f291905b808211156127ee5760008160009055506001016127d6565b5090565b9056fe6163636570744f666665722066756e6374696f6e2063616e206f6e6c792062652063616c6c656420627920746865206f776e65726d616b654f666665722066756e6374696f6e206e65656420746f206861766520612076616c696461746f72206164647265737354686520636f6e74726163742063616e206f6e6c792062652072656a656374656420627920746865206f776e65726163636570742066756e6374696f6e2063616e206f6e6c792062652063616c6c656420627920746865204275796572207768656e20636f6e74726163742069732076616c696461746564736574547265652066756e6374696f6e2063616e2062652063616c6c6564206f6e6c7920696e206163746976652073746174654f6e6c79206f776e65722063616e207375626d69742070726f6f66206f6620776f726b6d61726b496e76616c6964617465642066756e6374696f6e2063616e206f6e6c792062652063616c6c65642069662070656e64696e6756616c69646174696f6e6d61726b56616c6964617465642066756e6374696f6e2063616e206f6e6c792062652063616c6c6564206279207468652076616c696461746f726d61726b56616c6964617465642066756e6374696f6e2063616e206f6e6c792062652063616c6c65642069662050656e64696e6756616c69646174696f6e206f722050656e64696e6750726f6f6656616c69646174696f6e736574547265652066756e6374696f6e2063616e206f6e6c792062652063616c6c656420627920746865206f776e65726163636570744f666665722066756e6374696f6e2063616e206f6e6c792062652063616c6c6564207768656e20616e206f6666657220706c616365642e6d616b654f666665722066756e6374696f6e2063616e206f6e6c792062652063616c6c6564207768656e20696e2041637469766520737461746572656a6570742066756e6374696f6e2063616e206f6e6c792062652063616c6c656420627920746865204275796572207768656e20636f6e747261637420697320696e76616c6964617465646d61726b496e76616c6964617465642066756e6374696f6e2063616e206f6e6c792062652063616c6c6564206279207468652076616c696461746f726d616b654f666665722066756e6374696f6e2063616e6e6f742062652063616c6c656420627920746865206f776e65722050726f6f66206f6620776f726b2063616e206f6e6c79206265207375626d69747465642061667465722062757965722061636365707473206f7220616e20696e7374616c6c6d656e742069732070616964a265627a7a72315820fe2c3ef21f563a1a9832bfde627631f44126de19d72e41009e8ce54f15e93d2d64736f6c63430005100032",
  "source": "pragma solidity ^0.5.0;\n\n\ncontract GreenContract {\n\n     enum StateType {\n        Active,\n        OfferPlaced,\n        PendingValidation,\n        PendingProofValidation,\n        Validated,\n        Invalidated,\n        BuyerAccepted,\n        ContractCancelled,\n        InstallmentPaid,\n        ContractEnded\n    }\n\n    event ContractCreated(string applicationName, string workflowName, address originatingAddress);\n    event ContractUpdated(string applicationName, string workflowName, string action, address originatingAddress);\n\n    string internal appName = \"CryptoForests\";\n    string internal workflowName = \"GreenContract\";\n\n    address public owner;\n    string public data;\n    string public newData;\n    uint256 public listPrice;\n    uint256 public installments;\n    StateType public State;\n\n    address public buyer;\n    address public validator;\n\n    constructor () public {\n        owner = msg.sender;\n    }\n\n    function setTree(string memory inputdata, uint256 price, uint256 inputInstallments) public {\n        \n        if (owner != msg.sender) {\n            revert(\"setTree function can only be called by the owner\");\n        }\n\n        if (State != StateType.Active) {\n            revert(\"setTree function can be called only in active state\");\n        }\n        listPrice = price;\n        // XXX Need tree object instead of data\n        data = inputdata;\n        State = StateType.Active;\n        installments = inputInstallments;\n\n        emit ContractCreated(appName, workflowName, msg.sender);\n    }\n\n    function getPrice() public view returns (uint256) {\n        return listPrice;\n    }\n\n    function getInstallments() public view returns (uint256) {\n        return installments;\n    }\n\n    function getOwner() public view returns (address) {\n        return owner;\n    }\n\n    function makeOffer(address inputvalidator) external {\n        if (inputvalidator == address(0x000)) {\n            revert(\"makeOffer function need to have a validator address\");\n        }\n\n        if (State != StateType.Active) {\n            revert(\"makeOffer function can only be called when in Active state\");\n        }\n\n        if (owner == msg.sender) {\n            revert(\"makeOffer function cannot be called by the owner \");\n        }\n\n        buyer = msg.sender;\n        validator = inputvalidator;\n        State = StateType.OfferPlaced;\n\n        emit ContractUpdated(appName, workflowName, \"makeOffer\", msg.sender);\n    }\n\n    function rejectOffer() public {\n \n        if (State != StateType.OfferPlaced && owner != msg.sender) {\n            revert(\"The contract can only be rejected by the owner\");\n        }\n        State = StateType.ContractCancelled;\n        emit ContractUpdated(appName, workflowName, \"rejectOffer\", msg.sender);\n    }\n\n    function acceptOffer() public {\n        if (State != StateType.OfferPlaced) {\n            revert(\"acceptOffer function can only be called when an offer placed.\");\n        }\n\n        if (owner != msg.sender) {\n            revert(\"acceptOffer function can only be called by the owner\");\n        }\n\n        State = StateType.PendingValidation;\n        emit ContractUpdated(appName, workflowName, \"acceptOffer\", msg.sender);\n    }\n\n    function accept() external {\n        if (msg.sender != buyer && State != StateType.Validated) {\n            revert(\"accept function can only be called by the Buyer when contract is validated\");\n        }\n\n        if (State == StateType.Validated) {\n            State = StateType.BuyerAccepted;\n        }\n\n        emit ContractUpdated(appName, workflowName, \"accept\", msg.sender);\n    }\n\n    function reject() external {\n        if (msg.sender != buyer && State != StateType.Invalidated) {\n            revert(\"rejept function can only be called by the Buyer when contract is invalidated\");\n        }\n\n        if (State == StateType.Invalidated) {\n            State = StateType.ContractCancelled;\n        }\n\n        emit ContractUpdated(appName, workflowName, \"reject\", msg.sender);\n    }\n\n    function submitProofOfWork(string memory proofdata) public {\n\n        if (owner != msg.sender) {\n            revert(\"Only owner can submit proof of work\");\n        }\n\n        if (State != StateType.BuyerAccepted && State != StateType.InstallmentPaid) {\n            revert(\"Proof of work can only be submitted after buyer accepts or an installment is paid\");\n        }\n\n        newData = proofdata;\n        State = StateType.PendingProofValidation;\n\n        emit ContractUpdated(appName, workflowName, \"submitProofOfWork\", msg.sender);\n    }\n\n    function markValidated() external {\n        if (validator != msg.sender) {\n            revert(\"markValidated function can only be called by the validator\");\n        }\n\n        if (State == StateType.PendingValidation || State == StateType.PendingProofValidation) {\n            State = StateType.Validated;\n        } else {\n            revert(\"markValidated function can only be called if PendingValidation or PendingProofValidation\");\n        }\n\n        emit ContractUpdated(appName, workflowName, \"markValidated\", msg.sender);\n    }\n\n    function acceptProof() external {\n        if (msg.sender != buyer && State != StateType.Validated) {\n            revert(\"accept function can only be called by the Buyer when contract is validated\");\n        }\n\n        uint256 payment = listPrice / installments;\n        // XXX Make payment\n        \n        installments--;\n        listPrice = listPrice - payment;\n\n        if (installments == 0x00) {\n            // No more pending payments\n            State = StateType.ContractEnded;\n        } else {\n            State = StateType.InstallmentPaid;\n        }\n\n        emit ContractUpdated(appName, workflowName, \"acceptProof\", msg.sender);\n    }\n\n    function markInvalidated() external {\n        if (validator != msg.sender) {\n            revert(\"markInvalidated function can only be called by the validator\");\n        }\n\n        if (State == StateType.PendingValidation || State == StateType.PendingProofValidation) {\n            State = StateType.Invalidated;\n        } else {\n            revert(\"markInvalidated function can only be called if pendingValidation\");\n        }\n\n        emit ContractUpdated(appName, workflowName, \"markInvalidated\", msg.sender);\n    }\n}",
  "sourcePath": "/home/leledumbodev/devpost/CryptoForests/contracts/GreenContract.sol",
  "compiler": {
    "name": "solc",
    "version": "0.5.16+commit.9c3226ce.Emscripten.clang"
  },
  "schemaVersion": "3.3.0",
  "updatedAt": "2020-10-28T15:46:53.736Z",
  "networkType": "ethereum",
  "devdoc": {
    "methods": {}
  },
  "userdoc": {
    "methods": {}
  }
}