{
  "contractName": "GreenContract",
  "abi": [
    {
      "inputs": [],
      "payable": false,
      "stateMutability": "nonpayable",
      "type": "constructor"
    },
    {
      "anonymous": false,
      "inputs": [
        {
          "indexed": false,
          "internalType": "string",
          "name": "applicationName",
          "type": "string"
        },
        {
          "indexed": false,
          "internalType": "string",
          "name": "workflowName",
          "type": "string"
        },
        {
          "indexed": false,
          "internalType": "address",
          "name": "originatingAddress",
          "type": "address"
        }
      ],
      "name": "ContractCreated",
      "type": "event"
    },
    {
      "anonymous": false,
      "inputs": [
        {
          "indexed": false,
          "internalType": "string",
          "name": "applicationName",
          "type": "string"
        },
        {
          "indexed": false,
          "internalType": "string",
          "name": "workflowName",
          "type": "string"
        },
        {
          "indexed": false,
          "internalType": "string",
          "name": "action",
          "type": "string"
        },
        {
          "indexed": false,
          "internalType": "address",
          "name": "originatingAddress",
          "type": "address"
        }
      ],
      "name": "ContractUpdated",
      "type": "event"
    },
    {
      "constant": true,
      "inputs": [],
      "name": "State",
      "outputs": [
        {
          "internalType": "enum GreenContract.StateType",
          "name": "",
          "type": "uint8"
        }
      ],
      "payable": false,
      "stateMutability": "view",
      "type": "function"
    },
    {
      "constant": true,
      "inputs": [],
      "name": "buyer",
      "outputs": [
        {
          "internalType": "address",
          "name": "",
          "type": "address"
        }
      ],
      "payable": false,
      "stateMutability": "view",
      "type": "function"
    },
    {
      "constant": true,
      "inputs": [],
      "name": "data",
      "outputs": [
        {
          "internalType": "string",
          "name": "",
          "type": "string"
        }
      ],
      "payable": false,
      "stateMutability": "view",
      "type": "function"
    },
    {
      "constant": true,
      "inputs": [],
      "name": "installments",
      "outputs": [
        {
          "internalType": "uint256",
          "name": "",
          "type": "uint256"
        }
      ],
      "payable": false,
      "stateMutability": "view",
      "type": "function"
    },
    {
      "constant": true,
      "inputs": [],
      "name": "listPrice",
      "outputs": [
        {
          "internalType": "uint256",
          "name": "",
          "type": "uint256"
        }
      ],
      "payable": false,
      "stateMutability": "view",
      "type": "function"
    },
    {
      "constant": true,
      "inputs": [],
      "name": "newData",
      "outputs": [
        {
          "internalType": "string",
          "name": "",
          "type": "string"
        }
      ],
      "payable": false,
      "stateMutability": "view",
      "type": "function"
    },
    {
      "constant": true,
      "inputs": [],
      "name": "owner",
      "outputs": [
        {
          "internalType": "address",
          "name": "",
          "type": "address"
        }
      ],
      "payable": false,
      "stateMutability": "view",
      "type": "function"
    },
    {
      "constant": true,
      "inputs": [],
      "name": "validator",
      "outputs": [
        {
          "internalType": "address",
          "name": "",
          "type": "address"
        }
      ],
      "payable": false,
      "stateMutability": "view",
      "type": "function"
    },
    {
      "constant": false,
      "inputs": [
        {
          "internalType": "string",
          "name": "inputdata",
          "type": "string"
        },
        {
          "internalType": "uint256",
          "name": "price",
          "type": "uint256"
        },
        {
          "internalType": "uint256",
          "name": "inputInstallments",
          "type": "uint256"
        }
      ],
      "name": "setTree",
      "outputs": [],
      "payable": false,
      "stateMutability": "nonpayable",
      "type": "function"
    },
    {
      "constant": true,
      "inputs": [],
      "name": "getPrice",
      "outputs": [
        {
          "internalType": "uint256",
          "name": "",
          "type": "uint256"
        }
      ],
      "payable": false,
      "stateMutability": "view",
      "type": "function"
    },
    {
      "constant": true,
      "inputs": [],
      "name": "getInstallments",
      "outputs": [
        {
          "internalType": "uint256",
          "name": "",
          "type": "uint256"
        }
      ],
      "payable": false,
      "stateMutability": "view",
      "type": "function"
    },
    {
      "constant": true,
      "inputs": [],
      "name": "getOwner",
      "outputs": [
        {
          "internalType": "address",
          "name": "",
          "type": "address"
        }
      ],
      "payable": false,
      "stateMutability": "view",
      "type": "function"
    },
    {
      "constant": true,
      "inputs": [],
      "name": "getState",
      "outputs": [
        {
          "internalType": "enum GreenContract.StateType",
          "name": "",
          "type": "uint8"
        }
      ],
      "payable": false,
      "stateMutability": "view",
      "type": "function"
    },
    {
      "constant": false,
      "inputs": [
        {
          "internalType": "address",
          "name": "inputvalidator",
          "type": "address"
        }
      ],
      "name": "buyTree",
      "outputs": [],
      "payable": false,
      "stateMutability": "nonpayable",
      "type": "function"
    },
    {
      "constant": false,
      "inputs": [
        {
          "internalType": "string",
          "name": "proofdata",
          "type": "string"
        }
      ],
      "name": "submitProofOfWork",
      "outputs": [],
      "payable": false,
      "stateMutability": "nonpayable",
      "type": "function"
    },
    {
      "constant": false,
      "inputs": [],
      "name": "markValidated",
      "outputs": [],
      "payable": false,
      "stateMutability": "nonpayable",
      "type": "function"
    },
    {
      "constant": false,
      "inputs": [],
      "name": "markInvalidated",
      "outputs": [],
      "payable": false,
      "stateMutability": "nonpayable",
      "type": "function"
    }
  ],
  "bytecode": "0x60806040526040518060400160405280600d81526020017f43727970746f466f7265737473000000000000000000000000000000000000008152506000908051906020019062000051929190620000f5565b506040518060400160405280600d81526020017f477265656e436f6e747261637400000000000000000000000000000000000000815250600190805190602001906200009f929190620000f5565b50348015620000ad57600080fd5b5033600260006101000a81548173ffffffffffffffffffffffffffffffffffffffff021916908373ffffffffffffffffffffffffffffffffffffffff160217905550620001a4565b828054600181600116156101000203166002900490600052602060002090601f016020900481019282601f106200013857805160ff191683800117855562000169565b8280016001018555821562000169579182015b82811115620001685782518255916020019190600101906200014b565b5b5090506200017891906200017c565b5090565b620001a191905b808211156200019d57600081600090555060010162000183565b5090565b90565b611bdb80620001b46000396000f3fe608060405234801561001057600080fd5b506004361061010b5760003560e01c80638da5cb5b116100a2578063bd1c3b8711610071578063bd1c3b87146104d5578063dfba03bc14610519578063e5b128121461059c578063f1b6dccd146105ba578063f5833a2f146105e65761010b565b80638da5cb5b146102e35780638efc905a1461032d57806398d5fdca146103e8578063baf2a321146104065761010b565b80636eb588d9116100de5780636eb588d9146101ae5780637150d8ae146101cc57806373d4a13a14610216578063893d20e8146102995761010b565b80631865c57d146101105780632ad29c811461013c5780632f34a3d7146101465780633a5381b514610164575b600080fd5b6101186105f0565b6040518082600581111561012857fe5b60ff16815260200191505060405180910390f35b610144610607565b005b61014e610911565b6040518082815260200191505060405180910390f35b61016c610917565b604051808273ffffffffffffffffffffffffffffffffffffffff1673ffffffffffffffffffffffffffffffffffffffff16815260200191505060405180910390f35b6101b661093d565b6040518082815260200191505060405180910390f35b6101d4610943565b604051808273ffffffffffffffffffffffffffffffffffffffff1673ffffffffffffffffffffffffffffffffffffffff16815260200191505060405180910390f35b61021e610969565b6040518080602001828103825283818151815260200191508051906020019080838360005b8381101561025e578082015181840152602081019050610243565b50505050905090810190601f16801561028b5780820380516001836020036101000a031916815260200191505b509250505060405180910390f35b6102a1610a07565b604051808273ffffffffffffffffffffffffffffffffffffffff1673ffffffffffffffffffffffffffffffffffffffff16815260200191505060405180910390f35b6102eb610a31565b604051808273ffffffffffffffffffffffffffffffffffffffff1673ffffffffffffffffffffffffffffffffffffffff16815260200191505060405180910390f35b6103e66004803603602081101561034357600080fd5b810190808035906020019064010000000081111561036057600080fd5b82018360208201111561037257600080fd5b8035906020019184600183028401116401000000008311171561039457600080fd5b91908080601f016020809104026020016040519081016040528093929190818152602001838380828437600081840152601f19601f820116905080830192505050505050509192919290505050610a57565b005b6103f0610d6b565b6040518082815260200191505060405180910390f35b6104d36004803603606081101561041c57600080fd5b810190808035906020019064010000000081111561043957600080fd5b82018360208201111561044b57600080fd5b8035906020019184600183028401116401000000008311171561046d57600080fd5b91908080601f016020809104026020016040519081016040528093929190818152602001838380828437600081840152601f19601f8201169050808301925050505050505091929192908035906020019092919080359060200190929190505050610d75565b005b610517600480360360208110156104eb57600080fd5b81019080803573ffffffffffffffffffffffffffffffffffffffff169060200190929190505050611060565b005b610521611466565b6040518080602001828103825283818151815260200191508051906020019080838360005b83811015610561578082015181840152602081019050610546565b50505050905090810190601f16801561058e5780820380516001836020036101000a031916815260200191505b509250505060405180910390f35b6105a4611504565b6040518082815260200191505060405180910390f35b6105c261150e565b604051808260058111156105d257fe5b60ff16815260200191505060405180910390f35b6105ee611521565b005b6000600760009054906101000a900460ff16905090565b3373ffffffffffffffffffffffffffffffffffffffff16600860009054906101000a900473ffffffffffffffffffffffffffffffffffffffff1673ffffffffffffffffffffffffffffffffffffffff16146106ad576040517f08c379a000000000000000000000000000000000000000000000000000000000815260040180806020018281038252603a815260200180611a9a603a913960400191505060405180910390fd5b600160058111156106ba57fe5b600760009054906101000a900460ff1660058111156106d557fe5b1415610704576002600760006101000a81548160ff021916908360058111156106fa57fe5b0217905550610755565b6040517f08c379a000000000000000000000000000000000000000000000000000000000815260040180806020018281038252603e8152602001806119c8603e913960400191505060405180910390fd5b61075d611823565b7fbc3f77ce3a281e615c85054a5814e59703e2ee0cf33782f46911e0888d4c394c6000600133604051808060200180602001806020018573ffffffffffffffffffffffffffffffffffffffff1673ffffffffffffffffffffffffffffffffffffffff1681526020018481038452878181546001816001161561010002031660029004815260200191508054600181600116156101000203166002900480156108465780601f1061081b57610100808354040283529160200191610846565b820191906000526020600020905b81548152906001019060200180831161082957829003601f168201915b50508481038352868181546001816001161561010002031660029004815260200191508054600181600116156101000203166002900480156108c95780601f1061089e576101008083540402835291602001916108c9565b820191906000526020600020905b8154815290600101906020018083116108ac57829003601f168201915b50508481038252600d8152602001807f6d61726b56616c69646174656400000000000000000000000000000000000000815250602001965050505050505060405180910390a1565b60065481565b600860009054906101000a900473ffffffffffffffffffffffffffffffffffffffff1681565b60055481565b600760019054906101000a900473ffffffffffffffffffffffffffffffffffffffff1681565b60038054600181600116156101000203166002900480601f0160208091040260200160405190810160405280929190818152602001828054600181600116156101000203166002900480156109ff5780601f106109d4576101008083540402835291602001916109ff565b820191906000526020600020905b8154815290600101906020018083116109e257829003601f168201915b505050505081565b6000600260009054906101000a900473ffffffffffffffffffffffffffffffffffffffff16905090565b600260009054906101000a900473ffffffffffffffffffffffffffffffffffffffff1681565b3373ffffffffffffffffffffffffffffffffffffffff16600260009054906101000a900473ffffffffffffffffffffffffffffffffffffffff1673ffffffffffffffffffffffffffffffffffffffff1614610afd576040517f08c379a0000000000000000000000000000000000000000000000000000000008152600401808060200182810382526023815260200180611a066023913960400191505060405180910390fd5b60046005811115610b0a57fe5b600760009054906101000a900460ff166005811115610b2557fe5b14610b7b576040517f08c379a00000000000000000000000000000000000000000000000000000000081526004018080602001828103825260408152602001806119556040913960400191505060405180910390fd5b8060049080519060200190610b919291906118af565b506001600760006101000a81548160ff02191690836005811115610bb157fe5b02179055507fbc3f77ce3a281e615c85054a5814e59703e2ee0cf33782f46911e0888d4c394c6000600133604051808060200180602001806020018573ffffffffffffffffffffffffffffffffffffffff1673ffffffffffffffffffffffffffffffffffffffff168152602001848103845287818154600181600116156101000203166002900481526020019150805460018160011615610100020316600290048015610c9f5780601f10610c7457610100808354040283529160200191610c9f565b820191906000526020600020905b815481529060010190602001808311610c8257829003601f168201915b5050848103835286818154600181600116156101000203166002900481526020019150805460018160011615610100020316600290048015610d225780601f10610cf757610100808354040283529160200191610d22565b820191906000526020600020905b815481529060010190602001808311610d0557829003601f168201915b5050848103825260118152602001807f7375626d697450726f6f664f66576f726b000000000000000000000000000000815250602001965050505050505060405180910390a150565b6000600554905090565b3373ffffffffffffffffffffffffffffffffffffffff16600260009054906101000a900473ffffffffffffffffffffffffffffffffffffffff1673ffffffffffffffffffffffffffffffffffffffff1614610e1b576040517f08c379a0000000000000000000000000000000000000000000000000000000008152600401808060200182810382526030815260200180611ad46030913960400191505060405180910390fd5b60006005811115610e2857fe5b600760009054906101000a900460ff166005811115610e4357fe5b14610e99576040517f08c379a00000000000000000000000000000000000000000000000000000000081526004018080602001828103825260338152602001806119956033913960400191505060405180910390fd5b816005819055508260039080519060200190610eb69291906118af565b506000600760006101000a81548160ff02191690836005811115610ed657fe5b0217905550806006819055507fc4e35ee48689d4f7c3d8ea58efd54155f1ea84ffee48edb29b2cdf3c95320ea860006001336040518080602001806020018473ffffffffffffffffffffffffffffffffffffffff1673ffffffffffffffffffffffffffffffffffffffff168152602001838103835286818154600181600116156101000203166002900481526020019150805460018160011615610100020316600290048015610fc75780601f10610f9c57610100808354040283529160200191610fc7565b820191906000526020600020905b815481529060010190602001808311610faa57829003601f168201915b505083810382528581815460018160011615610100020316600290048152602001915080546001816001161561010002031660029004801561104a5780601f1061101f5761010080835404028352916020019161104a565b820191906000526020600020905b81548152906001019060200180831161102d57829003601f168201915b50509550505050505060405180910390a1505050565b600073ffffffffffffffffffffffffffffffffffffffff168173ffffffffffffffffffffffffffffffffffffffff1614156110e6576040517f08c379a0000000000000000000000000000000000000000000000000000000008152600401808060200182810382526031815260200180611a296031913960400191505060405180910390fd5b600060058111156110f357fe5b600760009054906101000a900460ff16600581111561110e57fe5b14611164576040517f08c379a0000000000000000000000000000000000000000000000000000000008152600401808060200182810382526038815260200180611b046038913960400191505060405180910390fd5b3373ffffffffffffffffffffffffffffffffffffffff16600260009054906101000a900473ffffffffffffffffffffffffffffffffffffffff1673ffffffffffffffffffffffffffffffffffffffff16141561120b576040517f08c379a000000000000000000000000000000000000000000000000000000000815260040180806020018281038252602f815260200180611b3c602f913960400191505060405180910390fd5b33600760016101000a81548173ffffffffffffffffffffffffffffffffffffffff021916908373ffffffffffffffffffffffffffffffffffffffff16021790555080600860006101000a81548173ffffffffffffffffffffffffffffffffffffffff021916908373ffffffffffffffffffffffffffffffffffffffff1602179055506001600760006101000a81548160ff021916908360058111156112ac57fe5b02179055507fbc3f77ce3a281e615c85054a5814e59703e2ee0cf33782f46911e0888d4c394c6000600133604051808060200180602001806020018573ffffffffffffffffffffffffffffffffffffffff1673ffffffffffffffffffffffffffffffffffffffff16815260200184810384528781815460018160011615610100020316600290048152602001915080546001816001161561010002031660029004801561139a5780601f1061136f5761010080835404028352916020019161139a565b820191906000526020600020905b81548152906001019060200180831161137d57829003601f168201915b505084810383528681815460018160011615610100020316600290048152602001915080546001816001161561010002031660029004801561141d5780601f106113f25761010080835404028352916020019161141d565b820191906000526020600020905b81548152906001019060200180831161140057829003601f168201915b5050848103825260078152602001807f6275795472656500000000000000000000000000000000000000000000000000815250602001965050505050505060405180910390a150565b60048054600181600116156101000203166002900480601f0160208091040260200160405190810160405280929190818152602001828054600181600116156101000203166002900480156114fc5780601f106114d1576101008083540402835291602001916114fc565b820191906000526020600020905b8154815290600101906020018083116114df57829003601f168201915b505050505081565b6000600654905090565b600760009054906101000a900460ff1681565b3373ffffffffffffffffffffffffffffffffffffffff16600860009054906101000a900473ffffffffffffffffffffffffffffffffffffffff1673ffffffffffffffffffffffffffffffffffffffff16146115c7576040517f08c379a000000000000000000000000000000000000000000000000000000000815260040180806020018281038252603c815260200180611b6b603c913960400191505060405180910390fd5b600160058111156115d457fe5b600760009054906101000a900460ff1660058111156115ef57fe5b141561161e576003600760006101000a81548160ff0219169083600581111561161457fe5b021790555061166f565b6040517f08c379a0000000000000000000000000000000000000000000000000000000008152600401808060200182810382526040815260200180611a5a6040913960400191505060405180910390fd5b7fbc3f77ce3a281e615c85054a5814e59703e2ee0cf33782f46911e0888d4c394c6000600133604051808060200180602001806020018573ffffffffffffffffffffffffffffffffffffffff1673ffffffffffffffffffffffffffffffffffffffff1681526020018481038452878181546001816001161561010002031660029004815260200191508054600181600116156101000203166002900480156117585780601f1061172d57610100808354040283529160200191611758565b820191906000526020600020905b81548152906001019060200180831161173b57829003601f168201915b50508481038352868181546001816001161561010002031660029004815260200191508054600181600116156101000203166002900480156117db5780601f106117b0576101008083540402835291602001916117db565b820191906000526020600020905b8154815290600101906020018083116117be57829003601f168201915b50508481038252600f8152602001807f6d61726b496e76616c6964617465640000000000000000000000000000000000815250602001965050505050505060405180910390a1565b60006006546005548161183257fe5b04905060066000815480929190600190039190505550806005540360058190555060006006541415611887576005600760006101000a81548160ff0219169083600581111561187d57fe5b02179055506118ac565b6004600760006101000a81548160ff021916908360058111156118a657fe5b02179055505b50565b828054600181600116156101000203166002900490600052602060002090601f016020900481019282601f106118f057805160ff191683800117855561191e565b8280016001018555821561191e579182015b8281111561191d578251825591602001919060010190611902565b5b50905061192b919061192f565b5090565b61195191905b8082111561194d576000816000905550600101611935565b5090565b9056fe50726f6f66206f6620776f726b2063616e206f6e6c79206265207375626d697474656420616674657220616e20696e7374616c6c6d656e742069732070616964736574547265652066756e6374696f6e2063616e2062652063616c6c6564206f6e6c7920696e206163746976652073746174656d61726b56616c6964617465642066756e6374696f6e2063616e206f6e6c792062652063616c6c65642069662050656e64696e6756616c69646174696f6e4f6e6c79206f776e65722063616e207375626d69742070726f6f66206f6620776f726b627579547265652066756e6374696f6e206e65656420746f206861766520612076616c696461746f7220616464726573736d61726b496e76616c6964617465642066756e6374696f6e2063616e206f6e6c792062652063616c6c65642069662070656e64696e6756616c69646174696f6e6d61726b56616c6964617465642066756e6374696f6e2063616e206f6e6c792062652063616c6c6564206279207468652076616c696461746f72736574547265652066756e6374696f6e2063616e206f6e6c792062652063616c6c656420627920746865206f776e6572627579547265652066756e6374696f6e2063616e206f6e6c792062652063616c6c6564207768656e20696e20416374697665207374617465627579547265652066756e6374696f6e2063616e6e6f742062652063616c6c656420627920746865206f776e6572206d61726b496e76616c6964617465642066756e6374696f6e2063616e206f6e6c792062652063616c6c6564206279207468652076616c696461746f72a265627a7a72315820910667cd888c01c4d8e6cd62ec3361343c366367d59c380c6d7a054e2c8b42da64736f6c63430005100032",
  "source": "pragma solidity ^0.5.0;\n\n\ncontract GreenContract {\n\n     enum StateType {\n        Active,\n        PendingValidation,\n        Validated,\n        ContractCancelled,\n        InstallmentPaid,\n        ContractEnded\n    }\n\n    event ContractCreated(string applicationName, string workflowName, address originatingAddress);\n    event ContractUpdated(string applicationName, string workflowName, string action, address originatingAddress);\n\n    string internal appName = \"CryptoForests\";\n    string internal workflowName = \"GreenContract\";\n\n    address public owner;\n    string public data;\n    string public newData;\n    uint256 public listPrice;\n    uint256 public installments;\n    StateType public State;\n\n    address public buyer;\n    address public validator;\n\n    constructor () public {\n        owner = msg.sender;\n    }\n\n    function setTree(string memory inputdata, uint256 price, uint256 inputInstallments) public {\n        \n        if (owner != msg.sender) {\n            revert(\"setTree function can only be called by the owner\");\n        }\n\n        if (State != StateType.Active) {\n            revert(\"setTree function can be called only in active state\");\n        }\n        listPrice = price;\n        // XXX Need tree object instead of data\n        data = inputdata;\n        State = StateType.Active;\n        installments = inputInstallments;\n\n        emit ContractCreated(appName, workflowName, msg.sender);\n    }\n\n    function getPrice() public view returns (uint256) {\n        return listPrice;\n    }\n\n    function getInstallments() public view returns (uint256) {\n        return installments;\n    }\n\n    function getOwner() public view returns (address) {\n        return owner;\n    }\n\n    function getState() public view returns (StateType) {\n        return State;\n    }\n\n    function buyTree(address inputvalidator) external {\n        if (inputvalidator == address(0x000)) {\n            revert(\"buyTree function need to have a validator address\");\n        }\n\n        if (State != StateType.Active) {\n            revert(\"buyTree function can only be called when in Active state\");\n        }\n\n        if (owner == msg.sender) {\n            revert(\"buyTree function cannot be called by the owner \");\n        }\n\n        buyer = msg.sender;\n        validator = inputvalidator;\n        State = StateType.PendingValidation;\n\n        emit ContractUpdated(appName, workflowName, \"buyTree\", msg.sender);\n    }\n\n    function submitProofOfWork(string memory proofdata) public {\n\n        if (owner != msg.sender) {\n            revert(\"Only owner can submit proof of work\");\n        }\n\n        if (State != StateType.InstallmentPaid) {\n            revert(\"Proof of work can only be submitted after an installment is paid\");\n        }\n\n        newData = proofdata;\n        State = StateType.PendingValidation;\n\n        emit ContractUpdated(appName, workflowName, \"submitProofOfWork\", msg.sender);\n    }\n\n    function markValidated() external {\n        if (validator != msg.sender) {\n            revert(\"markValidated function can only be called by the validator\");\n        }\n\n        if (State == StateType.PendingValidation) {\n            State = StateType.Validated;\n        } else {\n            revert(\"markValidated function can only be called if PendingValidation\");\n        }\n\n        makePayment();\n\n        emit ContractUpdated(appName, workflowName, \"markValidated\", msg.sender);\n    }\n\n    function makePayment() internal {\n \n         uint256 payment = listPrice / installments;\n        // XXX Make payment\n        \n        installments--;\n        listPrice = listPrice - payment;\n\n        if (installments == 0x00) {\n            // No more pending payments\n            State = StateType.ContractEnded;\n        } else {\n            State = StateType.InstallmentPaid;\n        }\n    }\n\n    function markInvalidated() external {\n        if (validator != msg.sender) {\n            revert(\"markInvalidated function can only be called by the validator\");\n        }\n\n        if (State == StateType.PendingValidation) {\n            State = StateType.ContractCancelled;\n        } else {\n            revert(\"markInvalidated function can only be called if pendingValidation\");\n        }\n\n        emit ContractUpdated(appName, workflowName, \"markInvalidated\", msg.sender);\n    }\n\n}",
  "sourcePath": "/home/leledumbodev/devpost/CryptoForests/contracts/GreenContract.sol",
  "compiler": {
    "name": "solc",
    "version": "0.5.16+commit.9c3226ce.Emscripten.clang"
  },
  "schemaVersion": "3.3.0",
  "updatedAt": "2020-11-02T01:04:08.811Z",
  "networkType": "ethereum",
  "devdoc": {
    "methods": {}
  },
  "userdoc": {
    "methods": {}
  }
}