{
  "contractName": "TheNFT",
  "abi": [
    {
      "inputs": [],
      "payable": false,
      "stateMutability": "nonpayable",
      "type": "constructor"
    },
    {
      "anonymous": false,
      "inputs": [
        {
          "indexed": true,
          "internalType": "address",
          "name": "owner",
          "type": "address"
        },
        {
          "indexed": true,
          "internalType": "address",
          "name": "approved",
          "type": "address"
        },
        {
          "indexed": true,
          "internalType": "uint256",
          "name": "tokenId",
          "type": "uint256"
        }
      ],
      "name": "Approval",
      "type": "event"
    },
    {
      "anonymous": false,
      "inputs": [
        {
          "indexed": true,
          "internalType": "address",
          "name": "owner",
          "type": "address"
        },
        {
          "indexed": true,
          "internalType": "address",
          "name": "operator",
          "type": "address"
        },
        {
          "indexed": false,
          "internalType": "bool",
          "name": "approved",
          "type": "bool"
        }
      ],
      "name": "ApprovalForAll",
      "type": "event"
    },
    {
      "anonymous": false,
      "inputs": [
        {
          "indexed": false,
          "internalType": "string",
          "name": "applicationName",
          "type": "string"
        },
        {
          "indexed": false,
          "internalType": "string",
          "name": "workflowName",
          "type": "string"
        },
        {
          "indexed": false,
          "internalType": "address",
          "name": "originatingAddress",
          "type": "address"
        }
      ],
      "name": "ContractCreated",
      "type": "event"
    },
    {
      "anonymous": false,
      "inputs": [
        {
          "indexed": false,
          "internalType": "string",
          "name": "applicationName",
          "type": "string"
        },
        {
          "indexed": false,
          "internalType": "string",
          "name": "workflowName",
          "type": "string"
        },
        {
          "indexed": false,
          "internalType": "string",
          "name": "action",
          "type": "string"
        },
        {
          "indexed": false,
          "internalType": "address",
          "name": "originatingAddress",
          "type": "address"
        }
      ],
      "name": "ContractUpdated",
      "type": "event"
    },
    {
      "anonymous": false,
      "inputs": [
        {
          "indexed": true,
          "internalType": "address",
          "name": "previousOwner",
          "type": "address"
        },
        {
          "indexed": true,
          "internalType": "address",
          "name": "newOwner",
          "type": "address"
        }
      ],
      "name": "OwnershipTransferred",
      "type": "event"
    },
    {
      "anonymous": false,
      "inputs": [
        {
          "indexed": true,
          "internalType": "address",
          "name": "from",
          "type": "address"
        },
        {
          "indexed": true,
          "internalType": "address",
          "name": "to",
          "type": "address"
        },
        {
          "indexed": true,
          "internalType": "uint256",
          "name": "tokenId",
          "type": "uint256"
        }
      ],
      "name": "Transfer",
      "type": "event"
    },
    {
      "constant": false,
      "inputs": [
        {
          "internalType": "address",
          "name": "to",
          "type": "address"
        },
        {
          "internalType": "uint256",
          "name": "tokenId",
          "type": "uint256"
        }
      ],
      "name": "approve",
      "outputs": [],
      "payable": false,
      "stateMutability": "nonpayable",
      "type": "function"
    },
    {
      "constant": true,
      "inputs": [
        {
          "internalType": "address",
          "name": "owner",
          "type": "address"
        }
      ],
      "name": "balanceOf",
      "outputs": [
        {
          "internalType": "uint256",
          "name": "",
          "type": "uint256"
        }
      ],
      "payable": false,
      "stateMutability": "view",
      "type": "function"
    },
    {
      "constant": true,
      "inputs": [],
      "name": "baseURI",
      "outputs": [
        {
          "internalType": "string",
          "name": "",
          "type": "string"
        }
      ],
      "payable": false,
      "stateMutability": "view",
      "type": "function"
    },
    {
      "constant": true,
      "inputs": [
        {
          "internalType": "uint256",
          "name": "tokenId",
          "type": "uint256"
        }
      ],
      "name": "getApproved",
      "outputs": [
        {
          "internalType": "address",
          "name": "",
          "type": "address"
        }
      ],
      "payable": false,
      "stateMutability": "view",
      "type": "function"
    },
    {
      "constant": true,
      "inputs": [
        {
          "internalType": "uint256",
          "name": "",
          "type": "uint256"
        }
      ],
      "name": "greenContractList",
      "outputs": [
        {
          "internalType": "uint256",
          "name": "id",
          "type": "uint256"
        },
        {
          "internalType": "address payable",
          "name": "vendor",
          "type": "address"
        },
        {
          "internalType": "string",
          "name": "data",
          "type": "string"
        },
        {
          "internalType": "uint256",
          "name": "listPrice",
          "type": "uint256"
        },
        {
          "internalType": "uint8",
          "name": "installments",
          "type": "uint8"
        },
        {
          "internalType": "enum TheNFT.StateType",
          "name": "State",
          "type": "uint8"
        }
      ],
      "payable": false,
      "stateMutability": "view",
      "type": "function"
    },
    {
      "constant": true,
      "inputs": [
        {
          "internalType": "uint256",
          "name": "",
          "type": "uint256"
        },
        {
          "internalType": "uint256",
          "name": "",
          "type": "uint256"
        }
      ],
      "name": "greenContractProofs",
      "outputs": [
        {
          "internalType": "uint256",
          "name": "greenContractId",
          "type": "uint256"
        },
        {
          "internalType": "uint256",
          "name": "uploadTime",
          "type": "uint256"
        },
        {
          "internalType": "string",
          "name": "newData",
          "type": "string"
        },
        {
          "internalType": "bool",
          "name": "validated",
          "type": "bool"
        }
      ],
      "payable": false,
      "stateMutability": "view",
      "type": "function"
    },
    {
      "constant": true,
      "inputs": [
        {
          "internalType": "address",
          "name": "owner",
          "type": "address"
        },
        {
          "internalType": "address",
          "name": "operator",
          "type": "address"
        }
      ],
      "name": "isApprovedForAll",
      "outputs": [
        {
          "internalType": "bool",
          "name": "",
          "type": "bool"
        }
      ],
      "payable": false,
      "stateMutability": "view",
      "type": "function"
    },
    {
      "constant": true,
      "inputs": [],
      "name": "isOwner",
      "outputs": [
        {
          "internalType": "bool",
          "name": "",
          "type": "bool"
        }
      ],
      "payable": false,
      "stateMutability": "view",
      "type": "function"
    },
    {
      "constant": true,
      "inputs": [],
      "name": "name",
      "outputs": [
        {
          "internalType": "string",
          "name": "",
          "type": "string"
        }
      ],
      "payable": false,
      "stateMutability": "view",
      "type": "function"
    },
    {
      "constant": true,
      "inputs": [],
      "name": "owner",
      "outputs": [
        {
          "internalType": "address",
          "name": "",
          "type": "address"
        }
      ],
      "payable": false,
      "stateMutability": "view",
      "type": "function"
    },
    {
      "constant": true,
      "inputs": [
        {
          "internalType": "uint256",
          "name": "tokenId",
          "type": "uint256"
        }
      ],
      "name": "ownerOf",
      "outputs": [
        {
          "internalType": "address",
          "name": "",
          "type": "address"
        }
      ],
      "payable": false,
      "stateMutability": "view",
      "type": "function"
    },
    {
      "constant": false,
      "inputs": [],
      "name": "renounceOwnership",
      "outputs": [],
      "payable": false,
      "stateMutability": "nonpayable",
      "type": "function"
    },
    {
      "constant": false,
      "inputs": [
        {
          "internalType": "address",
          "name": "from",
          "type": "address"
        },
        {
          "internalType": "address",
          "name": "to",
          "type": "address"
        },
        {
          "internalType": "uint256",
          "name": "tokenId",
          "type": "uint256"
        }
      ],
      "name": "safeTransferFrom",
      "outputs": [],
      "payable": false,
      "stateMutability": "nonpayable",
      "type": "function"
    },
    {
      "constant": false,
      "inputs": [
        {
          "internalType": "address",
          "name": "from",
          "type": "address"
        },
        {
          "internalType": "address",
          "name": "to",
          "type": "address"
        },
        {
          "internalType": "uint256",
          "name": "tokenId",
          "type": "uint256"
        },
        {
          "internalType": "bytes",
          "name": "_data",
          "type": "bytes"
        }
      ],
      "name": "safeTransferFrom",
      "outputs": [],
      "payable": false,
      "stateMutability": "nonpayable",
      "type": "function"
    },
    {
      "constant": false,
      "inputs": [
        {
          "internalType": "address",
          "name": "to",
          "type": "address"
        },
        {
          "internalType": "bool",
          "name": "approved",
          "type": "bool"
        }
      ],
      "name": "setApprovalForAll",
      "outputs": [],
      "payable": false,
      "stateMutability": "nonpayable",
      "type": "function"
    },
    {
      "constant": true,
      "inputs": [
        {
          "internalType": "bytes4",
          "name": "interfaceId",
          "type": "bytes4"
        }
      ],
      "name": "supportsInterface",
      "outputs": [
        {
          "internalType": "bool",
          "name": "",
          "type": "bool"
        }
      ],
      "payable": false,
      "stateMutability": "view",
      "type": "function"
    },
    {
      "constant": true,
      "inputs": [],
      "name": "symbol",
      "outputs": [
        {
          "internalType": "string",
          "name": "",
          "type": "string"
        }
      ],
      "payable": false,
      "stateMutability": "view",
      "type": "function"
    },
    {
      "constant": true,
      "inputs": [],
      "name": "tokenAddress",
      "outputs": [
        {
          "internalType": "address payable",
          "name": "",
          "type": "address"
        }
      ],
      "payable": false,
      "stateMutability": "view",
      "type": "function"
    },
    {
      "constant": true,
      "inputs": [
        {
          "internalType": "uint256",
          "name": "index",
          "type": "uint256"
        }
      ],
      "name": "tokenByIndex",
      "outputs": [
        {
          "internalType": "uint256",
          "name": "",
          "type": "uint256"
        }
      ],
      "payable": false,
      "stateMutability": "view",
      "type": "function"
    },
    {
      "constant": true,
      "inputs": [
        {
          "internalType": "address",
          "name": "owner",
          "type": "address"
        },
        {
          "internalType": "uint256",
          "name": "index",
          "type": "uint256"
        }
      ],
      "name": "tokenOfOwnerByIndex",
      "outputs": [
        {
          "internalType": "uint256",
          "name": "",
          "type": "uint256"
        }
      ],
      "payable": false,
      "stateMutability": "view",
      "type": "function"
    },
    {
      "constant": true,
      "inputs": [
        {
          "internalType": "uint256",
          "name": "tokenId",
          "type": "uint256"
        }
      ],
      "name": "tokenURI",
      "outputs": [
        {
          "internalType": "string",
          "name": "",
          "type": "string"
        }
      ],
      "payable": false,
      "stateMutability": "view",
      "type": "function"
    },
    {
      "constant": true,
      "inputs": [],
      "name": "totalSupply",
      "outputs": [
        {
          "internalType": "uint256",
          "name": "",
          "type": "uint256"
        }
      ],
      "payable": false,
      "stateMutability": "view",
      "type": "function"
    },
    {
      "constant": false,
      "inputs": [
        {
          "internalType": "address",
          "name": "from",
          "type": "address"
        },
        {
          "internalType": "address",
          "name": "to",
          "type": "address"
        },
        {
          "internalType": "uint256",
          "name": "tokenId",
          "type": "uint256"
        }
      ],
      "name": "transferFrom",
      "outputs": [],
      "payable": false,
      "stateMutability": "nonpayable",
      "type": "function"
    },
    {
      "constant": false,
      "inputs": [
        {
          "internalType": "address",
          "name": "newOwner",
          "type": "address"
        }
      ],
      "name": "transferOwnership",
      "outputs": [],
      "payable": false,
      "stateMutability": "nonpayable",
      "type": "function"
    },
    {
      "constant": false,
      "inputs": [
        {
          "internalType": "address payable",
          "name": "addr",
          "type": "address"
        }
      ],
      "name": "connectToToken",
      "outputs": [],
      "payable": false,
      "stateMutability": "nonpayable",
      "type": "function"
    },
    {
      "constant": false,
      "inputs": [
        {
          "internalType": "address payable",
          "name": "addr",
          "type": "address"
        }
      ],
      "name": "setValidator",
      "outputs": [],
      "payable": false,
      "stateMutability": "nonpayable",
      "type": "function"
    },
    {
      "constant": false,
      "inputs": [
        {
          "internalType": "string",
          "name": "inputdata",
          "type": "string"
        },
        {
          "internalType": "uint256",
          "name": "price",
          "type": "uint256"
        },
        {
          "internalType": "uint8",
          "name": "inputInstallments",
          "type": "uint8"
        }
      ],
      "name": "setTree",
      "outputs": [],
      "payable": false,
      "stateMutability": "nonpayable",
      "type": "function"
    },
    {
      "constant": true,
      "inputs": [],
      "name": "getTreeCount",
      "outputs": [
        {
          "internalType": "uint256",
          "name": "",
          "type": "uint256"
        }
      ],
      "payable": false,
      "stateMutability": "view",
      "type": "function"
    },
    {
      "constant": true,
      "inputs": [
        {
          "internalType": "uint256",
          "name": "greenContractIndex",
          "type": "uint256"
        }
      ],
      "name": "getTreeData",
      "outputs": [
        {
          "internalType": "uint256",
          "name": "",
          "type": "uint256"
        },
        {
          "internalType": "address",
          "name": "",
          "type": "address"
        },
        {
          "internalType": "string",
          "name": "",
          "type": "string"
        },
        {
          "internalType": "uint256",
          "name": "",
          "type": "uint256"
        },
        {
          "internalType": "uint8",
          "name": "",
          "type": "uint8"
        },
        {
          "internalType": "enum TheNFT.StateType",
          "name": "",
          "type": "uint8"
        }
      ],
      "payable": false,
      "stateMutability": "view",
      "type": "function"
    },
    {
      "constant": false,
      "inputs": [
        {
          "internalType": "uint256",
          "name": "greenContractIndex",
          "type": "uint256"
        }
      ],
      "name": "buyTree",
      "outputs": [],
      "payable": true,
      "stateMutability": "payable",
      "type": "function"
    },
    {
      "constant": false,
      "inputs": [
        {
          "internalType": "uint256",
          "name": "greenContractIndex",
          "type": "uint256"
        },
        {
          "internalType": "string",
          "name": "proofdata",
          "type": "string"
        }
      ],
      "name": "submitProofOfWork",
      "outputs": [],
      "payable": false,
      "stateMutability": "nonpayable",
      "type": "function"
    },
    {
      "constant": true,
      "inputs": [
        {
          "internalType": "uint256",
          "name": "greenContractIndex",
          "type": "uint256"
        }
      ],
      "name": "getProofOfWorkCount",
      "outputs": [
        {
          "internalType": "uint256",
          "name": "",
          "type": "uint256"
        }
      ],
      "payable": false,
      "stateMutability": "view",
      "type": "function"
    },
    {
      "constant": true,
      "inputs": [
        {
          "internalType": "uint256",
          "name": "greenContractIndex",
          "type": "uint256"
        },
        {
          "internalType": "uint256",
          "name": "proofIndex",
          "type": "uint256"
        }
      ],
      "name": "getProofOfWorkData",
      "outputs": [
        {
          "internalType": "uint256",
          "name": "",
          "type": "uint256"
        },
        {
          "internalType": "uint256",
          "name": "",
          "type": "uint256"
        },
        {
          "internalType": "string",
          "name": "",
          "type": "string"
        },
        {
          "internalType": "bool",
          "name": "",
          "type": "bool"
        }
      ],
      "payable": false,
      "stateMutability": "view",
      "type": "function"
    },
    {
      "constant": false,
      "inputs": [
        {
          "internalType": "uint256",
          "name": "greenContractIndex",
          "type": "uint256"
        },
        {
          "internalType": "uint256",
          "name": "proofIndex",
          "type": "uint256"
        }
      ],
      "name": "validateProofOfWork",
      "outputs": [],
      "payable": true,
      "stateMutability": "payable",
      "type": "function"
    },
    {
      "constant": false,
      "inputs": [
        {
          "internalType": "uint256",
          "name": "greenContractIndex",
          "type": "uint256"
        },
        {
          "internalType": "uint256",
          "name": "proofIndex",
          "type": "uint256"
        }
      ],
      "name": "invalidateProofOfWork",
      "outputs": [],
      "payable": true,
      "stateMutability": "payable",
      "type": "function"
    }
  ],
  "bytecode": "0x60806040526040518060400160405280600d81526020017f43727970746f466f726573747300000000000000000000000000000000000000815250600f908051906020019062000051929190620003ba565b506040518060400160405280600d81526020017f477265656e436f6e747261637400000000000000000000000000000000000000815250601090805190602001906200009f929190620003ba565b50348015620000ad57600080fd5b506040518060400160405280600e81526020017f43727970746f20466f72657374730000000000000000000000000000000000008152506040518060400160405280600481526020017f5452454500000000000000000000000000000000000000000000000000000000815250818160006200012e620002a960201b60201c565b9050806000806101000a81548173ffffffffffffffffffffffffffffffffffffffff021916908373ffffffffffffffffffffffffffffffffffffffff1602179055508073ffffffffffffffffffffffffffffffffffffffff16600073ffffffffffffffffffffffffffffffffffffffff167f8be0079c531659141344cd1fd0a4f28419497f9722a3daafe3b4186f6b6457e060405160405180910390a350620001e46301ffc9a760e01b620002b160201b60201c565b620001fc6380ac58cd60e01b620002b160201b60201c565b6200021463780e9d6360e01b620002b160201b60201c565b81600a90805190602001906200022c929190620003ba565b5080600b908051906020019062000245929190620003ba565b506200025e635b5e139f60e01b620002b160201b60201c565b5050505033601360006101000a81548173ffffffffffffffffffffffffffffffffffffffff021916908373ffffffffffffffffffffffffffffffffffffffff16021790555062000469565b600033905090565b63ffffffff60e01b817bffffffffffffffffffffffffffffffffffffffffffffffffffffffff191614156200034e576040517f08c379a000000000000000000000000000000000000000000000000000000000815260040180806020018281038252601c8152602001807f4552433136353a20696e76616c696420696e746572666163652069640000000081525060200191505060405180910390fd5b6001806000837bffffffffffffffffffffffffffffffffffffffffffffffffffffffff19167bffffffffffffffffffffffffffffffffffffffffffffffffffffffff1916815260200190815260200160002060006101000a81548160ff02191690831515021790555050565b828054600181600116156101000203166002900490600052602060002090601f016020900481019282601f10620003fd57805160ff19168380011785556200042e565b828001600101855582156200042e579182015b828111156200042d57825182559160200191906001019062000410565b5b5090506200043d919062000441565b5090565b6200046691905b808211156200046257600081600090555060010162000448565b5090565b90565b615b4580620004796000396000f3fe6080604052600436106102045760003560e01c80637e44b3ac11610118578063b6496930116100a0578063c87b56dd1161006f578063c87b56dd146110ed578063ca24138f146111a1578063d61dcc93146111cf578063e985e9c51461121e578063f2fde38b146112a757610204565b8063b649693014610ddc578063b88d4fde14610eb3578063b9df32e114610fc5578063bd16fafa1461101657610204565b806395d89b41116100e757806395d89b4114610b815780639ae5616b14610c115780639d76ea5814610c49578063a22cb46514610ca0578063ad53e7b414610cfd57610204565b80637e44b3ac146109ac5780638d380a7314610ac35780638da5cb5b14610afb5780638f32d59b14610b5257610204565b80632f745c591161019b5780636352211e1161016a5780636352211e1461070e5780636c0360eb1461078957806370a082311461081957806370bb04671461087e578063715018a61461099557610204565b80632f745c59146105aa57806342842e0e146106195780634f6ccce7146106945780635028f70b146106e357610204565b8063125eec3e116101d7578063125eec3e146103e15780631327d3d8146104b357806318160ddd1461050457806323b872dd1461052f57610204565b806301ffc9a71461020957806306fdde031461027b578063081812fc1461030b578063095ea7b314610386575b600080fd5b34801561021557600080fd5b506102616004803603602081101561022c57600080fd5b8101908080357bffffffffffffffffffffffffffffffffffffffffffffffffffffffff191690602001909291905050506112f8565b604051808215151515815260200191505060405180910390f35b34801561028757600080fd5b50610290611360565b6040518080602001828103825283818151815260200191508051906020019080838360005b838110156102d05780820151818401526020810190506102b5565b50505050905090810190601f1680156102fd5780820380516001836020036101000a031916815260200191505b509250505060405180910390f35b34801561031757600080fd5b506103446004803603602081101561032e57600080fd5b8101908080359060200190929190505050611402565b604051808273ffffffffffffffffffffffffffffffffffffffff1673ffffffffffffffffffffffffffffffffffffffff16815260200191505060405180910390f35b34801561039257600080fd5b506103df600480360360408110156103a957600080fd5b81019080803573ffffffffffffffffffffffffffffffffffffffff1690602001909291908035906020019092919050505061149d565b005b3480156103ed57600080fd5b506104b16004803603604081101561040457600080fd5b81019080803590602001909291908035906020019064010000000081111561042b57600080fd5b82018360208201111561043d57600080fd5b8035906020019184600183028401116401000000008311171561045f57600080fd5b91908080601f016020809104026020016040519081016040528093929190818152602001838380828437600081840152601f19601f820116905080830192505050505050509192919290505050611684565b005b3480156104bf57600080fd5b50610502600480360360208110156104d657600080fd5b81019080803573ffffffffffffffffffffffffffffffffffffffff169060200190929190505050611977565b005b34801561051057600080fd5b50610519611a35565b6040518082815260200191505060405180910390f35b34801561053b57600080fd5b506105a86004803603606081101561055257600080fd5b81019080803573ffffffffffffffffffffffffffffffffffffffff169060200190929190803573ffffffffffffffffffffffffffffffffffffffff16906020019092919080359060200190929190505050611a42565b005b3480156105b657600080fd5b50610603600480360360408110156105cd57600080fd5b81019080803573ffffffffffffffffffffffffffffffffffffffff16906020019092919080359060200190929190505050611ab8565b6040518082815260200191505060405180910390f35b34801561062557600080fd5b506106926004803603606081101561063c57600080fd5b81019080803573ffffffffffffffffffffffffffffffffffffffff169060200190929190803573ffffffffffffffffffffffffffffffffffffffff16906020019092919080359060200190929190505050611b77565b005b3480156106a057600080fd5b506106cd600480360360208110156106b757600080fd5b8101908080359060200190929190505050611b97565b6040518082815260200191505060405180910390f35b3480156106ef57600080fd5b506106f8611c17565b6040518082815260200191505060405180910390f35b34801561071a57600080fd5b506107476004803603602081101561073157600080fd5b8101908080359060200190929190505050611c24565b604051808273ffffffffffffffffffffffffffffffffffffffff1673ffffffffffffffffffffffffffffffffffffffff16815260200191505060405180910390f35b34801561079557600080fd5b5061079e611cec565b6040518080602001828103825283818151815260200191508051906020019080838360005b838110156107de5780820151818401526020810190506107c3565b50505050905090810190601f16801561080b5780820380516001836020036101000a031916815260200191505b509250505060405180910390f35b34801561082557600080fd5b506108686004803603602081101561083c57600080fd5b81019080803573ffffffffffffffffffffffffffffffffffffffff169060200190929190505050611d8e565b6040518082815260200191505060405180910390f35b34801561088a57600080fd5b506108b7600480360360208110156108a157600080fd5b8101908080359060200190929190505050611e63565b604051808781526020018673ffffffffffffffffffffffffffffffffffffffff1673ffffffffffffffffffffffffffffffffffffffff168152602001806020018581526020018460ff1660ff16815260200183600481111561091557fe5b60ff168152602001828103825286818151815260200191508051906020019080838360005b8381101561095557808201518184015260208101905061093a565b50505050905090810190601f1680156109825780820380516001836020036101000a031916815260200191505b5097505050505050505060405180910390f35b3480156109a157600080fd5b506109aa611f7e565b005b3480156109b857600080fd5b506109e5600480360360208110156109cf57600080fd5b81019080803590602001909291905050506120b7565b604051808781526020018673ffffffffffffffffffffffffffffffffffffffff1673ffffffffffffffffffffffffffffffffffffffff168152602001806020018581526020018460ff1660ff168152602001836004811115610a4357fe5b60ff168152602001828103825286818151815260200191508051906020019080838360005b83811015610a83578082015181840152602081019050610a68565b50505050905090810190601f168015610ab05780820380516001836020036101000a031916815260200191505b5097505050505050505060405180910390f35b610af960048036036040811015610ad957600080fd5b810190808035906020019092919080359060200190929190505050612307565b005b348015610b0757600080fd5b50610b1061293f565b604051808273ffffffffffffffffffffffffffffffffffffffff1673ffffffffffffffffffffffffffffffffffffffff16815260200191505060405180910390f35b348015610b5e57600080fd5b50610b67612968565b604051808215151515815260200191505060405180910390f35b348015610b8d57600080fd5b50610b966129c6565b6040518080602001828103825283818151815260200191508051906020019080838360005b83811015610bd6578082015181840152602081019050610bbb565b50505050905090810190601f168015610c035780820380516001836020036101000a031916815260200191505b509250505060405180910390f35b610c4760048036036040811015610c2757600080fd5b810190808035906020019092919080359060200190929190505050612a68565b005b348015610c5557600080fd5b50610c5e61318b565b604051808273ffffffffffffffffffffffffffffffffffffffff1673ffffffffffffffffffffffffffffffffffffffff16815260200191505060405180910390f35b348015610cac57600080fd5b50610cfb60048036036040811015610cc357600080fd5b81019080803573ffffffffffffffffffffffffffffffffffffffff1690602001909291908035151590602001909291905050506131b1565b005b348015610d0957600080fd5b50610dda60048036036060811015610d2057600080fd5b8101908080359060200190640100000000811115610d3d57600080fd5b820183602082011115610d4f57600080fd5b80359060200191846001830284011164010000000083111715610d7157600080fd5b91908080601f016020809104026020016040519081016040528093929190818152602001838380828437600081840152601f19601f82011690508083019250505050505050919291929080359060200190929190803560ff169060200190929190505050613369565b005b348015610de857600080fd5b50610e1f60048036036040811015610dff57600080fd5b810190808035906020019092919080359060200190929190505050613636565b604051808581526020018481526020018060200183151515158152602001828103825284818151815260200191508051906020019080838360005b83811015610e75578082015181840152602081019050610e5a565b50505050905090810190601f168015610ea25780820380516001836020036101000a031916815260200191505b509550505050505060405180910390f35b348015610ebf57600080fd5b50610fc360048036036080811015610ed657600080fd5b81019080803573ffffffffffffffffffffffffffffffffffffffff169060200190929190803573ffffffffffffffffffffffffffffffffffffffff1690602001909291908035906020019092919080359060200190640100000000811115610f3d57600080fd5b820183602082011115610f4f57600080fd5b80359060200191846001830284011164010000000083111715610f7157600080fd5b91908080601f016020809104026020016040519081016040528093929190818152602001838380828437600081840152601f19601f820116905080830192505050505050509192919290505050613a25565b005b348015610fd157600080fd5b5061101460048036036020811015610fe857600080fd5b81019080803573ffffffffffffffffffffffffffffffffffffffff169060200190929190505050613a9d565b005b34801561102257600080fd5b506110596004803603604081101561103957600080fd5b810190808035906020019092919080359060200190929190505050613b5b565b604051808581526020018481526020018060200183151515158152602001828103825284818151815260200191508051906020019080838360005b838110156110af578082015181840152602081019050611094565b50505050905090810190601f1680156110dc5780820380516001836020036101000a031916815260200191505b509550505050505060405180910390f35b3480156110f957600080fd5b506111266004803603602081101561111057600080fd5b8101908080359060200190929190505050613c4a565b6040518080602001828103825283818151815260200191508051906020019080838360005b8381101561116657808201518184015260208101905061114b565b50505050905090810190601f1680156111935780820380516001836020036101000a031916815260200191505b509250505060405180910390f35b6111cd600480360360208110156111b757600080fd5b8101908080359060200190929190505050613e4c565b005b3480156111db57600080fd5b50611208600480360360208110156111f257600080fd5b8101908080359060200190929190505050614236565b6040518082815260200191505060405180910390f35b34801561122a57600080fd5b5061128d6004803603604081101561124157600080fd5b81019080803573ffffffffffffffffffffffffffffffffffffffff169060200190929190803573ffffffffffffffffffffffffffffffffffffffff169060200190929190505050614467565b604051808215151515815260200191505060405180910390f35b3480156112b357600080fd5b506112f6600480360360208110156112ca57600080fd5b81019080803573ffffffffffffffffffffffffffffffffffffffff1690602001909291905050506144fb565b005b600060016000837bffffffffffffffffffffffffffffffffffffffffffffffffffffffff19167bffffffffffffffffffffffffffffffffffffffffffffffffffffffff1916815260200190815260200160002060009054906101000a900460ff169050919050565b6060600a8054600181600116156101000203166002900480601f0160208091040260200160405190810160405280929190818152602001828054600181600116156101000203166002900480156113f85780601f106113cd576101008083540402835291602001916113f8565b820191906000526020600020905b8154815290600101906020018083116113db57829003601f168201915b5050505050905090565b600061140d82614581565b611462576040517f08c379a000000000000000000000000000000000000000000000000000000000815260040180806020018281038252602c815260200180615a0f602c913960400191505060405180910390fd5b6003600083815260200190815260200160002060009054906101000a900473ffffffffffffffffffffffffffffffffffffffff169050919050565b60006114a882611c24565b90508073ffffffffffffffffffffffffffffffffffffffff168373ffffffffffffffffffffffffffffffffffffffff16141561152f576040517f08c379a0000000000000000000000000000000000000000000000000000000008152600401808060200182810382526021815260200180615a936021913960400191505060405180910390fd5b8073ffffffffffffffffffffffffffffffffffffffff1661154e6145f3565b73ffffffffffffffffffffffffffffffffffffffff16148061157d575061157c816115776145f3565b614467565b5b6115d2576040517f08c379a00000000000000000000000000000000000000000000000000000000081526004018080602001828103825260388152602001806159636038913960400191505060405180910390fd5b826003600084815260200190815260200160002060006101000a81548173ffffffffffffffffffffffffffffffffffffffff021916908373ffffffffffffffffffffffffffffffffffffffff160217905550818373ffffffffffffffffffffffffffffffffffffffff168273ffffffffffffffffffffffffffffffffffffffff167f8c5be1e5ebec7d5bd14f71427d1e84f3dd0314c0f7b2291e5b200ac8c7c3b92560405160405180910390a4505050565b60008210158015611699575060118054905082105b61170b576040517f08c379a00000000000000000000000000000000000000000000000000000000081526004018080602001828103825260068152602001807f21696e646578000000000000000000000000000000000000000000000000000081525060200191505060405180910390fd5b61171361573a565b6011838154811061172057fe5b90600052602060002090600502016040518060c0016040529081600082015481526020016001820160009054906101000a900473ffffffffffffffffffffffffffffffffffffffff1673ffffffffffffffffffffffffffffffffffffffff1673ffffffffffffffffffffffffffffffffffffffff168152602001600282018054600181600116156101000203166002900480601f0160208091040260200160405190810160405280929190818152602001828054600181600116156101000203166002900480156118325780601f1061180757610100808354040283529160200191611832565b820191906000526020600020905b81548152906001019060200180831161181557829003601f168201915b50505050508152602001600382015481526020016004820160009054906101000a900460ff1660ff1660ff1681526020016004820160019054906101000a900460ff16600481111561188057fe5b600481111561188b57fe5b81525050905060018160a0019060048111156118a357fe5b908160048111156118b057fe5b81525050601260008260000151815260200190815260200160002060405180608001604052808360000151815260200142815260200184815260200160001515815250908060018154018082558091505090600182039060005260206000209060040201600090919290919091506000820151816000015560208201518160010155604082015181600201908051906020019061194e929190615794565b5060608201518160030160006101000a81548160ff021916908315150217905550505050505050565b61197f612968565b6119f1576040517f08c379a00000000000000000000000000000000000000000000000000000000081526004018080602001828103825260208152602001807f4f776e61626c653a2063616c6c6572206973206e6f7420746865206f776e657281525060200191505060405180910390fd5b80601360006101000a81548173ffffffffffffffffffffffffffffffffffffffff021916908373ffffffffffffffffffffffffffffffffffffffff16021790555050565b6000600880549050905090565b611a53611a4d6145f3565b826145fb565b611aa8576040517f08c379a0000000000000000000000000000000000000000000000000000000008152600401808060200182810382526031815260200180615ab46031913960400191505060405180910390fd5b611ab38383836146ef565b505050565b6000611ac383611d8e565b8210611b1a576040517f08c379a000000000000000000000000000000000000000000000000000000000815260040180806020018281038252602b815260200180615890602b913960400191505060405180910390fd5b600660008473ffffffffffffffffffffffffffffffffffffffff1673ffffffffffffffffffffffffffffffffffffffff1681526020019081526020016000208281548110611b6457fe5b9060005260206000200154905092915050565b611b9283838360405180602001604052806000815250613a25565b505050565b6000611ba1611a35565b8210611bf8576040517f08c379a000000000000000000000000000000000000000000000000000000000815260040180806020018281038252602c815260200180615ae5602c913960400191505060405180910390fd5b60088281548110611c0557fe5b90600052602060002001549050919050565b6000601180549050905090565b6000806002600084815260200190815260200160002060009054906101000a900473ffffffffffffffffffffffffffffffffffffffff169050600073ffffffffffffffffffffffffffffffffffffffff168173ffffffffffffffffffffffffffffffffffffffff161415611ce3576040517f08c379a00000000000000000000000000000000000000000000000000000000081526004018080602001828103825260298152602001806159c56029913960400191505060405180910390fd5b80915050919050565b6060600c8054600181600116156101000203166002900480601f016020809104026020016040519081016040528092919081815260200182805460018160011615610100020316600290048015611d845780601f10611d5957610100808354040283529160200191611d84565b820191906000526020600020905b815481529060010190602001808311611d6757829003601f168201915b5050505050905090565b60008073ffffffffffffffffffffffffffffffffffffffff168273ffffffffffffffffffffffffffffffffffffffff161415611e15576040517f08c379a000000000000000000000000000000000000000000000000000000000815260040180806020018281038252602a81526020018061599b602a913960400191505060405180910390fd5b611e5c600460008473ffffffffffffffffffffffffffffffffffffffff1673ffffffffffffffffffffffffffffffffffffffff168152602001908152602001600020614713565b9050919050565b60118181548110611e7057fe5b90600052602060002090600502016000915090508060000154908060010160009054906101000a900473ffffffffffffffffffffffffffffffffffffffff1690806002018054600181600116156101000203166002900480601f016020809104026020016040519081016040528092919081815260200182805460018160011615610100020316600290048015611f485780601f10611f1d57610100808354040283529160200191611f48565b820191906000526020600020905b815481529060010190602001808311611f2b57829003601f168201915b5050505050908060030154908060040160009054906101000a900460ff16908060040160019054906101000a900460ff16905086565b611f86612968565b611ff8576040517f08c379a00000000000000000000000000000000000000000000000000000000081526004018080602001828103825260208152602001807f4f776e61626c653a2063616c6c6572206973206e6f7420746865206f776e657281525060200191505060405180910390fd5b600073ffffffffffffffffffffffffffffffffffffffff166000809054906101000a900473ffffffffffffffffffffffffffffffffffffffff1673ffffffffffffffffffffffffffffffffffffffff167f8be0079c531659141344cd1fd0a4f28419497f9722a3daafe3b4186f6b6457e060405160405180910390a360008060006101000a81548173ffffffffffffffffffffffffffffffffffffffff021916908373ffffffffffffffffffffffffffffffffffffffff160217905550565b600080606060008060008087101580156120d5575060118054905087105b612147576040517f08c379a00000000000000000000000000000000000000000000000000000000081526004018080602001828103825260068152602001807f21696e646578000000000000000000000000000000000000000000000000000081525060200191505060405180910390fd5b61214f61573a565b6011888154811061215c57fe5b90600052602060002090600502016040518060c0016040529081600082015481526020016001820160009054906101000a900473ffffffffffffffffffffffffffffffffffffffff1673ffffffffffffffffffffffffffffffffffffffff1673ffffffffffffffffffffffffffffffffffffffff168152602001600282018054600181600116156101000203166002900480601f01602080910402602001604051908101604052809291908181526020018280546001816001161561010002031660029004801561226e5780601f106122435761010080835404028352916020019161226e565b820191906000526020600020905b81548152906001019060200180831161225157829003601f168201915b50505050508152602001600382015481526020016004820160009054906101000a900460ff1660ff1660ff1681526020016004820160019054906101000a900460ff1660048111156122bc57fe5b60048111156122c757fe5b815250509050806000015181602001518260400151836060015184608001518560a001518494508393509650965096509650965096505091939550919395565b6000821015801561231c575060118054905082105b61238e576040517f08c379a00000000000000000000000000000000000000000000000000000000081526004018080602001828103825260068152602001807f21696e646578000000000000000000000000000000000000000000000000000081525060200191505060405180910390fd5b61239661573a565b601183815481106123a357fe5b90600052602060002090600502016040518060c0016040529081600082015481526020016001820160009054906101000a900473ffffffffffffffffffffffffffffffffffffffff1673ffffffffffffffffffffffffffffffffffffffff1673ffffffffffffffffffffffffffffffffffffffff168152602001600282018054600181600116156101000203166002900480601f0160208091040260200160405190810160405280929190818152602001828054600181600116156101000203166002900480156124b55780601f1061248a576101008083540402835291602001916124b5565b820191906000526020600020905b81548152906001019060200180831161249857829003601f168201915b50505050508152602001600382015481526020016004820160009054906101000a900460ff1660ff1660ff1681526020016004820160019054906101000a900460ff16600481111561250357fe5b600481111561250e57fe5b8152505090506000821015801561253e575060126000826000015181526020019081526020016000208054905082105b6125b0576040517f08c379a000000000000000000000000000000000000000000000000000000000815260040180806020018281038252600b8152602001807f2170726f6f66496e64657800000000000000000000000000000000000000000081525060200191505060405180910390fd5b6001601260008360000151815260200190815260200160002083815481106125d457fe5b906000526020600020906004020160030160006101000a81548160ff021916908315150217905550600081606001519050600061262e606461262060468561472190919063ffffffff16565b6147a790919063ffffffff16565b90506000612659606461264b600a8661472190919063ffffffff16565b6147a790919063ffffffff16565b90506000846020015190508073ffffffffffffffffffffffffffffffffffffffff166108fc849081150290604051600060405180830381858888f193505050501580156126aa573d6000803e3d6000fd5b50601360009054906101000a900473ffffffffffffffffffffffffffffffffffffffff1673ffffffffffffffffffffffffffffffffffffffff166108fc839081150290604051600060405180830381858888f19350505050158015612713573d6000803e3d6000fd5b5060028560a00190600481111561272657fe5b9081600481111561273357fe5b815250506001856080015103856080019060ff16908160ff16815250506000856080015160ff1614156127845760048560a00190600481111561277257fe5b9081600481111561277f57fe5b815250505b7fbc3f77ce3a281e615c85054a5814e59703e2ee0cf33782f46911e0888d4c394c600f601033604051808060200180602001806020018573ffffffffffffffffffffffffffffffffffffffff1673ffffffffffffffffffffffffffffffffffffffff16815260200184810384528781815460018160011615610100020316600290048152602001915080546001816001161561010002031660029004801561286d5780601f106128425761010080835404028352916020019161286d565b820191906000526020600020905b81548152906001019060200180831161285057829003601f168201915b50508481038352868181546001816001161561010002031660029004815260200191508054600181600116156101000203166002900480156128f05780601f106128c5576101008083540402835291602001916128f0565b820191906000526020600020905b8154815290600101906020018083116128d357829003601f168201915b5050848103825260138152602001807f76616c696461746550726f6f664f66576f726b00000000000000000000000000815250602001965050505050505060405180910390a150505050505050565b60008060009054906101000a900473ffffffffffffffffffffffffffffffffffffffff16905090565b60008060009054906101000a900473ffffffffffffffffffffffffffffffffffffffff1673ffffffffffffffffffffffffffffffffffffffff166129aa6145f3565b73ffffffffffffffffffffffffffffffffffffffff1614905090565b6060600b8054600181600116156101000203166002900480601f016020809104026020016040519081016040528092919081815260200182805460018160011615610100020316600290048015612a5e5780601f10612a3357610100808354040283529160200191612a5e565b820191906000526020600020905b815481529060010190602001808311612a4157829003601f168201915b5050505050905090565b60008210158015612a7d575060118054905082105b612aef576040517f08c379a00000000000000000000000000000000000000000000000000000000081526004018080602001828103825260068152602001807f21696e646578000000000000000000000000000000000000000000000000000081525060200191505060405180910390fd5b612af761573a565b60118381548110612b0457fe5b90600052602060002090600502016040518060c0016040529081600082015481526020016001820160009054906101000a900473ffffffffffffffffffffffffffffffffffffffff1673ffffffffffffffffffffffffffffffffffffffff1673ffffffffffffffffffffffffffffffffffffffff168152602001600282018054600181600116156101000203166002900480601f016020809104026020016040519081016040528092919081815260200182805460018160011615610100020316600290048015612c165780601f10612beb57610100808354040283529160200191612c16565b820191906000526020600020905b815481529060010190602001808311612bf957829003601f168201915b50505050508152602001600382015481526020016004820160009054906101000a900460ff1660ff1660ff1681526020016004820160019054906101000a900460ff166004811115612c6457fe5b6004811115612c6f57fe5b81525050905060008210158015612c9f575060126000826000015181526020019081526020016000208054905082105b612d11576040517f08c379a000000000000000000000000000000000000000000000000000000000815260040180806020018281038252600b8152602001807f2170726f6f66496e64657800000000000000000000000000000000000000000081525060200191505060405180910390fd5b612d19615814565b60126000836000015181526020019081526020016000208381548110612d3b57fe5b90600052602060002090600402016040518060800160405290816000820154815260200160018201548152602001600282018054600181600116156101000203166002900480601f016020809104026020016040519081016040528092919081815260200182805460018160011615610100020316600290048015612e015780601f10612dd657610100808354040283529160200191612e01565b820191906000526020600020905b815481529060010190602001808311612de457829003601f168201915b505050505081526020016003820160009054906101000a900460ff161515151581525050905060008160600190151590811515815250506000826060015190506000612e6a6064612e5c600a8561472190919063ffffffff16565b6147a790919063ffffffff16565b90506000612e88856080015160ff168461472190919063ffffffff16565b9050612eb16064612ea360508461472190919063ffffffff16565b6147a790919063ffffffff16565b9050612ec682826147f190919063ffffffff16565b9050601360009054906101000a900473ffffffffffffffffffffffffffffffffffffffff1673ffffffffffffffffffffffffffffffffffffffff166108fc839081150290604051600060405180830381858888f19350505050158015612f30573d6000803e3d6000fd5b50600e60009054906101000a900473ffffffffffffffffffffffffffffffffffffffff1673ffffffffffffffffffffffffffffffffffffffff166108fc829081150290604051600060405180830381858888f19350505050158015612f99573d6000803e3d6000fd5b5060038560a001906004811115612fac57fe5b90816004811115612fb957fe5b815250506000856080019060ff16908160ff16815250507fbc3f77ce3a281e615c85054a5814e59703e2ee0cf33782f46911e0888d4c394c600f601033604051808060200180602001806020018573ffffffffffffffffffffffffffffffffffffffff1673ffffffffffffffffffffffffffffffffffffffff1681526020018481038452878181546001816001161561010002031660029004815260200191508054600181600116156101000203166002900480156130b95780601f1061308e576101008083540402835291602001916130b9565b820191906000526020600020905b81548152906001019060200180831161309c57829003601f168201915b505084810383528681815460018160011615610100020316600290048152602001915080546001816001161561010002031660029004801561313c5780601f106131115761010080835404028352916020019161313c565b820191906000526020600020905b81548152906001019060200180831161311f57829003601f168201915b5050848103825260158152602001807f696e56616c696461746550726f6f664f66576f726b0000000000000000000000815250602001965050505050505060405180910390a150505050505050565b600e60009054906101000a900473ffffffffffffffffffffffffffffffffffffffff1681565b6131b96145f3565b73ffffffffffffffffffffffffffffffffffffffff168273ffffffffffffffffffffffffffffffffffffffff16141561325a576040517f08c379a00000000000000000000000000000000000000000000000000000000081526004018080602001828103825260198152602001807f4552433732313a20617070726f766520746f2063616c6c65720000000000000081525060200191505060405180910390fd5b80600560006132676145f3565b73ffffffffffffffffffffffffffffffffffffffff1673ffffffffffffffffffffffffffffffffffffffff16815260200190815260200160002060008473ffffffffffffffffffffffffffffffffffffffff1673ffffffffffffffffffffffffffffffffffffffff16815260200190815260200160002060006101000a81548160ff0219169083151502179055508173ffffffffffffffffffffffffffffffffffffffff166133146145f3565b73ffffffffffffffffffffffffffffffffffffffff167f17307eab39ab6107e8899845ad3d59bd9653f200f220920489ca2b5937696c3183604051808215151515815260200191505060405180910390a35050565b6000601180549050905060116040518060c001604052808381526020013373ffffffffffffffffffffffffffffffffffffffff1681526020018681526020018581526020018460ff168152602001600060048111156133c457fe5b815250908060018154018082558091505090600182039060005260206000209060050201600090919290919091506000820151816000015560208201518160010160006101000a81548173ffffffffffffffffffffffffffffffffffffffff021916908373ffffffffffffffffffffffffffffffffffffffff160217905550604082015181600201908051906020019061345f929190615794565b506060820151816003015560808201518160040160006101000a81548160ff021916908360ff16021790555060a08201518160040160016101000a81548160ff021916908360048111156134af57fe5b02179055505050507fc4e35ee48689d4f7c3d8ea58efd54155f1ea84ffee48edb29b2cdf3c95320ea8600f6010336040518080602001806020018473ffffffffffffffffffffffffffffffffffffffff1673ffffffffffffffffffffffffffffffffffffffff16815260200183810383528681815460018160011615610100020316600290048152602001915080546001816001161561010002031660029004801561359c5780601f106135715761010080835404028352916020019161359c565b820191906000526020600020905b81548152906001019060200180831161357f57829003601f168201915b505083810382528581815460018160011615610100020316600290048152602001915080546001816001161561010002031660029004801561361f5780601f106135f45761010080835404028352916020019161361f565b820191906000526020600020905b81548152906001019060200180831161360257829003601f168201915b50509550505050505060405180910390a150505050565b60008060606000808610158015613651575060118054905086105b6136c3576040517f08c379a00000000000000000000000000000000000000000000000000000000081526004018080602001828103825260068152602001807f21696e646578000000000000000000000000000000000000000000000000000081525060200191505060405180910390fd5b6136cb61573a565b601187815481106136d857fe5b90600052602060002090600502016040518060c0016040529081600082015481526020016001820160009054906101000a900473ffffffffffffffffffffffffffffffffffffffff1673ffffffffffffffffffffffffffffffffffffffff1673ffffffffffffffffffffffffffffffffffffffff168152602001600282018054600181600116156101000203166002900480601f0160208091040260200160405190810160405280929190818152602001828054600181600116156101000203166002900480156137ea5780601f106137bf576101008083540402835291602001916137ea565b820191906000526020600020905b8154815290600101906020018083116137cd57829003601f168201915b50505050508152602001600382015481526020016004820160009054906101000a900460ff1660ff1660ff1681526020016004820160019054906101000a900460ff16600481111561383857fe5b600481111561384357fe5b81525050905060008610158015613873575060126000826000015181526020019081526020016000208054905086105b6138e5576040517f08c379a000000000000000000000000000000000000000000000000000000000815260040180806020018281038252600b8152602001807f2170726f6f66496e64657800000000000000000000000000000000000000000081525060200191505060405180910390fd5b6138ed615814565b6012600083600001518152602001908152602001600020878154811061390f57fe5b90600052602060002090600402016040518060800160405290816000820154815260200160018201548152602001600282018054600181600116156101000203166002900480601f0160208091040260200160405190810160405280929190818152602001828054600181600116156101000203166002900480156139d55780601f106139aa576101008083540402835291602001916139d5565b820191906000526020600020905b8154815290600101906020018083116139b857829003601f168201915b505050505081526020016003820160009054906101000a900460ff161515151581525050905080600001518160200151826040015183606001518191509550955095509550505092959194509250565b613a36613a306145f3565b836145fb565b613a8b576040517f08c379a0000000000000000000000000000000000000000000000000000000008152600401808060200182810382526031815260200180615ab46031913960400191505060405180910390fd5b613a978484848461483b565b50505050565b613aa5612968565b613b17576040517f08c379a00000000000000000000000000000000000000000000000000000000081526004018080602001828103825260208152602001807f4f776e61626c653a2063616c6c6572206973206e6f7420746865206f776e657281525060200191505060405180910390fd5b80600e60006101000a81548173ffffffffffffffffffffffffffffffffffffffff021916908373ffffffffffffffffffffffffffffffffffffffff16021790555050565b60126020528160005260406000208181548110613b7457fe5b906000526020600020906004020160009150915050806000015490806001015490806002018054600181600116156101000203166002900480601f016020809104026020016040519081016040528092919081815260200182805460018160011615610100020316600290048015613c2d5780601f10613c0257610100808354040283529160200191613c2d565b820191906000526020600020905b815481529060010190602001808311613c1057829003601f168201915b5050505050908060030160009054906101000a900460ff16905084565b6060613c5582614581565b613caa576040517f08c379a000000000000000000000000000000000000000000000000000000000815260040180806020018281038252602f815260200180615a64602f913960400191505060405180910390fd5b6060600d60008481526020019081526020016000208054600181600116156101000203166002900480601f016020809104026020016040519081016040528092919081815260200182805460018160011615610100020316600290048015613d535780601f10613d2857610100808354040283529160200191613d53565b820191906000526020600020905b815481529060010190602001808311613d3657829003601f168201915b50505050509050600081511415613d7c5760405180602001604052806000815250915050613e47565b600c816040516020018083805460018160011615610100020316600290048015613ddd5780601f10613dbb576101008083540402835291820191613ddd565b820191906000526020600020905b815481529060010190602001808311613dc9575b505082805190602001908083835b60208310613e0e5780518252602082019150602081019050602083039250613deb565b6001836020036101000a038019825116818451168082178552505050505050905001925050506040516020818303038152906040529150505b919050565b60008110158015613e61575060118054905081105b613ed3576040517f08c379a00000000000000000000000000000000000000000000000000000000081526004018080602001828103825260068152602001807f21696e646578000000000000000000000000000000000000000000000000000081525060200191505060405180910390fd5b613edb61573a565b60118281548110613ee857fe5b90600052602060002090600502016040518060c0016040529081600082015481526020016001820160009054906101000a900473ffffffffffffffffffffffffffffffffffffffff1673ffffffffffffffffffffffffffffffffffffffff1673ffffffffffffffffffffffffffffffffffffffff168152602001600282018054600181600116156101000203166002900480601f016020809104026020016040519081016040528092919081815260200182805460018160011615610100020316600290048015613ffa5780601f10613fcf57610100808354040283529160200191613ffa565b820191906000526020600020905b815481529060010190602001808311613fdd57829003601f168201915b50505050508152602001600382015481526020016004820160009054906101000a900460ff1660ff1660ff1681526020016004820160019054906101000a900460ff16600481111561404857fe5b600481111561405357fe5b81525050905060008160600151905060008260800151905060006140838260ff168461472190919063ffffffff16565b9050803410156140fb576040517f08c379a00000000000000000000000000000000000000000000000000000000081526004018080602001828103825260128152602001807f4e6f7420656e6f756768207061796d656e74000000000000000000000000000081525060200191505060405180910390fd5b6000614124606461411660148561472190919063ffffffff16565b6147a790919063ffffffff16565b9050600e60009054906101000a900473ffffffffffffffffffffffffffffffffffffffff1673ffffffffffffffffffffffffffffffffffffffff16636a62784282336040518363ffffffff1660e01b8152600401808273ffffffffffffffffffffffffffffffffffffffff1673ffffffffffffffffffffffffffffffffffffffff1681526020019150506000604051808303818588803b1580156141c757600080fd5b505af11580156141db573d6000803e3d6000fd5b50505050506141ee3386600001516148ad565b6002601187815481106141fd57fe5b906000526020600020906005020160040160016101000a81548160ff0219169083600481111561422957fe5b0217905550505050505050565b600080821015801561424c575060118054905082105b6142be576040517f08c379a00000000000000000000000000000000000000000000000000000000081526004018080602001828103825260068152602001807f21696e646578000000000000000000000000000000000000000000000000000081525060200191505060405180910390fd5b6142c661573a565b601183815481106142d357fe5b90600052602060002090600502016040518060c0016040529081600082015481526020016001820160009054906101000a900473ffffffffffffffffffffffffffffffffffffffff1673ffffffffffffffffffffffffffffffffffffffff1673ffffffffffffffffffffffffffffffffffffffff168152602001600282018054600181600116156101000203166002900480601f0160208091040260200160405190810160405280929190818152602001828054600181600116156101000203166002900480156143e55780601f106143ba576101008083540402835291602001916143e5565b820191906000526020600020905b8154815290600101906020018083116143c857829003601f168201915b50505050508152602001600382015481526020016004820160009054906101000a900460ff1660ff1660ff1681526020016004820160019054906101000a900460ff16600481111561443357fe5b600481111561443e57fe5b815250509050601260008260000151815260200190815260200160002080549050915050919050565b6000600560008473ffffffffffffffffffffffffffffffffffffffff1673ffffffffffffffffffffffffffffffffffffffff16815260200190815260200160002060008373ffffffffffffffffffffffffffffffffffffffff1673ffffffffffffffffffffffffffffffffffffffff16815260200190815260200160002060009054906101000a900460ff16905092915050565b614503612968565b614575576040517f08c379a00000000000000000000000000000000000000000000000000000000081526004018080602001828103825260208152602001807f4f776e61626c653a2063616c6c6572206973206e6f7420746865206f776e657281525060200191505060405180910390fd5b61457e816148ce565b50565b6000806002600084815260200190815260200160002060009054906101000a900473ffffffffffffffffffffffffffffffffffffffff169050600073ffffffffffffffffffffffffffffffffffffffff168173ffffffffffffffffffffffffffffffffffffffff161415915050919050565b600033905090565b600061460682614581565b61465b576040517f08c379a000000000000000000000000000000000000000000000000000000000815260040180806020018281038252602c815260200180615937602c913960400191505060405180910390fd5b600061466683611c24565b90508073ffffffffffffffffffffffffffffffffffffffff168473ffffffffffffffffffffffffffffffffffffffff1614806146d557508373ffffffffffffffffffffffffffffffffffffffff166146bd84611402565b73ffffffffffffffffffffffffffffffffffffffff16145b806146e657506146e58185614467565b5b91505092915050565b6146fa838383614a12565b6147048382614c6d565b61470e8282614e0b565b505050565b600081600001549050919050565b60008083141561473457600090506147a1565b600082840290508284828161474557fe5b041461479c576040517f08c379a00000000000000000000000000000000000000000000000000000000081526004018080602001828103825260218152602001806159ee6021913960400191505060405180910390fd5b809150505b92915050565b60006147e983836040518060400160405280601a81526020017f536166654d6174683a206469766973696f6e206279207a65726f000000000000815250614ed2565b905092915050565b600061483383836040518060400160405280601e81526020017f536166654d6174683a207375627472616374696f6e206f766572666c6f770000815250614f98565b905092915050565b6148468484846146ef565b61485284848484615058565b6148a7576040517f08c379a00000000000000000000000000000000000000000000000000000000081526004018080602001828103825260328152602001806158bb6032913960400191505060405180910390fd5b50505050565b6148b78282615394565b6148c18282614e0b565b6148ca816155ac565b5050565b600073ffffffffffffffffffffffffffffffffffffffff168173ffffffffffffffffffffffffffffffffffffffff161415614954576040517f08c379a00000000000000000000000000000000000000000000000000000000081526004018080602001828103825260268152602001806158ed6026913960400191505060405180910390fd5b8073ffffffffffffffffffffffffffffffffffffffff166000809054906101000a900473ffffffffffffffffffffffffffffffffffffffff1673ffffffffffffffffffffffffffffffffffffffff167f8be0079c531659141344cd1fd0a4f28419497f9722a3daafe3b4186f6b6457e060405160405180910390a3806000806101000a81548173ffffffffffffffffffffffffffffffffffffffff021916908373ffffffffffffffffffffffffffffffffffffffff16021790555050565b8273ffffffffffffffffffffffffffffffffffffffff16614a3282611c24565b73ffffffffffffffffffffffffffffffffffffffff1614614a9e576040517f08c379a0000000000000000000000000000000000000000000000000000000008152600401808060200182810382526029815260200180615a3b6029913960400191505060405180910390fd5b600073ffffffffffffffffffffffffffffffffffffffff168273ffffffffffffffffffffffffffffffffffffffff161415614b24576040517f08c379a00000000000000000000000000000000000000000000000000000000081526004018080602001828103825260248152602001806159136024913960400191505060405180910390fd5b614b2d816155f8565b614b74600460008573ffffffffffffffffffffffffffffffffffffffff1673ffffffffffffffffffffffffffffffffffffffff1681526020019081526020016000206156b6565b614bbb600460008473ffffffffffffffffffffffffffffffffffffffff1673ffffffffffffffffffffffffffffffffffffffff1681526020019081526020016000206156d9565b816002600083815260200190815260200160002060006101000a81548173ffffffffffffffffffffffffffffffffffffffff021916908373ffffffffffffffffffffffffffffffffffffffff160217905550808273ffffffffffffffffffffffffffffffffffffffff168473ffffffffffffffffffffffffffffffffffffffff167fddf252ad1be2c89b69c2b068fc378daa952ba7f163c4a11628f55a4df523b3ef60405160405180910390a4505050565b6000614cc56001600660008673ffffffffffffffffffffffffffffffffffffffff1673ffffffffffffffffffffffffffffffffffffffff168152602001908152602001600020805490506147f190919063ffffffff16565b9050600060076000848152602001908152602001600020549050818114614db2576000600660008673ffffffffffffffffffffffffffffffffffffffff1673ffffffffffffffffffffffffffffffffffffffff1681526020019081526020016000208381548110614d3257fe5b9060005260206000200154905080600660008773ffffffffffffffffffffffffffffffffffffffff1673ffffffffffffffffffffffffffffffffffffffff1681526020019081526020016000208381548110614d8a57fe5b9060005260206000200181905550816007600083815260200190815260200160002081905550505b600660008573ffffffffffffffffffffffffffffffffffffffff1673ffffffffffffffffffffffffffffffffffffffff168152602001908152602001600020805480919060019003614e04919061583e565b5050505050565b600660008373ffffffffffffffffffffffffffffffffffffffff1673ffffffffffffffffffffffffffffffffffffffff168152602001908152602001600020805490506007600083815260200190815260200160002081905550600660008373ffffffffffffffffffffffffffffffffffffffff1673ffffffffffffffffffffffffffffffffffffffff1681526020019081526020016000208190806001815401808255809150509060018203906000526020600020016000909192909190915055505050565b60008083118290614f7e576040517f08c379a00000000000000000000000000000000000000000000000000000000081526004018080602001828103825283818151815260200191508051906020019080838360005b83811015614f43578082015181840152602081019050614f28565b50505050905090810190601f168015614f705780820380516001836020036101000a031916815260200191505b509250505060405180910390fd5b506000838581614f8a57fe5b049050809150509392505050565b6000838311158290615045576040517f08c379a00000000000000000000000000000000000000000000000000000000081526004018080602001828103825283818151815260200191508051906020019080838360005b8381101561500a578082015181840152602081019050614fef565b50505050905090810190601f1680156150375780820380516001836020036101000a031916815260200191505b509250505060405180910390fd5b5060008385039050809150509392505050565b60006150798473ffffffffffffffffffffffffffffffffffffffff166156ef565b615086576001905061538c565b600060608573ffffffffffffffffffffffffffffffffffffffff168673ffffffffffffffffffffffffffffffffffffffff1663150b7a02905060e01b6150ca6145f3565b898888604051602401808573ffffffffffffffffffffffffffffffffffffffff1673ffffffffffffffffffffffffffffffffffffffff1681526020018473ffffffffffffffffffffffffffffffffffffffff1673ffffffffffffffffffffffffffffffffffffffff16815260200183815260200180602001828103825283818151815260200191508051906020019080838360005b8381101561517a57808201518184015260208101905061515f565b50505050905090810190601f1680156151a75780820380516001836020036101000a031916815260200191505b5095505050505050604051602081830303815290604052907bffffffffffffffffffffffffffffffffffffffffffffffffffffffff19166020820180517bffffffffffffffffffffffffffffffffffffffffffffffffffffffff83818316178352505050506040518082805190602001908083835b6020831061523f578051825260208201915060208101905060208303925061521c565b6001836020036101000a0380198251168184511680821785525050505050509050019150506000604051808303816000865af19150503d80600081146152a1576040519150601f19603f3d011682016040523d82523d6000602084013e6152a6565b606091505b509150915081615314576000815111156152c35780518082602001fd5b6040517f08c379a00000000000000000000000000000000000000000000000000000000081526004018080602001828103825260328152602001806158bb6032913960400191505060405180910390fd5b600081806020019051602081101561532b57600080fd5b8101908080519060200190929190505050905063150b7a0260e01b7bffffffffffffffffffffffffffffffffffffffffffffffffffffffff1916817bffffffffffffffffffffffffffffffffffffffffffffffffffffffff19161493505050505b949350505050565b600073ffffffffffffffffffffffffffffffffffffffff168273ffffffffffffffffffffffffffffffffffffffff161415615437576040517f08c379a00000000000000000000000000000000000000000000000000000000081526004018080602001828103825260208152602001807f4552433732313a206d696e7420746f20746865207a65726f206164647265737381525060200191505060405180910390fd5b61544081614581565b156154b3576040517f08c379a000000000000000000000000000000000000000000000000000000000815260040180806020018281038252601c8152602001807f4552433732313a20746f6b656e20616c7265616479206d696e7465640000000081525060200191505060405180910390fd5b816002600083815260200190815260200160002060006101000a81548173ffffffffffffffffffffffffffffffffffffffff021916908373ffffffffffffffffffffffffffffffffffffffff16021790555061554c600460008473ffffffffffffffffffffffffffffffffffffffff1673ffffffffffffffffffffffffffffffffffffffff1681526020019081526020016000206156d9565b808273ffffffffffffffffffffffffffffffffffffffff16600073ffffffffffffffffffffffffffffffffffffffff167fddf252ad1be2c89b69c2b068fc378daa952ba7f163c4a11628f55a4df523b3ef60405160405180910390a45050565b6008805490506009600083815260200190815260200160002081905550600881908060018154018082558091505090600182039060005260206000200160009091929091909150555050565b600073ffffffffffffffffffffffffffffffffffffffff166003600083815260200190815260200160002060009054906101000a900473ffffffffffffffffffffffffffffffffffffffff1673ffffffffffffffffffffffffffffffffffffffff16146156b35760006003600083815260200190815260200160002060006101000a81548173ffffffffffffffffffffffffffffffffffffffff021916908373ffffffffffffffffffffffffffffffffffffffff1602179055505b50565b6156ce600182600001546147f190919063ffffffff16565b816000018190555050565b6001816000016000828254019250508190555050565b60008060007fc5d2460186f7233c927e7db2dcc703c0e500b653ca82273b7bfad8045d85a47060001b9050833f915080821415801561573157506000801b8214155b92505050919050565b6040518060c0016040528060008152602001600073ffffffffffffffffffffffffffffffffffffffff1681526020016060815260200160008152602001600060ff1681526020016000600481111561578e57fe5b81525090565b828054600181600116156101000203166002900490600052602060002090601f016020900481019282601f106157d557805160ff1916838001178555615803565b82800160010185558215615803579182015b828111156158025782518255916020019190600101906157e7565b5b509050615810919061586a565b5090565b60405180608001604052806000815260200160008152602001606081526020016000151581525090565b81548183558181111561586557818360005260206000209182019101615864919061586a565b5b505050565b61588c91905b80821115615888576000816000905550600101615870565b5090565b9056fe455243373231456e756d657261626c653a206f776e657220696e646578206f7574206f6620626f756e64734552433732313a207472616e7366657220746f206e6f6e20455243373231526563656976657220696d706c656d656e7465724f776e61626c653a206e6577206f776e657220697320746865207a65726f20616464726573734552433732313a207472616e7366657220746f20746865207a65726f20616464726573734552433732313a206f70657261746f7220717565727920666f72206e6f6e6578697374656e7420746f6b656e4552433732313a20617070726f76652063616c6c6572206973206e6f74206f776e6572206e6f7220617070726f76656420666f7220616c6c4552433732313a2062616c616e636520717565727920666f7220746865207a65726f20616464726573734552433732313a206f776e657220717565727920666f72206e6f6e6578697374656e7420746f6b656e536166654d6174683a206d756c7469706c69636174696f6e206f766572666c6f774552433732313a20617070726f76656420717565727920666f72206e6f6e6578697374656e7420746f6b656e4552433732313a207472616e73666572206f6620746f6b656e2074686174206973206e6f74206f776e4552433732314d657461646174613a2055524920717565727920666f72206e6f6e6578697374656e7420746f6b656e4552433732313a20617070726f76616c20746f2063757272656e74206f776e65724552433732313a207472616e736665722063616c6c6572206973206e6f74206f776e6572206e6f7220617070726f766564455243373231456e756d657261626c653a20676c6f62616c20696e646578206f7574206f6620626f756e6473a265627a7a7231582021503ceb41fc7b68e3d4b8c68870ef5642829345e939c4836695635aa642124164736f6c63430005100032",
  "source": "pragma solidity ^0.5.0;\n\nimport \"./ITheToken.sol\";\nimport \"@openzeppelin/contracts/math/SafeMath.sol\";\nimport \"@openzeppelin/contracts/ownership/Ownable.sol\";\nimport '@openzeppelin/contracts/token/ERC721/ERC721Full.sol';\n\ncontract TheNFT is Ownable, ERC721Full {\n  using SafeMath for uint256;\n\n  address payable public tokenAddress;\n\n  enum StateType {\n      ForSale,\n      PendingValidation,\n      InstallmentPaid,\n      ContractCancelled,    \n      ContractEnded\n  }\n\n  event ContractCreated(string applicationName, string workflowName, address originatingAddress);\n  event ContractUpdated(string applicationName, string workflowName, string action, address originatingAddress);\n\n  string internal appName = \"CryptoForests\";\n  string internal workflowName = \"GreenContract\";\n\n  struct GreenContract {\n    uint256 id;\n    address payable vendor;   // vendor\n    string data;              // initial data species, gps, ipfs hash for initial photo\n    uint256 listPrice;        // price listing\n    uint8 installments;       // number of installments to pay the list price\n    StateType State;          // green contract state\n  }\n\n  GreenContract[] public greenContractList;\n\n  struct ProofOfPhoto {\n    uint256 greenContractId;\n    uint256 uploadTime; // when the photo saved to blockchain\n    string newData;     // ipfs hash to the photo\n    bool validated;\n  }\n\n  // track contract ID to proofs\n  mapping(uint256 => ProofOfPhoto[]) public greenContractProofs;\n  // default validator\n  address payable validator;\n\n  constructor() ERC721Full(\"Crypto Forests\", \"TREE\") public {\n    validator = msg.sender;\n  }\n\n  function connectToToken(address payable addr) public onlyOwner {\n    tokenAddress = addr;\n  }\n\n  function setValidator(address payable addr) public onlyOwner {\n    validator = addr;\n  }\n\n  function setTree(string memory inputdata, uint256 price, uint8 inputInstallments) public {\n    // everyone can be a vendor to list a tree\n    uint256 newId = greenContractList.length;\n    greenContractList.push(\n      GreenContract(\n        newId,\n        msg.sender,\n        inputdata,\n        price,\n        inputInstallments,\n        StateType.ForSale\n      )\n    );\n\n    emit ContractCreated(appName, workflowName, msg.sender);\n  }\n\n  function getTreeCount() public view returns (uint256) {\n    return greenContractList.length;\n  }\n\n  function getTreeData(uint256 greenContractIndex) public view returns (\n    uint256,       // id\n    address,       // vendor\n    string memory, // data\n    uint256,       // listPrice\n    uint8,         // installments\n    StateType      // State\n  ) {\n    require(greenContractIndex >= 0 && greenContractIndex < greenContractList.length, \"!index\");\n    GreenContract memory g = greenContractList[greenContractIndex];\n    return (\n      g.id, g.vendor, g.data, g.listPrice, g.installments, g.State\n    );\n  }\n\n  function buyTree(uint256 greenContractIndex) public payable { // payable means user must pay to call this function\n    require(greenContractIndex >= 0 && greenContractIndex < greenContractList.length, \"!index\");\n    // anyone can buy tree\n    GreenContract memory g = greenContractList[greenContractIndex];\n\n    uint256 listPrice = g.listPrice;\n    uint8 installments = g.installments;\n    uint256 totalPayment = listPrice.mul(installments); // list  price X number of installments\n    require(msg.value >= totalPayment, \"Not enough payment\");\n\n    // on listprice 70% will be sent to vendor, 10% to validator & 20% will be used to mint reward coin\n    // mint coin do up front\n    uint256 toCoin = totalPayment.mul(20).div(100);\n\n    ITheToken(tokenAddress).mint.value(toCoin)(msg.sender); // buyer receives coin\n    _mint(msg.sender, g.id);                                // buyer receives nft attached to greencontract id\n\n    // on bought, set state to not for sale and not on pending validation\n    greenContractList[greenContractIndex].State = StateType.InstallmentPaid;\n\n    // send vendor money later after proof validation\n    // send validator money later after proof validation\n  }\n\n  function submitProofOfWork(uint256 greenContractIndex, string memory proofdata) public {\n    require(greenContractIndex >= 0 && greenContractIndex < greenContractList.length, \"!index\");\n    GreenContract memory g = greenContractList[greenContractIndex];\n    //require(g.vendor == msg.sender, \"only vendor can submit proof of work\");\n    //require(g.State == StateType.InstallmentPaid, \"Proof of work can be submitted only after initial payment\");\n    //require(g.State != StateType.ContractEnded, \"All instalments are paid\");\n    //require(g.State != StateType.ContractCancelled, \"Contract is cancelled\");\n    g.State = StateType.PendingValidation;\n    greenContractProofs[g.id].push(ProofOfPhoto(g.id, now, proofdata, false));\n  }\n\n  function getProofOfWorkCount(uint256 greenContractIndex) public view returns (uint256) {\n    require(greenContractIndex >= 0 && greenContractIndex < greenContractList.length, \"!index\");\n    GreenContract memory g = greenContractList[greenContractIndex];\n    return greenContractProofs[g.id].length;\n  }\n\n  function getProofOfWorkData(uint256 greenContractIndex, uint256 proofIndex) public view returns (\n    uint256,       // greenContractId\n    uint256,       // uploadTime\n    string memory, // newData\n    bool           // validated\n  ) {\n    require(greenContractIndex >= 0 && greenContractIndex < greenContractList.length, \"!index\");\n    GreenContract memory g = greenContractList[greenContractIndex];\n    require(proofIndex >= 0 && proofIndex < greenContractProofs[g.id].length, \"!proofIndex\");\n\n    ProofOfPhoto memory p = greenContractProofs[g.id][proofIndex];\n    return (\n      p.greenContractId,\n      p.uploadTime,\n      p.newData,\n      p.validated\n    );\n  }\n\n  function validateProofOfWork(uint256 greenContractIndex, uint256 proofIndex) public payable {\n    require(greenContractIndex >= 0 && greenContractIndex < greenContractList.length, \"!index\");\n    GreenContract memory g = greenContractList[greenContractIndex];\n\n    // requirement below cant be commented, because vendor may try to cheat by call this function\n    // require(msg.sender == validator, \"Only validator allowed to validate\");\n\n    require(proofIndex >= 0 && proofIndex < greenContractProofs[g.id].length, \"!proofIndex\");\n    greenContractProofs[g.id][proofIndex].validated = true;\n\n    // if photo validated, vendor will receive 70% money, validator 10%\n    // remember 20% already sent up front to mint coin\n    uint256 listPrice = g.listPrice;\n    uint256 toVendor = listPrice.mul(70).div(100);\n    uint256 toValidator = listPrice.mul(10).div(100);\n    // no need to set amount to mint coin because already sent, up front on buy tree\n \n    // send vendor money\n    address payable vendor = g.vendor;\n    vendor.transfer(toVendor);\n\n    // send validator money\n    validator.transfer(toValidator);\n\n    g.State = StateType.InstallmentPaid;\n    g.installments = g.installments - 1;\n    if (g.installments == 0) {\n      g.State = StateType.ContractEnded;\n    }\n    emit ContractUpdated(appName, workflowName, \"validateProofOfWork\", msg.sender);\n  }\n\n  function invalidateProofOfWork(uint256 greenContractIndex, uint256 proofIndex) public payable {\n    require(greenContractIndex >= 0 && greenContractIndex < greenContractList.length, \"!index\");\n    GreenContract memory g = greenContractList[greenContractIndex];\n\n    // requirement below cant be commented, because vendor may try to cheat by call this function\n    // require(msg.sender == validator, \"Only validator allowed to validate\");\n\n    require(proofIndex >= 0 && proofIndex < greenContractProofs[g.id].length, \"!proofIndex\");\n    ProofOfPhoto memory p = greenContractProofs[g.id][proofIndex];\n    p.validated = false;\n\n    // on cancel installment, validator will receive current fee and remaining money sent to TheToken contract\n    uint256 listPrice = g.listPrice;\n    uint256 toValidator = listPrice.mul(10).div(100);\n\n    uint256 remainingMoney = listPrice.mul(g.installments);\n    remainingMoney = remainingMoney.mul(80).div(100); // remember 20% already used to mint coin\n    remainingMoney = remainingMoney.sub(toValidator);\n    validator.transfer(toValidator);\n    tokenAddress.transfer(remainingMoney);\n\n    g.State = StateType.ContractCancelled;\n    g.installments = 0;\n    emit ContractUpdated(appName, workflowName, \"inValidateProofOfWork\", msg.sender);\n  }\n}\n",
  "sourcePath": "/home/leledumbodev/devpost/CryptoForests/contracts/TheNFT.sol",
  "compiler": {
    "name": "solc",
    "version": "0.5.16+commit.9c3226ce.Emscripten.clang"
  },
  "schemaVersion": "3.3.0",
  "updatedAt": "2020-11-02T01:04:08.700Z",
  "networkType": "ethereum",
  "devdoc": {
    "methods": {
      "approve(address,uint256)": {
        "details": "Approves another address to transfer the given token ID The zero address indicates there is no approved address. There can only be one approved address per token at a given time. Can only be called by the token owner or an approved operator.",
        "params": {
          "to": "address to be approved for the given token ID",
          "tokenId": "uint256 ID of the token to be approved"
        }
      },
      "balanceOf(address)": {
        "details": "Gets the balance of the specified address.",
        "params": {
          "owner": "address to query the balance of"
        },
        "return": "uint256 representing the amount owned by the passed address"
      },
      "baseURI()": {
        "details": "Returns the base URI set via {_setBaseURI}. This will be automatically added as a preffix in {tokenURI} to each token's URI, when they are non-empty.    * _Available since v2.5.0._"
      },
      "getApproved(uint256)": {
        "details": "Gets the approved address for a token ID, or zero if no address set Reverts if the token ID does not exist.",
        "params": {
          "tokenId": "uint256 ID of the token to query the approval of"
        },
        "return": "address currently approved for the given token ID"
      },
      "isApprovedForAll(address,address)": {
        "details": "Tells whether an operator is approved by a given owner.",
        "params": {
          "operator": "operator address which you want to query the approval of",
          "owner": "owner address which you want to query the approval of"
        },
        "return": "bool whether the given operator is approved by the given owner"
      },
      "isOwner()": {
        "details": "Returns true if the caller is the current owner."
      },
      "name()": {
        "details": "Gets the token name.",
        "return": "string representing the token name"
      },
      "owner()": {
        "details": "Returns the address of the current owner."
      },
      "ownerOf(uint256)": {
        "details": "Gets the owner of the specified token ID.",
        "params": {
          "tokenId": "uint256 ID of the token to query the owner of"
        },
        "return": "address currently marked as the owner of the given token ID"
      },
      "renounceOwnership()": {
        "details": "Leaves the contract without owner. It will not be possible to call `onlyOwner` functions anymore. Can only be called by the current owner.     * NOTE: Renouncing ownership will leave the contract without an owner, thereby removing any functionality that is only available to the owner."
      },
      "safeTransferFrom(address,address,uint256)": {
        "details": "Safely transfers the ownership of a given token ID to another address If the target address is a contract, it must implement {IERC721Receiver-onERC721Received}, which is called upon a safe transfer, and return the magic value `bytes4(keccak256(\"onERC721Received(address,address,uint256,bytes)\"))`; otherwise, the transfer is reverted. Requires the msg.sender to be the owner, approved, or operator",
        "params": {
          "from": "current owner of the token",
          "to": "address to receive the ownership of the given token ID",
          "tokenId": "uint256 ID of the token to be transferred"
        }
      },
      "safeTransferFrom(address,address,uint256,bytes)": {
        "details": "Safely transfers the ownership of a given token ID to another address If the target address is a contract, it must implement {IERC721Receiver-onERC721Received}, which is called upon a safe transfer, and return the magic value `bytes4(keccak256(\"onERC721Received(address,address,uint256,bytes)\"))`; otherwise, the transfer is reverted. Requires the _msgSender() to be the owner, approved, or operator",
        "params": {
          "_data": "bytes data to send along with a safe transfer check",
          "from": "current owner of the token",
          "to": "address to receive the ownership of the given token ID",
          "tokenId": "uint256 ID of the token to be transferred"
        }
      },
      "setApprovalForAll(address,bool)": {
        "details": "Sets or unsets the approval of a given operator An operator is allowed to transfer all tokens of the sender on their behalf.",
        "params": {
          "approved": "representing the status of the approval to be set",
          "to": "operator address to set the approval"
        }
      },
      "supportsInterface(bytes4)": {
        "details": "See {IERC165-supportsInterface}.     * Time complexity O(1), guaranteed to always use less than 30 000 gas."
      },
      "symbol()": {
        "details": "Gets the token symbol.",
        "return": "string representing the token symbol"
      },
      "tokenByIndex(uint256)": {
        "details": "Gets the token ID at a given index of all the tokens in this contract Reverts if the index is greater or equal to the total number of tokens.",
        "params": {
          "index": "uint256 representing the index to be accessed of the tokens list"
        },
        "return": "uint256 token ID at the given index of the tokens list"
      },
      "tokenOfOwnerByIndex(address,uint256)": {
        "details": "Gets the token ID at a given index of the tokens list of the requested owner.",
        "params": {
          "index": "uint256 representing the index to be accessed of the requested tokens list",
          "owner": "address owning the tokens list to be accessed"
        },
        "return": "uint256 token ID at the given index of the tokens list owned by the requested address"
      },
      "tokenURI(uint256)": {
        "details": "Returns the URI for a given token ID. May return an empty string.     * If the token's URI is non-empty and a base URI was set (via {_setBaseURI}), it will be added to the token ID's URI as a prefix.     * Reverts if the token ID does not exist."
      },
      "totalSupply()": {
        "details": "Gets the total amount of tokens stored by the contract.",
        "return": "uint256 representing the total amount of tokens"
      },
      "transferFrom(address,address,uint256)": {
        "details": "Transfers the ownership of a given token ID to another address. Usage of this method is discouraged, use {safeTransferFrom} whenever possible. Requires the msg.sender to be the owner, approved, or operator.",
        "params": {
          "from": "current owner of the token",
          "to": "address to receive the ownership of the given token ID",
          "tokenId": "uint256 ID of the token to be transferred"
        }
      },
      "transferOwnership(address)": {
        "details": "Transfers ownership of the contract to a new account (`newOwner`). Can only be called by the current owner."
      }
    }
  },
  "userdoc": {
    "methods": {}
  }
}