{
  "contractName": "TheNFT2",
  "abi": [
    {
      "constant": true,
      "inputs": [
        {
          "name": "interfaceId",
          "type": "bytes4"
        }
      ],
      "name": "supportsInterface",
      "outputs": [
        {
          "name": "",
          "type": "bool"
        }
      ],
      "payable": false,
      "stateMutability": "view",
      "type": "function"
    },
    {
      "constant": true,
      "inputs": [],
      "name": "name",
      "outputs": [
        {
          "name": "",
          "type": "string"
        }
      ],
      "payable": false,
      "stateMutability": "view",
      "type": "function"
    },
    {
      "constant": true,
      "inputs": [
        {
          "name": "tokenId",
          "type": "uint256"
        }
      ],
      "name": "getApproved",
      "outputs": [
        {
          "name": "",
          "type": "address"
        }
      ],
      "payable": false,
      "stateMutability": "view",
      "type": "function"
    },
    {
      "constant": false,
      "inputs": [
        {
          "name": "to",
          "type": "address"
        },
        {
          "name": "tokenId",
          "type": "uint256"
        }
      ],
      "name": "approve",
      "outputs": [],
      "payable": false,
      "stateMutability": "nonpayable",
      "type": "function"
    },
    {
      "constant": true,
      "inputs": [],
      "name": "totalSupply",
      "outputs": [
        {
          "name": "",
          "type": "uint256"
        }
      ],
      "payable": false,
      "stateMutability": "view",
      "type": "function"
    },
    {
      "constant": false,
      "inputs": [
        {
          "name": "from",
          "type": "address"
        },
        {
          "name": "to",
          "type": "address"
        },
        {
          "name": "tokenId",
          "type": "uint256"
        }
      ],
      "name": "transferFrom",
      "outputs": [],
      "payable": false,
      "stateMutability": "nonpayable",
      "type": "function"
    },
    {
      "constant": true,
      "inputs": [
        {
          "name": "owner",
          "type": "address"
        },
        {
          "name": "index",
          "type": "uint256"
        }
      ],
      "name": "tokenOfOwnerByIndex",
      "outputs": [
        {
          "name": "",
          "type": "uint256"
        }
      ],
      "payable": false,
      "stateMutability": "view",
      "type": "function"
    },
    {
      "constant": false,
      "inputs": [
        {
          "name": "from",
          "type": "address"
        },
        {
          "name": "to",
          "type": "address"
        },
        {
          "name": "tokenId",
          "type": "uint256"
        }
      ],
      "name": "safeTransferFrom",
      "outputs": [],
      "payable": false,
      "stateMutability": "nonpayable",
      "type": "function"
    },
    {
      "constant": true,
      "inputs": [
        {
          "name": "index",
          "type": "uint256"
        }
      ],
      "name": "tokenByIndex",
      "outputs": [
        {
          "name": "",
          "type": "uint256"
        }
      ],
      "payable": false,
      "stateMutability": "view",
      "type": "function"
    },
    {
      "constant": true,
      "inputs": [
        {
          "name": "tokenId",
          "type": "uint256"
        }
      ],
      "name": "ownerOf",
      "outputs": [
        {
          "name": "",
          "type": "address"
        }
      ],
      "payable": false,
      "stateMutability": "view",
      "type": "function"
    },
    {
      "constant": true,
      "inputs": [],
      "name": "baseURI",
      "outputs": [
        {
          "name": "",
          "type": "string"
        }
      ],
      "payable": false,
      "stateMutability": "view",
      "type": "function"
    },
    {
      "constant": true,
      "inputs": [
        {
          "name": "owner",
          "type": "address"
        }
      ],
      "name": "balanceOf",
      "outputs": [
        {
          "name": "",
          "type": "uint256"
        }
      ],
      "payable": false,
      "stateMutability": "view",
      "type": "function"
    },
    {
      "constant": true,
      "inputs": [
        {
          "name": "",
          "type": "uint256"
        }
      ],
      "name": "greenContractList",
      "outputs": [
        {
          "name": "id",
          "type": "uint256"
        },
        {
          "name": "vendor",
          "type": "address"
        },
        {
          "name": "data",
          "type": "string"
        },
        {
          "name": "listPrice",
          "type": "uint256"
        },
        {
          "name": "installments",
          "type": "uint8"
        },
        {
          "name": "State",
          "type": "uint8"
        },
        {
          "name": "price",
          "type": "uint256"
        },
        {
          "name": "lastProofUploadTime",
          "type": "uint256"
        }
      ],
      "payable": false,
      "stateMutability": "view",
      "type": "function"
    },
    {
      "constant": false,
      "inputs": [],
      "name": "renounceOwnership",
      "outputs": [],
      "payable": false,
      "stateMutability": "nonpayable",
      "type": "function"
    },
    {
      "constant": true,
      "inputs": [],
      "name": "owner",
      "outputs": [
        {
          "name": "",
          "type": "address"
        }
      ],
      "payable": false,
      "stateMutability": "view",
      "type": "function"
    },
    {
      "constant": true,
      "inputs": [],
      "name": "isOwner",
      "outputs": [
        {
          "name": "",
          "type": "bool"
        }
      ],
      "payable": false,
      "stateMutability": "view",
      "type": "function"
    },
    {
      "constant": true,
      "inputs": [],
      "name": "symbol",
      "outputs": [
        {
          "name": "",
          "type": "string"
        }
      ],
      "payable": false,
      "stateMutability": "view",
      "type": "function"
    },
    {
      "constant": true,
      "inputs": [],
      "name": "tokenAddress",
      "outputs": [
        {
          "name": "",
          "type": "address"
        }
      ],
      "payable": false,
      "stateMutability": "view",
      "type": "function"
    },
    {
      "constant": false,
      "inputs": [
        {
          "name": "to",
          "type": "address"
        },
        {
          "name": "approved",
          "type": "bool"
        }
      ],
      "name": "setApprovalForAll",
      "outputs": [],
      "payable": false,
      "stateMutability": "nonpayable",
      "type": "function"
    },
    {
      "constant": false,
      "inputs": [
        {
          "name": "from",
          "type": "address"
        },
        {
          "name": "to",
          "type": "address"
        },
        {
          "name": "tokenId",
          "type": "uint256"
        },
        {
          "name": "_data",
          "type": "bytes"
        }
      ],
      "name": "safeTransferFrom",
      "outputs": [],
      "payable": false,
      "stateMutability": "nonpayable",
      "type": "function"
    },
    {
      "constant": true,
      "inputs": [
        {
          "name": "",
          "type": "uint256"
        },
        {
          "name": "",
          "type": "uint256"
        }
      ],
      "name": "greenContractProofs",
      "outputs": [
        {
          "name": "greenContractId",
          "type": "uint256"
        },
        {
          "name": "uploadTime",
          "type": "uint256"
        },
        {
          "name": "newData",
          "type": "string"
        },
        {
          "name": "State",
          "type": "uint8"
        }
      ],
      "payable": false,
      "stateMutability": "view",
      "type": "function"
    },
    {
      "constant": true,
      "inputs": [
        {
          "name": "tokenId",
          "type": "uint256"
        }
      ],
      "name": "tokenURI",
      "outputs": [
        {
          "name": "",
          "type": "string"
        }
      ],
      "payable": false,
      "stateMutability": "view",
      "type": "function"
    },
    {
      "constant": true,
      "inputs": [
        {
          "name": "owner",
          "type": "address"
        },
        {
          "name": "operator",
          "type": "address"
        }
      ],
      "name": "isApprovedForAll",
      "outputs": [
        {
          "name": "",
          "type": "bool"
        }
      ],
      "payable": false,
      "stateMutability": "view",
      "type": "function"
    },
    {
      "constant": false,
      "inputs": [
        {
          "name": "newOwner",
          "type": "address"
        }
      ],
      "name": "transferOwnership",
      "outputs": [],
      "payable": false,
      "stateMutability": "nonpayable",
      "type": "function"
    },
    {
      "inputs": [],
      "payable": false,
      "stateMutability": "nonpayable",
      "type": "constructor"
    },
    {
      "anonymous": false,
      "inputs": [
        {
          "indexed": false,
          "name": "applicationName",
          "type": "string"
        },
        {
          "indexed": false,
          "name": "workflowName",
          "type": "string"
        },
        {
          "indexed": false,
          "name": "originatingAddress",
          "type": "address"
        }
      ],
      "name": "ContractCreated",
      "type": "event"
    },
    {
      "anonymous": false,
      "inputs": [
        {
          "indexed": false,
          "name": "applicationName",
          "type": "string"
        },
        {
          "indexed": false,
          "name": "workflowName",
          "type": "string"
        },
        {
          "indexed": false,
          "name": "action",
          "type": "string"
        },
        {
          "indexed": false,
          "name": "originatingAddress",
          "type": "address"
        }
      ],
      "name": "ContractUpdated",
      "type": "event"
    },
    {
      "anonymous": false,
      "inputs": [
        {
          "indexed": true,
          "name": "from",
          "type": "address"
        },
        {
          "indexed": true,
          "name": "to",
          "type": "address"
        },
        {
          "indexed": true,
          "name": "tokenId",
          "type": "uint256"
        }
      ],
      "name": "Transfer",
      "type": "event"
    },
    {
      "anonymous": false,
      "inputs": [
        {
          "indexed": true,
          "name": "owner",
          "type": "address"
        },
        {
          "indexed": true,
          "name": "approved",
          "type": "address"
        },
        {
          "indexed": true,
          "name": "tokenId",
          "type": "uint256"
        }
      ],
      "name": "Approval",
      "type": "event"
    },
    {
      "anonymous": false,
      "inputs": [
        {
          "indexed": true,
          "name": "owner",
          "type": "address"
        },
        {
          "indexed": true,
          "name": "operator",
          "type": "address"
        },
        {
          "indexed": false,
          "name": "approved",
          "type": "bool"
        }
      ],
      "name": "ApprovalForAll",
      "type": "event"
    },
    {
      "anonymous": false,
      "inputs": [
        {
          "indexed": true,
          "name": "previousOwner",
          "type": "address"
        },
        {
          "indexed": true,
          "name": "newOwner",
          "type": "address"
        }
      ],
      "name": "OwnershipTransferred",
      "type": "event"
    },
    {
      "constant": false,
      "inputs": [
        {
          "name": "addr1",
          "type": "address"
        },
        {
          "name": "addr2",
          "type": "address"
        }
      ],
      "name": "setup",
      "outputs": [],
      "payable": false,
      "stateMutability": "nonpayable",
      "type": "function"
    },
    {
      "constant": false,
      "inputs": [
        {
          "name": "inputdata",
          "type": "string"
        },
        {
          "name": "listPrice",
          "type": "uint256"
        },
        {
          "name": "inputInstallments",
          "type": "uint8"
        }
      ],
      "name": "setTree",
      "outputs": [],
      "payable": false,
      "stateMutability": "nonpayable",
      "type": "function"
    },
    {
      "constant": true,
      "inputs": [],
      "name": "getTreeCount",
      "outputs": [
        {
          "name": "",
          "type": "uint256"
        }
      ],
      "payable": false,
      "stateMutability": "view",
      "type": "function"
    },
    {
      "constant": true,
      "inputs": [
        {
          "name": "greenContractIndex",
          "type": "uint256"
        }
      ],
      "name": "getTreeData",
      "outputs": [
        {
          "name": "",
          "type": "uint256"
        },
        {
          "name": "",
          "type": "address"
        },
        {
          "name": "",
          "type": "string"
        },
        {
          "name": "",
          "type": "uint256"
        },
        {
          "name": "",
          "type": "uint8"
        },
        {
          "name": "",
          "type": "uint8"
        },
        {
          "name": "",
          "type": "uint256"
        },
        {
          "name": "",
          "type": "uint256"
        }
      ],
      "payable": false,
      "stateMutability": "view",
      "type": "function"
    },
    {
      "constant": false,
      "inputs": [
        {
          "name": "greenContractIndex",
          "type": "uint256"
        }
      ],
      "name": "buyTree",
      "outputs": [],
      "payable": true,
      "stateMutability": "payable",
      "type": "function"
    },
    {
      "constant": false,
      "inputs": [
        {
          "name": "greenContractIndex",
          "type": "uint256"
        },
        {
          "name": "proofdata",
          "type": "string"
        }
      ],
      "name": "submitProofOfWork",
      "outputs": [],
      "payable": false,
      "stateMutability": "nonpayable",
      "type": "function"
    },
    {
      "constant": true,
      "inputs": [
        {
          "name": "greenContractIndex",
          "type": "uint256"
        }
      ],
      "name": "getProofOfWorkCount",
      "outputs": [
        {
          "name": "",
          "type": "uint256"
        }
      ],
      "payable": false,
      "stateMutability": "view",
      "type": "function"
    },
    {
      "constant": true,
      "inputs": [
        {
          "name": "greenContractIndex",
          "type": "uint256"
        },
        {
          "name": "proofIndex",
          "type": "uint256"
        }
      ],
      "name": "getProofOfWorkData",
      "outputs": [
        {
          "name": "",
          "type": "uint256"
        },
        {
          "name": "",
          "type": "uint256"
        },
        {
          "name": "",
          "type": "string"
        },
        {
          "name": "",
          "type": "uint8"
        }
      ],
      "payable": false,
      "stateMutability": "view",
      "type": "function"
    },
    {
      "constant": false,
      "inputs": [
        {
          "name": "greenContractIndex",
          "type": "uint256"
        },
        {
          "name": "proofIndex",
          "type": "uint256"
        }
      ],
      "name": "validateProofOfWork",
      "outputs": [],
      "payable": false,
      "stateMutability": "nonpayable",
      "type": "function"
    },
    {
      "constant": false,
      "inputs": [
        {
          "name": "greenContractIndex",
          "type": "uint256"
        },
        {
          "name": "proofIndex",
          "type": "uint256"
        }
      ],
      "name": "invalidateProofOfWork",
      "outputs": [],
      "payable": false,
      "stateMutability": "nonpayable",
      "type": "function"
    }
  ],
  "bytecode": "0x60806040526040518060400160405280600d81526020017f43727970746f466f726573747300000000000000000000000000000000000000815250600f90805190602001906200005192919062000379565b506040518060400160405280600d81526020017f477265656e436f6e747261637400000000000000000000000000000000000000815250601090805190602001906200009f92919062000379565b50348015620000ad57600080fd5b506040518060400160405280600e81526020017f43727970746f20466f72657374730000000000000000000000000000000000008152506040518060400160405280600481526020017f5452454500000000000000000000000000000000000000000000000000000000815250818160006200012e6200026860201b60201c565b9050806000806101000a81548173ffffffffffffffffffffffffffffffffffffffff021916908373ffffffffffffffffffffffffffffffffffffffff1602179055508073ffffffffffffffffffffffffffffffffffffffff16600073ffffffffffffffffffffffffffffffffffffffff167f8be0079c531659141344cd1fd0a4f28419497f9722a3daafe3b4186f6b6457e060405160405180910390a350620001e46301ffc9a760e01b6200027060201b60201c565b620001fc6380ac58cd60e01b6200027060201b60201c565b6200021463780e9d6360e01b6200027060201b60201c565b81600a90805190602001906200022c92919062000379565b5080600b90805190602001906200024592919062000379565b506200025e635b5e139f60e01b6200027060201b60201c565b5050505062000428565b600033905090565b63ffffffff60e01b817bffffffffffffffffffffffffffffffffffffffffffffffffffffffff191614156200030d576040517f08c379a000000000000000000000000000000000000000000000000000000000815260040180806020018281038252601c8152602001807f4552433136353a20696e76616c696420696e746572666163652069640000000081525060200191505060405180910390fd5b6001806000837bffffffffffffffffffffffffffffffffffffffffffffffffffffffff19167bffffffffffffffffffffffffffffffffffffffffffffffffffffffff1916815260200190815260200160002060006101000a81548160ff02191690831515021790555050565b828054600181600116156101000203166002900490600052602060002090601f016020900481019282601f10620003bc57805160ff1916838001178555620003ed565b82800160010185558215620003ed579182015b82811115620003ec578251825591602001919060010190620003cf565b5b509050620003fc919062000400565b5090565b6200042591905b808211156200042157600081600090555060010162000407565b5090565b90565b615fb980620004386000396000f3fe6080604052600436106101f95760003560e01c80637e44b3ac1161010d578063ad53e7b4116100a0578063c87b56dd1161006f578063c87b56dd146110fb578063ca24138f146111af578063d61dcc93146111dd578063e985e9c51461122c578063f2fde38b146112b5576101f9565b8063ad53e7b414610d48578063b649693014610e27578063b88d4fde14610f08578063bd16fafa1461101a576101f9565b806395d89b41116100dc57806395d89b4114610bbf5780639ae5616b14610c4f5780639d76ea5814610c94578063a22cb46514610ceb576101f9565b80637e44b3ac146109cf5780638d380a7314610af45780638da5cb5b14610b395780638f32d59b14610b90576101f9565b80632f745c59116101905780636352211e1161015f5780636352211e146107235780636c0360eb1461079e57806370a082311461082e57806370bb046714610893578063715018a6146109b8576101f9565b80632f745c59146105bf57806342842e0e1461062e5780634f6ccce7146106a95780635028f70b146106f8576101f9565b8063125eec3e116101cc578063125eec3e146103d657806318160ddd146104a857806323b872dd146104d35780632d34ba791461054e576101f9565b806301ffc9a7146101fe57806306fdde0314610270578063081812fc14610300578063095ea7b31461037b575b600080fd5b34801561020a57600080fd5b506102566004803603602081101561022157600080fd5b8101908080357bffffffffffffffffffffffffffffffffffffffffffffffffffffffff19169060200190929190505050611306565b604051808215151515815260200191505060405180910390f35b34801561027c57600080fd5b5061028561136e565b6040518080602001828103825283818151815260200191508051906020019080838360005b838110156102c55780820151818401526020810190506102aa565b50505050905090810190601f1680156102f25780820380516001836020036101000a031916815260200191505b509250505060405180910390f35b34801561030c57600080fd5b506103396004803603602081101561032357600080fd5b8101908080359060200190929190505050611410565b604051808273ffffffffffffffffffffffffffffffffffffffff1673ffffffffffffffffffffffffffffffffffffffff16815260200191505060405180910390f35b34801561038757600080fd5b506103d46004803603604081101561039e57600080fd5b81019080803573ffffffffffffffffffffffffffffffffffffffff169060200190929190803590602001909291905050506114ab565b005b3480156103e257600080fd5b506104a6600480360360408110156103f957600080fd5b81019080803590602001909291908035906020019064010000000081111561042057600080fd5b82018360208201111561043257600080fd5b8035906020019184600183028401116401000000008311171561045457600080fd5b91908080601f016020809104026020016040519081016040528093929190818152602001838380828437600081840152601f19601f820116905080830192505050505050509192919290505050611692565b005b3480156104b457600080fd5b506104bd611ae7565b6040518082815260200191505060405180910390f35b3480156104df57600080fd5b5061054c600480360360608110156104f657600080fd5b81019080803573ffffffffffffffffffffffffffffffffffffffff169060200190929190803573ffffffffffffffffffffffffffffffffffffffff16906020019092919080359060200190929190505050611af4565b005b34801561055a57600080fd5b506105bd6004803603604081101561057157600080fd5b81019080803573ffffffffffffffffffffffffffffffffffffffff169060200190929190803573ffffffffffffffffffffffffffffffffffffffff169060200190929190505050611b6a565b005b3480156105cb57600080fd5b50610618600480360360408110156105e257600080fd5b81019080803573ffffffffffffffffffffffffffffffffffffffff16906020019092919080359060200190929190505050611c6a565b6040518082815260200191505060405180910390f35b34801561063a57600080fd5b506106a76004803603606081101561065157600080fd5b81019080803573ffffffffffffffffffffffffffffffffffffffff169060200190929190803573ffffffffffffffffffffffffffffffffffffffff16906020019092919080359060200190929190505050611d29565b005b3480156106b557600080fd5b506106e2600480360360208110156106cc57600080fd5b8101908080359060200190929190505050611d49565b6040518082815260200191505060405180910390f35b34801561070457600080fd5b5061070d611dc9565b6040518082815260200191505060405180910390f35b34801561072f57600080fd5b5061075c6004803603602081101561074657600080fd5b8101908080359060200190929190505050611dd6565b604051808273ffffffffffffffffffffffffffffffffffffffff1673ffffffffffffffffffffffffffffffffffffffff16815260200191505060405180910390f35b3480156107aa57600080fd5b506107b3611e9e565b6040518080602001828103825283818151815260200191508051906020019080838360005b838110156107f35780820151818401526020810190506107d8565b50505050905090810190601f1680156108205780820380516001836020036101000a031916815260200191505b509250505060405180910390f35b34801561083a57600080fd5b5061087d6004803603602081101561085157600080fd5b81019080803573ffffffffffffffffffffffffffffffffffffffff169060200190929190505050611f40565b6040518082815260200191505060405180910390f35b34801561089f57600080fd5b506108cc600480360360208110156108b657600080fd5b8101908080359060200190929190505050612015565b604051808981526020018873ffffffffffffffffffffffffffffffffffffffff1673ffffffffffffffffffffffffffffffffffffffff168152602001806020018781526020018660ff1660ff16815260200185600481111561092a57fe5b60ff168152602001848152602001838152602001828103825288818151815260200191508051906020019080838360005b8381101561097657808201518184015260208101905061095b565b50505050905090810190601f1680156109a35780820380516001836020036101000a031916815260200191505b50995050505050505050505060405180910390f35b3480156109c457600080fd5b506109cd61213c565b005b3480156109db57600080fd5b50610a08600480360360208110156109f257600080fd5b8101908080359060200190929190505050612275565b604051808981526020018873ffffffffffffffffffffffffffffffffffffffff1673ffffffffffffffffffffffffffffffffffffffff168152602001806020018781526020018660ff1660ff168152602001856004811115610a6657fe5b60ff168152602001848152602001838152602001828103825288818151815260200191508051906020019080838360005b83811015610ab2578082015181840152602081019050610a97565b50505050905090810190601f168015610adf5780820380516001836020036101000a031916815260200191505b50995050505050505050505060405180910390f35b348015610b0057600080fd5b50610b3760048036036040811015610b1757600080fd5b8101908080359060200190929190803590602001909291905050506124ed565b005b348015610b4557600080fd5b50610b4e612d05565b604051808273ffffffffffffffffffffffffffffffffffffffff1673ffffffffffffffffffffffffffffffffffffffff16815260200191505060405180910390f35b348015610b9c57600080fd5b50610ba5612d2e565b604051808215151515815260200191505060405180910390f35b348015610bcb57600080fd5b50610bd4612d8c565b6040518080602001828103825283818151815260200191508051906020019080838360005b83811015610c14578082015181840152602081019050610bf9565b50505050905090810190601f168015610c415780820380516001836020036101000a031916815260200191505b509250505060405180910390f35b348015610c5b57600080fd5b50610c9260048036036040811015610c7257600080fd5b810190808035906020019092919080359060200190929190505050612e2e565b005b348015610ca057600080fd5b50610ca96135a2565b604051808273ffffffffffffffffffffffffffffffffffffffff1673ffffffffffffffffffffffffffffffffffffffff16815260200191505060405180910390f35b348015610cf757600080fd5b50610d4660048036036040811015610d0e57600080fd5b81019080803573ffffffffffffffffffffffffffffffffffffffff1690602001909291908035151590602001909291905050506135c8565b005b348015610d5457600080fd5b50610e2560048036036060811015610d6b57600080fd5b8101908080359060200190640100000000811115610d8857600080fd5b820183602082011115610d9a57600080fd5b80359060200191846001830284011164010000000083111715610dbc57600080fd5b91908080601f016020809104026020016040519081016040528093929190818152602001838380828437600081840152601f19601f82011690508083019250505050505050919291929080359060200190929190803560ff169060200190929190505050613780565b005b348015610e3357600080fd5b50610e6a60048036036040811015610e4a57600080fd5b810190808035906020019092919080359060200190929190505050613aaf565b6040518085815260200184815260200180602001836002811115610e8a57fe5b60ff168152602001828103825284818151815260200191508051906020019080838360005b83811015610eca578082015181840152602081019050610eaf565b50505050905090810190601f168015610ef75780820380516001836020036101000a031916815260200191505b509550505050505060405180910390f35b348015610f1457600080fd5b5061101860048036036080811015610f2b57600080fd5b81019080803573ffffffffffffffffffffffffffffffffffffffff169060200190929190803573ffffffffffffffffffffffffffffffffffffffff1690602001909291908035906020019092919080359060200190640100000000811115610f9257600080fd5b820183602082011115610fa457600080fd5b80359060200191846001830284011164010000000083111715610fc657600080fd5b91908080601f016020809104026020016040519081016040528093929190818152602001838380828437600081840152601f19601f820116905080830192505050505050509192919290505050613ec5565b005b34801561102657600080fd5b5061105d6004803603604081101561103d57600080fd5b810190808035906020019092919080359060200190929190505050613f3d565b604051808581526020018481526020018060200183600281111561107d57fe5b60ff168152602001828103825284818151815260200191508051906020019080838360005b838110156110bd5780820151818401526020810190506110a2565b50505050905090810190601f1680156110ea5780820380516001836020036101000a031916815260200191505b509550505050505060405180910390f35b34801561110757600080fd5b506111346004803603602081101561111e57600080fd5b810190808035906020019092919050505061402c565b6040518080602001828103825283818151815260200191508051906020019080838360005b83811015611174578082015181840152602081019050611159565b50505050905090810190601f1680156111a15780820380516001836020036101000a031916815260200191505b509250505060405180910390f35b6111db600480360360208110156111c557600080fd5b810190808035906020019092919050505061422e565b005b3480156111e957600080fd5b506112166004803603602081101561120057600080fd5b8101908080359060200190929190505050614629565b6040518082815260200191505060405180910390f35b34801561123857600080fd5b5061129b6004803603604081101561124f57600080fd5b81019080803573ffffffffffffffffffffffffffffffffffffffff169060200190929190803573ffffffffffffffffffffffffffffffffffffffff16906020019092919050505061486f565b604051808215151515815260200191505060405180910390f35b3480156112c157600080fd5b50611304600480360360208110156112d857600080fd5b81019080803573ffffffffffffffffffffffffffffffffffffffff169060200190929190505050614903565b005b600060016000837bffffffffffffffffffffffffffffffffffffffffffffffffffffffff19167bffffffffffffffffffffffffffffffffffffffffffffffffffffffff1916815260200190815260200160002060009054906101000a900460ff169050919050565b6060600a8054600181600116156101000203166002900480601f0160208091040260200160405190810160405280929190818152602001828054600181600116156101000203166002900480156114065780601f106113db57610100808354040283529160200191611406565b820191906000526020600020905b8154815290600101906020018083116113e957829003601f168201915b5050505050905090565b600061141b82614989565b611470576040517f08c379a000000000000000000000000000000000000000000000000000000000815260040180806020018281038252602c815260200180615e68602c913960400191505060405180910390fd5b6003600083815260200190815260200160002060009054906101000a900473ffffffffffffffffffffffffffffffffffffffff169050919050565b60006114b682611dd6565b90508073ffffffffffffffffffffffffffffffffffffffff168373ffffffffffffffffffffffffffffffffffffffff16141561153d576040517f08c379a0000000000000000000000000000000000000000000000000000000008152600401808060200182810382526021815260200180615eec6021913960400191505060405180910390fd5b8073ffffffffffffffffffffffffffffffffffffffff1661155c6149fb565b73ffffffffffffffffffffffffffffffffffffffff16148061158b575061158a816115856149fb565b61486f565b5b6115e0576040517f08c379a0000000000000000000000000000000000000000000000000000000008152600401808060200182810382526038815260200180615dbc6038913960400191505060405180910390fd5b826003600084815260200190815260200160002060006101000a81548173ffffffffffffffffffffffffffffffffffffffff021916908373ffffffffffffffffffffffffffffffffffffffff160217905550818373ffffffffffffffffffffffffffffffffffffffff168273ffffffffffffffffffffffffffffffffffffffff167f8c5be1e5ebec7d5bd14f71427d1e84f3dd0314c0f7b2291e5b200ac8c7c3b92560405160405180910390a4505050565b600082101580156116a75750600e8054905082105b611719576040517f08c379a00000000000000000000000000000000000000000000000000000000081526004018080602001828103825260068152602001807f21696e646578000000000000000000000000000000000000000000000000000081525060200191505060405180910390fd5b611721615b42565b600e838154811061172e57fe5b906000526020600020906007020160405180610100016040529081600082015481526020016001820160009054906101000a900473ffffffffffffffffffffffffffffffffffffffff1673ffffffffffffffffffffffffffffffffffffffff1673ffffffffffffffffffffffffffffffffffffffff168152602001600282018054600181600116156101000203166002900480601f0160208091040260200160405190810160405280929190818152602001828054600181600116156101000203166002900480156118415780601f1061181657610100808354040283529160200191611841565b820191906000526020600020905b81548152906001019060200180831161182457829003601f168201915b50505050508152602001600382015481526020016004820160009054906101000a900460ff1660ff1660ff1681526020016004820160019054906101000a900460ff16600481111561188f57fe5b600481111561189a57fe5b81526020016005820154815260200160068201548152505090503373ffffffffffffffffffffffffffffffffffffffff16816020015173ffffffffffffffffffffffffffffffffffffffff161461193c576040517f08c379a0000000000000000000000000000000000000000000000000000000008152600401808060200182810382526024815260200180615f6a6024913960400191505060405180910390fd5b6002600481111561194957fe5b8160a00151600481111561195957fe5b146119af576040517f08c379a0000000000000000000000000000000000000000000000000000000008152600401808060200182810382526039815260200180615d836039913960400191505060405180910390fd5b6001600e84815481106119be57fe5b906000526020600020906007020160040160016101000a81548160ff021916908360048111156119ea57fe5b021790555042600e84815481106119fd57fe5b906000526020600020906007020160060181905550601260008260000151815260200190815260200160002060405180608001604052808360000151815260200142815260200184815260200160006002811115611a5757fe5b8152509080600181540180825580915050906001820390600052602060002090600402016000909192909190915060008201518160000155602082015181600101556040820151816002019080519060200190611ab5929190615bab565b5060608201518160030160006101000a81548160ff02191690836002811115611ada57fe5b0217905550505050505050565b6000600880549050905090565b611b05611aff6149fb565b82614a03565b611b5a576040517f08c379a0000000000000000000000000000000000000000000000000000000008152600401808060200182810382526031815260200180615f0d6031913960400191505060405180910390fd5b611b65838383614af7565b505050565b611b72612d2e565b611be4576040517f08c379a00000000000000000000000000000000000000000000000000000000081526004018080602001828103825260208152602001807f4f776e61626c653a2063616c6c6572206973206e6f7420746865206f776e657281525060200191505060405180910390fd5b81601160006101000a81548173ffffffffffffffffffffffffffffffffffffffff021916908373ffffffffffffffffffffffffffffffffffffffff16021790555080601360006101000a81548173ffffffffffffffffffffffffffffffffffffffff021916908373ffffffffffffffffffffffffffffffffffffffff1602179055505050565b6000611c7583611f40565b8210611ccc576040517f08c379a000000000000000000000000000000000000000000000000000000000815260040180806020018281038252602b815260200180615cb0602b913960400191505060405180910390fd5b600660008473ffffffffffffffffffffffffffffffffffffffff1673ffffffffffffffffffffffffffffffffffffffff1681526020019081526020016000208281548110611d1657fe5b9060005260206000200154905092915050565b611d4483838360405180602001604052806000815250613ec5565b505050565b6000611d53611ae7565b8210611daa576040517f08c379a000000000000000000000000000000000000000000000000000000000815260040180806020018281038252602c815260200180615f3e602c913960400191505060405180910390fd5b60088281548110611db757fe5b90600052602060002001549050919050565b6000600e80549050905090565b6000806002600084815260200190815260200160002060009054906101000a900473ffffffffffffffffffffffffffffffffffffffff169050600073ffffffffffffffffffffffffffffffffffffffff168173ffffffffffffffffffffffffffffffffffffffff161415611e95576040517f08c379a0000000000000000000000000000000000000000000000000000000008152600401808060200182810382526029815260200180615e1e6029913960400191505060405180910390fd5b80915050919050565b6060600c8054600181600116156101000203166002900480601f016020809104026020016040519081016040528092919081815260200182805460018160011615610100020316600290048015611f365780601f10611f0b57610100808354040283529160200191611f36565b820191906000526020600020905b815481529060010190602001808311611f1957829003601f168201915b5050505050905090565b60008073ffffffffffffffffffffffffffffffffffffffff168273ffffffffffffffffffffffffffffffffffffffff161415611fc7576040517f08c379a000000000000000000000000000000000000000000000000000000000815260040180806020018281038252602a815260200180615df4602a913960400191505060405180910390fd5b61200e600460008473ffffffffffffffffffffffffffffffffffffffff1673ffffffffffffffffffffffffffffffffffffffff168152602001908152602001600020614b1b565b9050919050565b600e818154811061202257fe5b90600052602060002090600702016000915090508060000154908060010160009054906101000a900473ffffffffffffffffffffffffffffffffffffffff1690806002018054600181600116156101000203166002900480601f0160208091040260200160405190810160405280929190818152602001828054600181600116156101000203166002900480156120fa5780601f106120cf576101008083540402835291602001916120fa565b820191906000526020600020905b8154815290600101906020018083116120dd57829003601f168201915b5050505050908060030154908060040160009054906101000a900460ff16908060040160019054906101000a900460ff16908060050154908060060154905088565b612144612d2e565b6121b6576040517f08c379a00000000000000000000000000000000000000000000000000000000081526004018080602001828103825260208152602001807f4f776e61626c653a2063616c6c6572206973206e6f7420746865206f776e657281525060200191505060405180910390fd5b600073ffffffffffffffffffffffffffffffffffffffff166000809054906101000a900473ffffffffffffffffffffffffffffffffffffffff1673ffffffffffffffffffffffffffffffffffffffff167f8be0079c531659141344cd1fd0a4f28419497f9722a3daafe3b4186f6b6457e060405160405180910390a360008060006101000a81548173ffffffffffffffffffffffffffffffffffffffff021916908373ffffffffffffffffffffffffffffffffffffffff160217905550565b600080606060008060008060008089101580156122965750600e8054905089105b612308576040517f08c379a00000000000000000000000000000000000000000000000000000000081526004018080602001828103825260068152602001807f21696e646578000000000000000000000000000000000000000000000000000081525060200191505060405180910390fd5b612310615b42565b600e8a8154811061231d57fe5b906000526020600020906007020160405180610100016040529081600082015481526020016001820160009054906101000a900473ffffffffffffffffffffffffffffffffffffffff1673ffffffffffffffffffffffffffffffffffffffff1673ffffffffffffffffffffffffffffffffffffffff168152602001600282018054600181600116156101000203166002900480601f0160208091040260200160405190810160405280929190818152602001828054600181600116156101000203166002900480156124305780601f1061240557610100808354040283529160200191612430565b820191906000526020600020905b81548152906001019060200180831161241357829003601f168201915b50505050508152602001600382015481526020016004820160009054906101000a900460ff1660ff1660ff1681526020016004820160019054906101000a900460ff16600481111561247e57fe5b600481111561248957fe5b8152602001600582015481526020016006820154815250509050806000015181602001518260400151836060015184608001518560a001518660c001518760e001518696508595509850985098509850985098509850985050919395975091939597565b600082101580156125025750600e8054905082105b612574576040517f08c379a00000000000000000000000000000000000000000000000000000000081526004018080602001828103825260068152602001807f21696e646578000000000000000000000000000000000000000000000000000081525060200191505060405180910390fd5b61257c615b42565b600e838154811061258957fe5b906000526020600020906007020160405180610100016040529081600082015481526020016001820160009054906101000a900473ffffffffffffffffffffffffffffffffffffffff1673ffffffffffffffffffffffffffffffffffffffff1673ffffffffffffffffffffffffffffffffffffffff168152602001600282018054600181600116156101000203166002900480601f01602080910402602001604051908101604052809291908181526020018280546001816001161561010002031660029004801561269c5780601f106126715761010080835404028352916020019161269c565b820191906000526020600020905b81548152906001019060200180831161267f57829003601f168201915b50505050508152602001600382015481526020016004820160009054906101000a900460ff1660ff1660ff1681526020016004820160019054906101000a900460ff1660048111156126ea57fe5b60048111156126f557fe5b81526020016005820154815260200160068201548152505090506001600481111561271c57fe5b8160a00151600481111561272c57fe5b1461279f576040517f08c379a000000000000000000000000000000000000000000000000000000000815260040180806020018281038252601d8152602001807f6d757374206265206f6e2070656e64696e672076616c69646174696f6e00000081525060200191505060405180910390fd5b600082101580156127c9575060126000826000015181526020019081526020016000208054905082105b61283b576040517f08c379a000000000000000000000000000000000000000000000000000000000815260040180806020018281038252600b8152602001807f2170726f6f66496e64657800000000000000000000000000000000000000000081525060200191505060405180910390fd5b6000600281111561284857fe5b6012600083600001518152602001908152602001600020838154811061286a57fe5b906000526020600020906004020160030160009054906101000a900460ff16600281111561289457fe5b14612907576040517f08c379a00000000000000000000000000000000000000000000000000000000081526004018080602001828103825260088152602001807f2170656e64696e6700000000000000000000000000000000000000000000000081525060200191505060405180910390fd5b60016012600083600001518152602001908152602001600020838154811061292b57fe5b906000526020600020906004020160030160006101000a81548160ff0219169083600281111561295757fe5b0217905550600081606001519050600061298e6064612980605a85614b2990919063ffffffff16565b614baf90919063ffffffff16565b905060006129b960646129ab600a86614b2990919063ffffffff16565b614baf90919063ffffffff16565b90506000846020015190508073ffffffffffffffffffffffffffffffffffffffff166108fc849081150290604051600060405180830381858888f19350505050158015612a0a573d6000803e3d6000fd5b50601360009054906101000a900473ffffffffffffffffffffffffffffffffffffffff1673ffffffffffffffffffffffffffffffffffffffff166108fc839081150290604051600060405180830381858888f19350505050158015612a73573d6000803e3d6000fd5b5060006001866080015103905080600e8981548110612a8e57fe5b906000526020600020906007020160040160006101000a81548160ff021916908360ff16021790555060008160ff161415612b08576004600e8981548110612ad257fe5b906000526020600020906007020160040160016101000a81548160ff02191690836004811115612afe57fe5b0217905550612b49565b6002600e8981548110612b1757fe5b906000526020600020906007020160040160016101000a81548160ff02191690836004811115612b4357fe5b02179055505b7fbc3f77ce3a281e615c85054a5814e59703e2ee0cf33782f46911e0888d4c394c600f601033604051808060200180602001806020018573ffffffffffffffffffffffffffffffffffffffff1673ffffffffffffffffffffffffffffffffffffffff168152602001848103845287818154600181600116156101000203166002900481526020019150805460018160011615610100020316600290048015612c325780601f10612c0757610100808354040283529160200191612c32565b820191906000526020600020905b815481529060010190602001808311612c1557829003601f168201915b5050848103835286818154600181600116156101000203166002900481526020019150805460018160011615610100020316600290048015612cb55780601f10612c8a57610100808354040283529160200191612cb5565b820191906000526020600020905b815481529060010190602001808311612c9857829003601f168201915b5050848103825260138152602001807f76616c696461746550726f6f664f66576f726b00000000000000000000000000815250602001965050505050505060405180910390a15050505050505050565b60008060009054906101000a900473ffffffffffffffffffffffffffffffffffffffff16905090565b60008060009054906101000a900473ffffffffffffffffffffffffffffffffffffffff1673ffffffffffffffffffffffffffffffffffffffff16612d706149fb565b73ffffffffffffffffffffffffffffffffffffffff1614905090565b6060600b8054600181600116156101000203166002900480601f016020809104026020016040519081016040528092919081815260200182805460018160011615610100020316600290048015612e245780601f10612df957610100808354040283529160200191612e24565b820191906000526020600020905b815481529060010190602001808311612e0757829003601f168201915b5050505050905090565b60008210158015612e435750600e8054905082105b612eb5576040517f08c379a00000000000000000000000000000000000000000000000000000000081526004018080602001828103825260068152602001807f21696e646578000000000000000000000000000000000000000000000000000081525060200191505060405180910390fd5b612ebd615b42565b600e8381548110612eca57fe5b906000526020600020906007020160405180610100016040529081600082015481526020016001820160009054906101000a900473ffffffffffffffffffffffffffffffffffffffff1673ffffffffffffffffffffffffffffffffffffffff1673ffffffffffffffffffffffffffffffffffffffff168152602001600282018054600181600116156101000203166002900480601f016020809104026020016040519081016040528092919081815260200182805460018160011615610100020316600290048015612fdd5780601f10612fb257610100808354040283529160200191612fdd565b820191906000526020600020905b815481529060010190602001808311612fc057829003601f168201915b50505050508152602001600382015481526020016004820160009054906101000a900460ff1660ff1660ff1681526020016004820160019054906101000a900460ff16600481111561302b57fe5b600481111561303657fe5b81526020016005820154815260200160068201548152505090506001600481111561305d57fe5b8160a00151600481111561306d57fe5b146130e0576040517f08c379a000000000000000000000000000000000000000000000000000000000815260040180806020018281038252601d8152602001807f6d757374206265206f6e2070656e64696e672076616c69646174696f6e00000081525060200191505060405180910390fd5b6000821015801561310a575060126000826000015181526020019081526020016000208054905082105b61317c576040517f08c379a000000000000000000000000000000000000000000000000000000000815260040180806020018281038252600b8152602001807f2170726f6f66496e64657800000000000000000000000000000000000000000081525060200191505060405180910390fd5b6000600281111561318957fe5b601260008360000151815260200190815260200160002083815481106131ab57fe5b906000526020600020906004020160030160009054906101000a900460ff1660028111156131d557fe5b14613248576040517f08c379a00000000000000000000000000000000000000000000000000000000081526004018080602001828103825260088152602001807f2170656e64696e6700000000000000000000000000000000000000000000000081525060200191505060405180910390fd5b60026012600083600001518152602001908152602001600020838154811061326c57fe5b906000526020600020906004020160030160006101000a81548160ff0219169083600281111561329857fe5b021790555060008160600151905060006132cf60646132c1600a85614b2990919063ffffffff16565b614baf90919063ffffffff16565b9050601360009054906101000a900473ffffffffffffffffffffffffffffffffffffffff1673ffffffffffffffffffffffffffffffffffffffff166108fc829081150290604051600060405180830381858888f19350505050158015613339573d6000803e3d6000fd5b506000613356846080015160ff1684614b2990919063ffffffff16565b9050600061336d8383614bf990919063ffffffff16565b90506003600e888154811061337e57fe5b906000526020600020906007020160040160016101000a81548160ff021916908360048111156133aa57fe5b02179055506000600e88815481106133be57fe5b906000526020600020906007020160040160006101000a81548160ff021916908360ff1602179055507fbc3f77ce3a281e615c85054a5814e59703e2ee0cf33782f46911e0888d4c394c600f601033604051808060200180602001806020018573ffffffffffffffffffffffffffffffffffffffff1673ffffffffffffffffffffffffffffffffffffffff1681526020018481038452878181546001816001161561010002031660029004815260200191508054600181600116156101000203166002900480156134d05780601f106134a5576101008083540402835291602001916134d0565b820191906000526020600020905b8154815290600101906020018083116134b357829003601f168201915b50508481038352868181546001816001161561010002031660029004815260200191508054600181600116156101000203166002900480156135535780601f1061352857610100808354040283529160200191613553565b820191906000526020600020905b81548152906001019060200180831161353657829003601f168201915b5050848103825260158152602001807f696e56616c696461746550726f6f664f66576f726b0000000000000000000000815250602001965050505050505060405180910390a150505050505050565b601160009054906101000a900473ffffffffffffffffffffffffffffffffffffffff1681565b6135d06149fb565b73ffffffffffffffffffffffffffffffffffffffff168273ffffffffffffffffffffffffffffffffffffffff161415613671576040517f08c379a00000000000000000000000000000000000000000000000000000000081526004018080602001828103825260198152602001807f4552433732313a20617070726f766520746f2063616c6c65720000000000000081525060200191505060405180910390fd5b806005600061367e6149fb565b73ffffffffffffffffffffffffffffffffffffffff1673ffffffffffffffffffffffffffffffffffffffff16815260200190815260200160002060008473ffffffffffffffffffffffffffffffffffffffff1673ffffffffffffffffffffffffffffffffffffffff16815260200190815260200160002060006101000a81548160ff0219169083151502179055508173ffffffffffffffffffffffffffffffffffffffff1661372b6149fb565b73ffffffffffffffffffffffffffffffffffffffff167f17307eab39ab6107e8899845ad3d59bd9653f200f220920489ca2b5937696c3183604051808215151515815260200191505060405180910390a35050565b6000600e80549050905060006137c860506137ba60646137ac8760ff1689614b2990919063ffffffff16565b614b2990919063ffffffff16565b614baf90919063ffffffff16565b9050600e6040518061010001604052808481526020013373ffffffffffffffffffffffffffffffffffffffff1681526020018781526020018681526020018560ff1681526020016000600481111561381c57fe5b815260200183815260200142815250908060018154018082558091505090600182039060005260206000209060070201600090919290919091506000820151816000015560208201518160010160006101000a81548173ffffffffffffffffffffffffffffffffffffffff021916908373ffffffffffffffffffffffffffffffffffffffff16021790555060408201518160020190805190602001906138c3929190615bab565b506060820151816003015560808201518160040160006101000a81548160ff021916908360ff16021790555060a08201518160040160016101000a81548160ff0219169083600481111561391357fe5b021790555060c0820151816005015560e082015181600601555050507fc4e35ee48689d4f7c3d8ea58efd54155f1ea84ffee48edb29b2cdf3c95320ea8600f6010336040518080602001806020018473ffffffffffffffffffffffffffffffffffffffff1673ffffffffffffffffffffffffffffffffffffffff168152602001838103835286818154600181600116156101000203166002900481526020019150805460018160011615610100020316600290048015613a145780601f106139e957610100808354040283529160200191613a14565b820191906000526020600020905b8154815290600101906020018083116139f757829003601f168201915b5050838103825285818154600181600116156101000203166002900481526020019150805460018160011615610100020316600290048015613a975780601f10613a6c57610100808354040283529160200191613a97565b820191906000526020600020905b815481529060010190602001808311613a7a57829003601f168201915b50509550505050505060405180910390a15050505050565b60008060606000808610158015613aca5750600e8054905086105b613b3c576040517f08c379a00000000000000000000000000000000000000000000000000000000081526004018080602001828103825260068152602001807f21696e646578000000000000000000000000000000000000000000000000000081525060200191505060405180910390fd5b613b44615b42565b600e8781548110613b5157fe5b906000526020600020906007020160405180610100016040529081600082015481526020016001820160009054906101000a900473ffffffffffffffffffffffffffffffffffffffff1673ffffffffffffffffffffffffffffffffffffffff1673ffffffffffffffffffffffffffffffffffffffff168152602001600282018054600181600116156101000203166002900480601f016020809104026020016040519081016040528092919081815260200182805460018160011615610100020316600290048015613c645780601f10613c3957610100808354040283529160200191613c64565b820191906000526020600020905b815481529060010190602001808311613c4757829003601f168201915b50505050508152602001600382015481526020016004820160009054906101000a900460ff1660ff1660ff1681526020016004820160019054906101000a900460ff166004811115613cb257fe5b6004811115613cbd57fe5b815260200160058201548152602001600682015481525050905060008610158015613d01575060126000826000015181526020019081526020016000208054905086105b613d73576040517f08c379a000000000000000000000000000000000000000000000000000000000815260040180806020018281038252600b8152602001807f2170726f6f66496e64657800000000000000000000000000000000000000000081525060200191505060405180910390fd5b613d7b615c2b565b60126000836000015181526020019081526020016000208781548110613d9d57fe5b90600052602060002090600402016040518060800160405290816000820154815260200160018201548152602001600282018054600181600116156101000203166002900480601f016020809104026020016040519081016040528092919081815260200182805460018160011615610100020316600290048015613e635780601f10613e3857610100808354040283529160200191613e63565b820191906000526020600020905b815481529060010190602001808311613e4657829003601f168201915b505050505081526020016003820160009054906101000a900460ff166002811115613e8a57fe5b6002811115613e9557fe5b81525050905080600001518160200151826040015183606001518191509550955095509550505092959194509250565b613ed6613ed06149fb565b83614a03565b613f2b576040517f08c379a0000000000000000000000000000000000000000000000000000000008152600401808060200182810382526031815260200180615f0d6031913960400191505060405180910390fd5b613f3784848484614c43565b50505050565b60126020528160005260406000208181548110613f5657fe5b906000526020600020906004020160009150915050806000015490806001015490806002018054600181600116156101000203166002900480601f01602080910402602001604051908101604052809291908181526020018280546001816001161561010002031660029004801561400f5780601f10613fe45761010080835404028352916020019161400f565b820191906000526020600020905b815481529060010190602001808311613ff257829003601f168201915b5050505050908060030160009054906101000a900460ff16905084565b606061403782614989565b61408c576040517f08c379a000000000000000000000000000000000000000000000000000000000815260040180806020018281038252602f815260200180615ebd602f913960400191505060405180910390fd5b6060600d60008481526020019081526020016000208054600181600116156101000203166002900480601f0160208091040260200160405190810160405280929190818152602001828054600181600116156101000203166002900480156141355780601f1061410a57610100808354040283529160200191614135565b820191906000526020600020905b81548152906001019060200180831161411857829003601f168201915b5050505050905060008151141561415e5760405180602001604052806000815250915050614229565b600c8160405160200180838054600181600116156101000203166002900480156141bf5780601f1061419d5761010080835404028352918201916141bf565b820191906000526020600020905b8154815290600101906020018083116141ab575b505082805190602001908083835b602083106141f057805182526020820191506020810190506020830392506141cd565b6001836020036101000a038019825116818451168082178552505050505050905001925050506040516020818303038152906040529150505b919050565b600081101580156142435750600e8054905081105b6142b5576040517f08c379a00000000000000000000000000000000000000000000000000000000081526004018080602001828103825260068152602001807f21696e646578000000000000000000000000000000000000000000000000000081525060200191505060405180910390fd5b6142bd615b42565b600e82815481106142ca57fe5b906000526020600020906007020160405180610100016040529081600082015481526020016001820160009054906101000a900473ffffffffffffffffffffffffffffffffffffffff1673ffffffffffffffffffffffffffffffffffffffff1673ffffffffffffffffffffffffffffffffffffffff168152602001600282018054600181600116156101000203166002900480601f0160208091040260200160405190810160405280929190818152602001828054600181600116156101000203166002900480156143dd5780601f106143b2576101008083540402835291602001916143dd565b820191906000526020600020905b8154815290600101906020018083116143c057829003601f168201915b50505050508152602001600382015481526020016004820160009054906101000a900460ff1660ff1660ff1681526020016004820160019054906101000a900460ff16600481111561442b57fe5b600481111561443657fe5b815260200160058201548152602001600682015481525050905060008160c0015190506000349050818110156144d4576040517f08c379a00000000000000000000000000000000000000000000000000000000081526004018080602001828103825260128152602001807f4e6f7420656e6f756768207061796d656e74000000000000000000000000000081525060200191505060405180910390fd5b60008360600151905060008460800151905060006144fe8260ff1684614b2990919063ffffffff16565b905060006145158286614bf990919063ffffffff16565b9050601160009054906101000a900473ffffffffffffffffffffffffffffffffffffffff1673ffffffffffffffffffffffffffffffffffffffff16636a62784282336040518363ffffffff1660e01b8152600401808273ffffffffffffffffffffffffffffffffffffffff1673ffffffffffffffffffffffffffffffffffffffff1681526020019150506000604051808303818588803b1580156145b857600080fd5b505af11580156145cc573d6000803e3d6000fd5b50505050506145df338860000151614cb5565b6002600e89815481106145ee57fe5b906000526020600020906007020160040160016101000a81548160ff0219169083600481111561461a57fe5b02179055505050505050505050565b600080821015801561463f5750600e8054905082105b6146b1576040517f08c379a00000000000000000000000000000000000000000000000000000000081526004018080602001828103825260068152602001807f21696e646578000000000000000000000000000000000000000000000000000081525060200191505060405180910390fd5b6146b9615b42565b600e83815481106146c657fe5b906000526020600020906007020160405180610100016040529081600082015481526020016001820160009054906101000a900473ffffffffffffffffffffffffffffffffffffffff1673ffffffffffffffffffffffffffffffffffffffff1673ffffffffffffffffffffffffffffffffffffffff168152602001600282018054600181600116156101000203166002900480601f0160208091040260200160405190810160405280929190818152602001828054600181600116156101000203166002900480156147d95780601f106147ae576101008083540402835291602001916147d9565b820191906000526020600020905b8154815290600101906020018083116147bc57829003601f168201915b50505050508152602001600382015481526020016004820160009054906101000a900460ff1660ff1660ff1681526020016004820160019054906101000a900460ff16600481111561482757fe5b600481111561483257fe5b8152602001600582015481526020016006820154815250509050601260008260000151815260200190815260200160002080549050915050919050565b6000600560008473ffffffffffffffffffffffffffffffffffffffff1673ffffffffffffffffffffffffffffffffffffffff16815260200190815260200160002060008373ffffffffffffffffffffffffffffffffffffffff1673ffffffffffffffffffffffffffffffffffffffff16815260200190815260200160002060009054906101000a900460ff16905092915050565b61490b612d2e565b61497d576040517f08c379a00000000000000000000000000000000000000000000000000000000081526004018080602001828103825260208152602001807f4f776e61626c653a2063616c6c6572206973206e6f7420746865206f776e657281525060200191505060405180910390fd5b61498681614cd6565b50565b6000806002600084815260200190815260200160002060009054906101000a900473ffffffffffffffffffffffffffffffffffffffff169050600073ffffffffffffffffffffffffffffffffffffffff168173ffffffffffffffffffffffffffffffffffffffff161415915050919050565b600033905090565b6000614a0e82614989565b614a63576040517f08c379a000000000000000000000000000000000000000000000000000000000815260040180806020018281038252602c815260200180615d57602c913960400191505060405180910390fd5b6000614a6e83611dd6565b90508073ffffffffffffffffffffffffffffffffffffffff168473ffffffffffffffffffffffffffffffffffffffff161480614add57508373ffffffffffffffffffffffffffffffffffffffff16614ac584611410565b73ffffffffffffffffffffffffffffffffffffffff16145b80614aee5750614aed818561486f565b5b91505092915050565b614b02838383614e1a565b614b0c8382615075565b614b168282615213565b505050565b600081600001549050919050565b600080831415614b3c5760009050614ba9565b6000828402905082848281614b4d57fe5b0414614ba4576040517f08c379a0000000000000000000000000000000000000000000000000000000008152600401808060200182810382526021815260200180615e476021913960400191505060405180910390fd5b809150505b92915050565b6000614bf183836040518060400160405280601a81526020017f536166654d6174683a206469766973696f6e206279207a65726f0000000000008152506152da565b905092915050565b6000614c3b83836040518060400160405280601e81526020017f536166654d6174683a207375627472616374696f6e206f766572666c6f7700008152506153a0565b905092915050565b614c4e848484614af7565b614c5a84848484615460565b614caf576040517f08c379a0000000000000000000000000000000000000000000000000000000008152600401808060200182810382526032815260200180615cdb6032913960400191505060405180910390fd5b50505050565b614cbf828261579c565b614cc98282615213565b614cd2816159b4565b5050565b600073ffffffffffffffffffffffffffffffffffffffff168173ffffffffffffffffffffffffffffffffffffffff161415614d5c576040517f08c379a0000000000000000000000000000000000000000000000000000000008152600401808060200182810382526026815260200180615d0d6026913960400191505060405180910390fd5b8073ffffffffffffffffffffffffffffffffffffffff166000809054906101000a900473ffffffffffffffffffffffffffffffffffffffff1673ffffffffffffffffffffffffffffffffffffffff167f8be0079c531659141344cd1fd0a4f28419497f9722a3daafe3b4186f6b6457e060405160405180910390a3806000806101000a81548173ffffffffffffffffffffffffffffffffffffffff021916908373ffffffffffffffffffffffffffffffffffffffff16021790555050565b8273ffffffffffffffffffffffffffffffffffffffff16614e3a82611dd6565b73ffffffffffffffffffffffffffffffffffffffff1614614ea6576040517f08c379a0000000000000000000000000000000000000000000000000000000008152600401808060200182810382526029815260200180615e946029913960400191505060405180910390fd5b600073ffffffffffffffffffffffffffffffffffffffff168273ffffffffffffffffffffffffffffffffffffffff161415614f2c576040517f08c379a0000000000000000000000000000000000000000000000000000000008152600401808060200182810382526024815260200180615d336024913960400191505060405180910390fd5b614f3581615a00565b614f7c600460008573ffffffffffffffffffffffffffffffffffffffff1673ffffffffffffffffffffffffffffffffffffffff168152602001908152602001600020615abe565b614fc3600460008473ffffffffffffffffffffffffffffffffffffffff1673ffffffffffffffffffffffffffffffffffffffff168152602001908152602001600020615ae1565b816002600083815260200190815260200160002060006101000a81548173ffffffffffffffffffffffffffffffffffffffff021916908373ffffffffffffffffffffffffffffffffffffffff160217905550808273ffffffffffffffffffffffffffffffffffffffff168473ffffffffffffffffffffffffffffffffffffffff167fddf252ad1be2c89b69c2b068fc378daa952ba7f163c4a11628f55a4df523b3ef60405160405180910390a4505050565b60006150cd6001600660008673ffffffffffffffffffffffffffffffffffffffff1673ffffffffffffffffffffffffffffffffffffffff16815260200190815260200160002080549050614bf990919063ffffffff16565b90506000600760008481526020019081526020016000205490508181146151ba576000600660008673ffffffffffffffffffffffffffffffffffffffff1673ffffffffffffffffffffffffffffffffffffffff168152602001908152602001600020838154811061513a57fe5b9060005260206000200154905080600660008773ffffffffffffffffffffffffffffffffffffffff1673ffffffffffffffffffffffffffffffffffffffff168152602001908152602001600020838154811061519257fe5b9060005260206000200181905550816007600083815260200190815260200160002081905550505b600660008573ffffffffffffffffffffffffffffffffffffffff1673ffffffffffffffffffffffffffffffffffffffff16815260200190815260200160002080548091906001900361520c9190615c5e565b5050505050565b600660008373ffffffffffffffffffffffffffffffffffffffff1673ffffffffffffffffffffffffffffffffffffffff168152602001908152602001600020805490506007600083815260200190815260200160002081905550600660008373ffffffffffffffffffffffffffffffffffffffff1673ffffffffffffffffffffffffffffffffffffffff1681526020019081526020016000208190806001815401808255809150509060018203906000526020600020016000909192909190915055505050565b60008083118290615386576040517f08c379a00000000000000000000000000000000000000000000000000000000081526004018080602001828103825283818151815260200191508051906020019080838360005b8381101561534b578082015181840152602081019050615330565b50505050905090810190601f1680156153785780820380516001836020036101000a031916815260200191505b509250505060405180910390fd5b50600083858161539257fe5b049050809150509392505050565b600083831115829061544d576040517f08c379a00000000000000000000000000000000000000000000000000000000081526004018080602001828103825283818151815260200191508051906020019080838360005b838110156154125780820151818401526020810190506153f7565b50505050905090810190601f16801561543f5780820380516001836020036101000a031916815260200191505b509250505060405180910390fd5b5060008385039050809150509392505050565b60006154818473ffffffffffffffffffffffffffffffffffffffff16615af7565b61548e5760019050615794565b600060608573ffffffffffffffffffffffffffffffffffffffff168673ffffffffffffffffffffffffffffffffffffffff1663150b7a02905060e01b6154d26149fb565b898888604051602401808573ffffffffffffffffffffffffffffffffffffffff1673ffffffffffffffffffffffffffffffffffffffff1681526020018473ffffffffffffffffffffffffffffffffffffffff1673ffffffffffffffffffffffffffffffffffffffff16815260200183815260200180602001828103825283818151815260200191508051906020019080838360005b83811015615582578082015181840152602081019050615567565b50505050905090810190601f1680156155af5780820380516001836020036101000a031916815260200191505b5095505050505050604051602081830303815290604052907bffffffffffffffffffffffffffffffffffffffffffffffffffffffff19166020820180517bffffffffffffffffffffffffffffffffffffffffffffffffffffffff83818316178352505050506040518082805190602001908083835b602083106156475780518252602082019150602081019050602083039250615624565b6001836020036101000a0380198251168184511680821785525050505050509050019150506000604051808303816000865af19150503d80600081146156a9576040519150601f19603f3d011682016040523d82523d6000602084013e6156ae565b606091505b50915091508161571c576000815111156156cb5780518082602001fd5b6040517f08c379a0000000000000000000000000000000000000000000000000000000008152600401808060200182810382526032815260200180615cdb6032913960400191505060405180910390fd5b600081806020019051602081101561573357600080fd5b8101908080519060200190929190505050905063150b7a0260e01b7bffffffffffffffffffffffffffffffffffffffffffffffffffffffff1916817bffffffffffffffffffffffffffffffffffffffffffffffffffffffff19161493505050505b949350505050565b600073ffffffffffffffffffffffffffffffffffffffff168273ffffffffffffffffffffffffffffffffffffffff16141561583f576040517f08c379a00000000000000000000000000000000000000000000000000000000081526004018080602001828103825260208152602001807f4552433732313a206d696e7420746f20746865207a65726f206164647265737381525060200191505060405180910390fd5b61584881614989565b156158bb576040517f08c379a000000000000000000000000000000000000000000000000000000000815260040180806020018281038252601c8152602001807f4552433732313a20746f6b656e20616c7265616479206d696e7465640000000081525060200191505060405180910390fd5b816002600083815260200190815260200160002060006101000a81548173ffffffffffffffffffffffffffffffffffffffff021916908373ffffffffffffffffffffffffffffffffffffffff160217905550615954600460008473ffffffffffffffffffffffffffffffffffffffff1673ffffffffffffffffffffffffffffffffffffffff168152602001908152602001600020615ae1565b808273ffffffffffffffffffffffffffffffffffffffff16600073ffffffffffffffffffffffffffffffffffffffff167fddf252ad1be2c89b69c2b068fc378daa952ba7f163c4a11628f55a4df523b3ef60405160405180910390a45050565b6008805490506009600083815260200190815260200160002081905550600881908060018154018082558091505090600182039060005260206000200160009091929091909150555050565b600073ffffffffffffffffffffffffffffffffffffffff166003600083815260200190815260200160002060009054906101000a900473ffffffffffffffffffffffffffffffffffffffff1673ffffffffffffffffffffffffffffffffffffffff1614615abb5760006003600083815260200190815260200160002060006101000a81548173ffffffffffffffffffffffffffffffffffffffff021916908373ffffffffffffffffffffffffffffffffffffffff1602179055505b50565b615ad660018260000154614bf990919063ffffffff16565b816000018190555050565b6001816000016000828254019250508190555050565b60008060007fc5d2460186f7233c927e7db2dcc703c0e500b653ca82273b7bfad8045d85a47060001b9050833f9150808214158015615b3957506000801b8214155b92505050919050565b60405180610100016040528060008152602001600073ffffffffffffffffffffffffffffffffffffffff1681526020016060815260200160008152602001600060ff16815260200160006004811115615b9757fe5b815260200160008152602001600081525090565b828054600181600116156101000203166002900490600052602060002090601f016020900481019282601f10615bec57805160ff1916838001178555615c1a565b82800160010185558215615c1a579182015b82811115615c19578251825591602001919060010190615bfe565b5b509050615c279190615c8a565b5090565b604051806080016040528060008152602001600081526020016060815260200160006002811115615c5857fe5b81525090565b815481835581811115615c8557818360005260206000209182019101615c849190615c8a565b5b505050565b615cac91905b80821115615ca8576000816000905550600101615c90565b5090565b9056fe455243373231456e756d657261626c653a206f776e657220696e646578206f7574206f6620626f756e64734552433732313a207472616e7366657220746f206e6f6e20455243373231526563656976657220696d706c656d656e7465724f776e61626c653a206e6577206f776e657220697320746865207a65726f20616464726573734552433732313a207472616e7366657220746f20746865207a65726f20616464726573734552433732313a206f70657261746f7220717565727920666f72206e6f6e6578697374656e7420746f6b656e50726f6f66206f6620776f726b2063616e206265207375626d6974746564206f6e6c7920616674657220696e697469616c207061796d656e744552433732313a20617070726f76652063616c6c6572206973206e6f74206f776e6572206e6f7220617070726f76656420666f7220616c6c4552433732313a2062616c616e636520717565727920666f7220746865207a65726f20616464726573734552433732313a206f776e657220717565727920666f72206e6f6e6578697374656e7420746f6b656e536166654d6174683a206d756c7469706c69636174696f6e206f766572666c6f774552433732313a20617070726f76656420717565727920666f72206e6f6e6578697374656e7420746f6b656e4552433732313a207472616e73666572206f6620746f6b656e2074686174206973206e6f74206f776e4552433732314d657461646174613a2055524920717565727920666f72206e6f6e6578697374656e7420746f6b656e4552433732313a20617070726f76616c20746f2063757272656e74206f776e65724552433732313a207472616e736665722063616c6c6572206973206e6f74206f776e6572206e6f7220617070726f766564455243373231456e756d657261626c653a20676c6f62616c20696e646578206f7574206f6620626f756e64736f6e6c792076656e646f722063616e207375626d69742070726f6f66206f6620776f726ba165627a7a72305820166943de2416a7b1955fbf304d326b5d18511f2b26a2f636fdefcfa1d20e3ca80029",
  "source": "pragma solidity ^0.5.0;\n\nimport \"./ITheToken.sol\";\nimport \"@openzeppelin/contracts/math/SafeMath.sol\";\nimport \"@openzeppelin/contracts/ownership/Ownable.sol\";\nimport \"@openzeppelin/contracts/token/ERC721/ERC721Full.sol\";\n\ncontract TheNFT2 is Ownable, ERC721Full {\n    using SafeMath for uint256;\n\n    enum StateType {\n        ForSale,\n        PendingValidation,\n        ContractRunning,\n        ContractCancelled,\n        ContractEnded\n    }\n\n    enum ProofStateType {Pending, Valid, Invalid}\n\n    event ContractCreated(\n        string applicationName,\n        string workflowName,\n        address payable originatingAddress\n    );\n    event ContractUpdated(\n        string applicationName,\n        string workflowName,\n        string action,\n        address payable originatingAddress\n    );\n\n    struct GreenContract {\n        uint256 id;\n        address payable vendor; // vendor\n        string data; // initial data species, gps, ipfs hash for initial photo\n        uint256 listPrice; // price listing\n        uint8 installments; // number of installments to pay the list price\n        StateType State; // green contract state\n        uint256 price; // 80%(listPrice*installments) + 20%(mintCoin)\n        uint256 lastProofUploadTime; // last upload photo\n    }\n\n    GreenContract[] public greenContractList;\n\n    struct ProofOfPhoto {\n        uint256 greenContractId;\n        uint256 uploadTime; // when the photo saved to blockchain\n        string newData; // ipfs hash to the photo\n        ProofStateType State;\n    }\n\n    string internal appName = \"CryptoForests\";\n    string internal workflowName = \"GreenContract\";\n    address payable public tokenAddress;\n\n    // track contract ID to proofs\n    mapping(uint256 => ProofOfPhoto[]) public greenContractProofs;\n    // default validator\n    address payable validator;\n\n    constructor() public ERC721Full(\"Crypto Forests\", \"TREE\") {}\n\n    function setup(address payable addr1, address payable addr2)\n        public\n        onlyOwner\n    {\n        tokenAddress = addr1;\n        validator = addr2;\n    }\n\n    function setTree(\n        string memory inputdata,\n        uint256 listPrice,\n        uint8 inputInstallments\n    ) public {\n        // everyone can be a vendor to list a tree\n        uint256 newId = greenContractList.length;\n        uint256 price = listPrice.mul(inputInstallments).mul(100).div(80);\n        greenContractList.push(\n            GreenContract(\n                newId,\n                msg.sender,\n                inputdata,\n                listPrice,\n                inputInstallments,\n                StateType.ForSale,\n                price,\n                now\n            )\n        );\n\n        emit ContractCreated(appName, workflowName, msg.sender);\n    }\n\n    function getTreeCount() public view returns (uint256) {\n        return greenContractList.length;\n    }\n\n    function getTreeData(uint256 greenContractIndex)\n        public\n        view\n        returns (\n            uint256, // id\n            address, // vendor\n            string memory, // data\n            uint256, // listPrice\n            uint8, // installments\n            StateType, // State\n            uint256, // price\n            uint256 // lastProofUploadTime\n        )\n    {\n        require(\n            greenContractIndex >= 0 &&\n                greenContractIndex < greenContractList.length,\n            \"!index\"\n        );\n        GreenContract memory g = greenContractList[greenContractIndex];\n        return (\n            g.id,\n            g.vendor,\n            g.data,\n            g.listPrice,\n            g.installments,\n            g.State,\n            g.price,\n            g.lastProofUploadTime\n        );\n    }\n\n    function buyTree(uint256 greenContractIndex) public payable {\n        // payable means user must pay to call this function\n        require(\n            (greenContractIndex >= 0 &&\n                greenContractIndex < greenContractList.length),\n            \"!index\"\n        );\n        // anyone can buy tree\n        GreenContract memory g = greenContractList[greenContractIndex];\n        uint256 price = g.price;\n        uint256 amountSent = msg.value;\n        require(amountSent >= price, \"Not enough payment\");\n\n        uint256 listPrice = g.listPrice;\n        uint8 installments = g.installments;\n\n        // on price 80% will be used for installments & 20% will be used to mint reward coin\n        // mint coin do up\n        uint256 toInstallments = listPrice.mul(installments);\n        uint256 toMint = amountSent.sub(toInstallments);\n\n        ITheToken(tokenAddress).mint.value(toMint)(msg.sender); // buyer receives coin\n        _mint(msg.sender, g.id); // buyer receives nft attached to greencontract id\n\n        // on bought, set state to not for sale and not on pending validation\n        greenContractList[greenContractIndex].State = StateType.ContractRunning;\n\n        // send vendor & validator money later after proof validation\n    }\n\n    function submitProofOfWork(\n        uint256 greenContractIndex,\n        string memory proofdata\n    ) public {\n        require(\n            greenContractIndex >= 0 &&\n                greenContractIndex < greenContractList.length,\n            \"!index\"\n        );\n        GreenContract memory g = greenContractList[greenContractIndex];\n        require(g.vendor == msg.sender, \"only vendor can submit proof of work\");\n        require(\n            g.State == StateType.ContractRunning,\n            \"Proof of work can be submitted only after initial payment\"\n        );\n\n        // must be after one month from latest submit\n        // uint256 delta = now.sub(g.lastProofUploadTime);\n        // uint256 diff = 30 days;\n        // require(delta >= diff,\"there should be 30 days difference between proof upload time\");\n\n        greenContractList[greenContractIndex].State = StateType\n            .PendingValidation;\n        greenContractList[greenContractIndex].lastProofUploadTime = now;\n        greenContractProofs[g.id].push(\n            ProofOfPhoto(g.id, now, proofdata, ProofStateType.Pending)\n        );\n    }\n\n    function getProofOfWorkCount(uint256 greenContractIndex)\n        public\n        view\n        returns (uint256)\n    {\n        require(\n            greenContractIndex >= 0 &&\n                greenContractIndex < greenContractList.length,\n            \"!index\"\n        );\n        GreenContract memory g = greenContractList[greenContractIndex];\n        return greenContractProofs[g.id].length;\n    }\n\n    function getProofOfWorkData(uint256 greenContractIndex, uint256 proofIndex)\n        public\n        view\n        returns (\n            uint256, // greenContractId\n            uint256, // uploadTime\n            string memory, // newData\n            ProofStateType // State\n        )\n    {\n        require(\n            greenContractIndex >= 0 &&\n                greenContractIndex < greenContractList.length,\n            \"!index\"\n        );\n        GreenContract memory g = greenContractList[greenContractIndex];\n        require(\n            proofIndex >= 0 && proofIndex < greenContractProofs[g.id].length,\n            \"!proofIndex\"\n        );\n\n        ProofOfPhoto memory p = greenContractProofs[g.id][proofIndex];\n        return (p.greenContractId, p.uploadTime, p.newData, p.State);\n    }\n\n    function validateProofOfWork(uint256 greenContractIndex, uint256 proofIndex)\n        public\n    {\n        require(\n            greenContractIndex >= 0 &&\n                greenContractIndex < greenContractList.length,\n            \"!index\"\n        );\n        GreenContract memory g = greenContractList[greenContractIndex];\n\n        require(\n            g.State == StateType.PendingValidation,\n            \"must be on pending validation\"\n        );\n        // requirement below cant be commented, because vendor may try to cheat by call this function\n        // require(msg.sender == validator, \"Only validator allowed to validate\");\n\n        require(\n            proofIndex >= 0 && proofIndex < greenContractProofs[g.id].length,\n            \"!proofIndex\"\n        );\n        require(\n            greenContractProofs[g.id][proofIndex].State ==\n                ProofStateType.Pending,\n            \"!pending\"\n        );\n        greenContractProofs[g.id][proofIndex].State = ProofStateType.Valid;\n\n        // if photo validated, vendor will receive 90% money, validator 10%\n        uint256 listPrice = g.listPrice;\n        uint256 toVendor = listPrice.mul(90).div(100);\n        uint256 toValidator = listPrice.mul(10).div(100);\n\n        // send vendor money\n        address payable vendor = g.vendor;\n        vendor.transfer(toVendor);\n\n        // send validator money\n        validator.transfer(toValidator);\n\n        uint8 newInstallments = g.installments - 1;\n        greenContractList[greenContractIndex].installments = newInstallments;\n        if (newInstallments == 0) {\n            greenContractList[greenContractIndex].State = StateType\n                .ContractEnded;\n        } else {\n            greenContractList[greenContractIndex].State = StateType\n                .ContractRunning;\n        }\n        emit ContractUpdated(\n            appName,\n            workflowName,\n            \"validateProofOfWork\",\n            msg.sender\n        );\n    }\n\n    function invalidateProofOfWork(\n        uint256 greenContractIndex,\n        uint256 proofIndex\n    ) public {\n        require(\n            greenContractIndex >= 0 &&\n                greenContractIndex < greenContractList.length,\n            \"!index\"\n        );\n        GreenContract memory g = greenContractList[greenContractIndex];\n\n        require(\n            g.State == StateType.PendingValidation,\n            \"must be on pending validation\"\n        );\n        // requirement below cant be commented, because vendor may try to cheat by call this function\n        // require(msg.sender == validator, \"Only validator allowed to validate\");\n\n        require(\n            proofIndex >= 0 && proofIndex < greenContractProofs[g.id].length,\n            \"!proofIndex\"\n        );\n        require(\n            greenContractProofs[g.id][proofIndex].State ==\n                ProofStateType.Pending,\n            \"!pending\"\n        );\n        greenContractProofs[g.id][proofIndex].State = ProofStateType.Invalid;\n\n        // on cancel installment, validator will receive current fee\n        uint256 listPrice = g.listPrice;\n        uint256 toValidator = listPrice.mul(10).div(100);\n        validator.transfer(toValidator);\n\n        // donate remaining money minus to validator\n        uint256 remainingMoney = listPrice.mul(g.installments);\n        uint256 toDonate = remainingMoney.sub(toValidator);\n        // ITheToken(tokenAddress).donate.value(toDonate)();\n\n        greenContractList[greenContractIndex].State = StateType\n            .ContractCancelled;\n        greenContractList[greenContractIndex].installments = 0;\n        emit ContractUpdated(\n            appName,\n            workflowName,\n            \"inValidateProofOfWork\",\n            msg.sender\n        );\n    }\n}\n",
  "sourcePath": "/home/leledumbodev/devpost/CryptoForests/contracts/TheNFT2.sol",
  "compiler": {
    "name": "solc",
    "version": "0.5.7+commit.6da8b019.Emscripten.clang"
  },
  "schemaVersion": "3.3.0",
  "updatedAt": "2020-11-04T02:45:58.328Z",
  "devdoc": {
    "methods": {
      "approve(address,uint256)": {
        "details": "Approves another address to transfer the given token ID The zero address indicates there is no approved address. There can only be one approved address per token at a given time. Can only be called by the token owner or an approved operator.",
        "params": {
          "to": "address to be approved for the given token ID",
          "tokenId": "uint256 ID of the token to be approved"
        }
      },
      "balanceOf(address)": {
        "details": "Gets the balance of the specified address.",
        "params": {
          "owner": "address to query the balance of"
        },
        "return": "uint256 representing the amount owned by the passed address"
      },
      "baseURI()": {
        "details": "Returns the base URI set via {_setBaseURI}. This will be automatically added as a preffix in {tokenURI} to each token's URI, when they are non-empty.    * _Available since v2.5.0._"
      },
      "getApproved(uint256)": {
        "details": "Gets the approved address for a token ID, or zero if no address set Reverts if the token ID does not exist.",
        "params": {
          "tokenId": "uint256 ID of the token to query the approval of"
        },
        "return": "address currently approved for the given token ID"
      },
      "isApprovedForAll(address,address)": {
        "details": "Tells whether an operator is approved by a given owner.",
        "params": {
          "operator": "operator address which you want to query the approval of",
          "owner": "owner address which you want to query the approval of"
        },
        "return": "bool whether the given operator is approved by the given owner"
      },
      "isOwner()": {
        "details": "Returns true if the caller is the current owner."
      },
      "name()": {
        "details": "Gets the token name.",
        "return": "string representing the token name"
      },
      "owner()": {
        "details": "Returns the address of the current owner."
      },
      "ownerOf(uint256)": {
        "details": "Gets the owner of the specified token ID.",
        "params": {
          "tokenId": "uint256 ID of the token to query the owner of"
        },
        "return": "address currently marked as the owner of the given token ID"
      },
      "renounceOwnership()": {
        "details": "Leaves the contract without owner. It will not be possible to call `onlyOwner` functions anymore. Can only be called by the current owner.     * NOTE: Renouncing ownership will leave the contract without an owner, thereby removing any functionality that is only available to the owner."
      },
      "safeTransferFrom(address,address,uint256)": {
        "details": "Safely transfers the ownership of a given token ID to another address If the target address is a contract, it must implement {IERC721Receiver-onERC721Received}, which is called upon a safe transfer, and return the magic value `bytes4(keccak256(\"onERC721Received(address,address,uint256,bytes)\"))`; otherwise, the transfer is reverted. Requires the msg.sender to be the owner, approved, or operator",
        "params": {
          "from": "current owner of the token",
          "to": "address to receive the ownership of the given token ID",
          "tokenId": "uint256 ID of the token to be transferred"
        }
      },
      "safeTransferFrom(address,address,uint256,bytes)": {
        "details": "Safely transfers the ownership of a given token ID to another address If the target address is a contract, it must implement {IERC721Receiver-onERC721Received}, which is called upon a safe transfer, and return the magic value `bytes4(keccak256(\"onERC721Received(address,address,uint256,bytes)\"))`; otherwise, the transfer is reverted. Requires the _msgSender() to be the owner, approved, or operator",
        "params": {
          "_data": "bytes data to send along with a safe transfer check",
          "from": "current owner of the token",
          "to": "address to receive the ownership of the given token ID",
          "tokenId": "uint256 ID of the token to be transferred"
        }
      },
      "setApprovalForAll(address,bool)": {
        "details": "Sets or unsets the approval of a given operator An operator is allowed to transfer all tokens of the sender on their behalf.",
        "params": {
          "approved": "representing the status of the approval to be set",
          "to": "operator address to set the approval"
        }
      },
      "supportsInterface(bytes4)": {
        "details": "See {IERC165-supportsInterface}.     * Time complexity O(1), guaranteed to always use less than 30 000 gas."
      },
      "symbol()": {
        "details": "Gets the token symbol.",
        "return": "string representing the token symbol"
      },
      "tokenByIndex(uint256)": {
        "details": "Gets the token ID at a given index of all the tokens in this contract Reverts if the index is greater or equal to the total number of tokens.",
        "params": {
          "index": "uint256 representing the index to be accessed of the tokens list"
        },
        "return": "uint256 token ID at the given index of the tokens list"
      },
      "tokenOfOwnerByIndex(address,uint256)": {
        "details": "Gets the token ID at a given index of the tokens list of the requested owner.",
        "params": {
          "index": "uint256 representing the index to be accessed of the requested tokens list",
          "owner": "address owning the tokens list to be accessed"
        },
        "return": "uint256 token ID at the given index of the tokens list owned by the requested address"
      },
      "tokenURI(uint256)": {
        "details": "Returns the URI for a given token ID. May return an empty string.     * If the token's URI is non-empty and a base URI was set (via {_setBaseURI}), it will be added to the token ID's URI as a prefix.     * Reverts if the token ID does not exist."
      },
      "totalSupply()": {
        "details": "Gets the total amount of tokens stored by the contract.",
        "return": "uint256 representing the total amount of tokens"
      },
      "transferFrom(address,address,uint256)": {
        "details": "Transfers the ownership of a given token ID to another address. Usage of this method is discouraged, use {safeTransferFrom} whenever possible. Requires the msg.sender to be the owner, approved, or operator.",
        "params": {
          "from": "current owner of the token",
          "to": "address to receive the ownership of the given token ID",
          "tokenId": "uint256 ID of the token to be transferred"
        }
      },
      "transferOwnership(address)": {
        "details": "Transfers ownership of the contract to a new account (`newOwner`). Can only be called by the current owner."
      }
    }
  },
  "userdoc": {
    "methods": {}
  }
}